:400000000040002011000000FD110000FD11000010B501F015F9C04610B51222154B1A60302001F081FA144A144B1A60E8225201134B1A60134B1449196014490A60144A15
:400040001A6082221206134B1A608022D202124B1A604022114B1A600132114B1A601149072001F099F9072001F070F900220E4B1A6010BD300010400600008004010B4047
:40008000000301400000014040FF00800403014041FF008008010B4000010B402801014008010140B91700000C020B4010B572B600240FE037486200131959000B004118AD
:4000C00089881A5AC31858880004104301F05EF80134E4B2012CEDD92E4801000C31503001F03AF8C02292012B4B1A60C02292052A4B1A60EE221202294B1A60EE22294BAA
:400100001A6099231B04284A13608021C903274A1160274A1360274A136080210906264A1160264A136026490B783C22934314221343DBB20B70234A117816230B43DBB236
:400140001370C822204B1A60204A214B1A6080221202204B1A60822292001F4B1A60423AFF3A1E4B1A60D82212041D4B1A6007221C4B1A60D82212011B4B1A6003221B4B1C
:400180001A6021321A4B1A60FFF746FF01F014F810BDC04668F300000000024000020240000302400004024000500F4008500F4010500F4020500F4028500F4030500F40D2
:4001C00001700F4000700F4000000440000C5800080004400C0004400801044000020440080204401802044008030440000404400804044010B5064C2378002B07D1054B11
:40020000002B02D0044800E000BF0123237010BD980100200000000080670000084B10B5002B03D00749084800E000BF07480368002B00D110BD064B002BFBD09847F9E7D4
:40024000000000009C01002080670000C000002000000000054A1368591C1160C82B04DD130001225A6000221A607047B401002070B514001D001439CBB20C2B03D8990093
:400280000E4B5B589F46002016E0287801F01CFC0135013CE4B2002CF7D101200CE02023C05C4008002101F05DFB012004E001F0C5FB012000E0012070BDC0468867000079
:4002C00010B52A2907D02B2909D029290AD1100001F09AF806E00A2001F066F902E0024801F0FAF9012010BDB012000070B51B4B0021595E002001F05DFE0200184C19496B
:40030000200003F0A7FF184D230003220021280000F0B8FA154B0021595E012001F04AFE02001349200003F095FF230004220021280000F0A7FA0F4B0021595E022001F06D
:4003400039FE02000C49200003F084FF230005220021280000F096FA70BDC0462C02002030020020BC67000070020020B6020020C8670000B4020020D467000070B5504CE5
:40038000E179237A1B020B431A00607A000403001343A07A0006184303F0AAF902000B00484D4949280003F055FF484E2B0002220021300000F066FAE17A237B1B020B43EC
:4003C0001A00607B000403001343A07B0006184303F08EF902000B003D49280003F03AFF2B0003220021300000F04CFAE17B237C1B020B431A00607C000403001343A07C22
:400400000006184303F074F902000B003149280003F020FF2B0004220021300000F032FAE17C237D1B020B431A00607D000403001343A07D0006184303F05AF902000B00EF
:400440002549280003F006FF2B0005220021300000F018FA214B0021595E022001F0AAFD02F0AEF903F044F900221D4B02F01CFD02000B001B49280003F0ECFE2B00062224
:400480000021300000F0FEF9174B0021595E012001F090FD02F094F903F02AF90022104B02F002FD02000B001049280003F0D2FE2B0007220021300000F0E4F970BDC04632
:4004C0009C02002030020020E067000070020020EC670000FC6700000C680000B402002000408F4018680000B60200202468000070B5124EB279124C1249200003F0AAFEFC
:40050000114D230003220021280000F0BBF932790E49200003F09EFE230004220021280000F0B0F972790A49200003F093FE230005220021280000F0A5F970BD9C0200205E
:400540003002002030680000700200203C6800004468000010B5054B9868424250419860C0B200F0BFFE01F059FD10BDB4010020F8B5114F114EFB68DB00F318586803F01D
:400580008BFE10231C1A64080D4D280000F0AAFD0C4B00220121280000F074F9FB68DB00F3185B68E1B20122280000F06BF9FB68DB009B599847F8BDB4010020C4000020E7
:4005C000700200205468000030B585B062B601F0ADFC01F0BBFC01F057F9584801F04AFD574C584B0093584B584A5949200000F0A3FD200000F048FD0021200000F04CFDE1
:400600005449200000F0FEF8FFF7B2FF01F04AF85149002001F056F8002202AB1A7009236B4400221A705A709A70DA700021422001F098F9002803D0002000F067FEFEE7EC
:40064000002001F041FA01F0F9F9012001F088FC00280ED0002001F097FC404B1880012001F092FC3E4B1880022001F08DFC3D4B188000F02FFE041E0AD1012D08D13A4DC3
:40068000EB68581C032101F06DFFE960FFF770FF002317223549422001F000FB01F060FAC307FBD5304B5B68002B41D02E4B00225A60DB68DB002E4A9B589847029B1B0A3E
:4006C00002AA10790006184303F012F8294A2A4B02F0BEF803F060F809226A441070010A5170010C9170030ED37003F001F8234A234B02F051F8002806D009236B44002208
:400700001A705A709A70DA700023052202A9422001F04EFA01F024FA8307FBD508E0642000F072FE00F0EAFDC043C0B200F0DAFD0D4B9B68002BF2D1250086E75505000004
:4007400070020020C102000071020000890C0000B10F0000ACD60000550200002C020020B6020020B4020020B40100209C020020C40000209A9999999999B93FCDCCCCCC50
:40078000CCCC004010B58469237864788B4219D88C4219D3CB1A9BB2DB009BB202339BB2002106E08469E45C545401339BB20131C9B20729F6D90AE0D11800240C70013334
:4007C000DBB202E0002300E00023072BF4D9C37F002B07D109E0D0180178C94301700133DBB200E00023072BF5D910BD002903D00A2903D088B202E0014800E00048704782
:40080000FFFF000081617047F0B585B004000E00170002AD2A001900FFF7B4FF009501233A003100200000F017FC05B0F0BDC04600222323C2547047F0B583B006000F00B2
:4008400001921C00FFF7F4FF002521783000736898470A4A90420ED00134094A9042F4D0C3B2019A39003000FFF7CEFF0137FFB26B1CDDB2E9E7280003B0F0BDFFFF000085
:40088000FEFF000010B5024C4460FFF7D5FF10BDED07000010B50A00046900232021A04710BDC04610B5130004690A001721A04710BDC04600B583B06B46DA1D117001212B
:4008C000FFF7F0FF03B000BD10B50469002300221821A04710BDC04610B50469002300221921A04710BDC04670B504000D001600FFF7EAFF40212000FFF7DCFF33002A00F4
:40090000172120002569A8472000FFF7E5FF70BD10B50A00C46800231521A04710BDC04610B50A00C46800231621A04710BDC04610B51300C4680A001721A04710BDC0469E
:4009400010B5C468002300221821A04710BDC04610B5C468002300221921A04710BDC04670B582B005000C0021780134172911D002D8152905D226E0192915D9FE2919D098
:4009800021E022786B46DA7100232800EE68B0470134E9E723786A460732137001212800FFF7C6FF0134DFE7002300222800EE68B047D9E722786B46DA712921280000F08A
:4009C0009FFB0134D0E702B070BDC04670B50C00143CE5B2052D10D8AC00094D2C59A7461100FFF767FF012008E01100FFF762FF012003E00469A04700E0002070BDC0467D
:400A000080680000F0B583B004000D00160001930B00143BDAB2052A1FD89300104AD3589F460121FFF736FF31002000FFF742FF012013E00121FFF72DFF31002000FFF7BE
:400A400039FF01200AE00021FFF724FF2769019B320029002000B84700E0002003B0F0BD98680000F0B583B004000D00160001930B00143BDAB2052A1FD89300104AD3583C
:400A80009F460121FFF706FF31002000FFF712FF012013E00021FFF7FDFE31002000FFF709FF01200AE00021FFF7F4FE2769019B320029002000B84700E0002003B0F0BD4D
:400AC000B0680000F0B583B004000D00160001930B00143BDAB2052A1FD89300104AD3589F460021FFF7D6FE31002000FFF7E2FE012013E00021FFF7CDFE31002000FFF7F3
:400B0000D9FE01200AE00121FFF7C4FE2769019B320029002000B84700E0002003B0F0BDC8680000F0B583B004000D00160001930B00143BDAB2052A1FD89300104AD3580C
:400B40009F460021FFF7A6FE31002000FFF7B2FE012013E00121FFF79DFE31002000FFF7A9FE01200AE00121FFF794FE2769019B320029002000B84700E0002003B0F0BD6E
:400B8000E0680000F8B5040016001F000B00143BDAB2052A72D89300394AD3589F46F821FFF788FE01222C21200000F0A9FA0F23310099432000FFF77DFE01222C2120006A
:400BC00000F09EFA3601F1B22000FFF773FE01222C21200000F094FA012050E0F821FFF769FE0F23310099432000FFF763FE3601F1B22000FFF75EFE012040E0FA21FFF7E3
:400C000059FE01222C21200000F07AFA16E01D4808237D1C3A780F2117008F43077012014270013BDBB22F000230002BF1D1083EF6B2144A10212000FFF734FE072EE6D874
:400C40000EE03D780F23290099432000FFF732FE2D01E9B22000FFF72DFE0137013EF6B2002EEED101222C21200000F049FA012005E005693B003200A84700E00020F8BDF6
:400C8000F8680000C4010020F8B5050014001E000B00143BDAB2052A03D89300194AD3589F4600202DE0FFF70FFE00212800FFF701FE21002800FFF7FDFD2800FFF70CFE46
:400CC00001201EE0320018212800FFF70DFE183CE4B21836182CF5D8320021002800FFF703FE01200DE02023C35CFF2B02D17822DF3BC2542F69330022002800B84700E05B
:400D00000120F8BD10690000F8B5040015001E000B00143BDAB2052A51D893002A4AD3589F462A4B1B7C002B01D0FFF7D5FD2000FFF7CAFD29002000FFF7BCFD0122234BF5
:400D40001A7401203EE02900FFF7B4FD012039E033001822172120002769B847183DEDB218362000FFF7B8FD2000FFF7ADFD08212000FFF79FFD182DEAD8276933002A00AC
:400D800017212000B84701201CE02023C35CFF2B02D16022DF3BC254276933002A002000B8470FE00022094B1A7401200AE0074B1B7C002B05D0FFF78FFD012002E0002016
:400DC00000E00120F8BDC04628690000C4010020F8B5050014001E000B00143BDAB2052A6BD89300364AD3589F46364B5B7C002B06D12022835C03218B438354FFF764FDC7
:400E000021002800FFF756FD01222E4B5A74012054E02C4B5B7C002B0CD0FFF75DFD20216B5C03229343022213436B542800FFF74BFD08E02021435C0322934302221343DD
:400E40004354FFF741FD01221E4B5A740EE033001822172128002F69B847183CE4B218362800FFF739FD2800FFF72EFD182CEED82F693300220017212800B84701201DE0B2
:400E80002023C35CFF2B02D17022DF3BC2542F69330022002800B84710E00022094B5A7401200BE0074B5B7C002B01D0FFF714FD0022044B5A74012000E00020F8BDC04676
:400EC00040690000C4010020F8B5040015001E000D2915D002D80B2905D064E00E2923D00F2930D05FE0002A04D13049FFF738FD012059E02D490831FFF732FD012053E078
:400F0000002A08D129491031FFF72AFD23689B7CA377012048E025491831FFF721FD2368DB7CA37701203FE0FFF70AFD81212000FFF7EEFC29002000FFF7F2FC2000FFF7F0
:400F400007FD012030E0FFF7FBFC7379DB00DBB2A77FDB19DFB240212000FFF7D9FC390910231943C9B22000FFF7D2FC0F2139402000FFF7D5FCB379502149421943C9B245
:400F80002000FFF7CDFC3179C900C9B232682000FFF7CEFC013DEDB2002DF4D12000FFF7D7FC012000E00020F8BDC0465869000070B505000C00FFF787FF002814D1092CA1
:400FC0000BD00A2C11D1280000F016F8074920312800FFF7C5FC012007E004495831280000F006F8012000E0012070BD5869000001608B7C8377704770B5040000230022CD
:4010000028214569A8470023002214212000E568A84701224B21200000F072F823681A792921200000F06CF800224B21200000F067F823681A792921200000F061F801221E
:401040004B21200000F05CF823685A792921200000F056F870BDC04610B582B06C466171A2712371049B009384686B4601220F21A04702B010BDC04610B5846800230022C1
:401080000921A04710BDC04610B58468002300220A21A04710BDC04610B50A00846800230B21A04710BDC04670B582B0040000236A46537101226846027100912268557C8B
:4010C000837123681A7C6B460F212000A668B0476B469B790133DBB26A4693719D42F0D802B070BD10B582B0040008220021684602F031FC69462000FFF7D6FF02B010BDE9
:4011000010B544690023A04710BDC0460020704700230360074A8260C26002614261C3772222835401328354FF33033A83540532835470470D110000F8B504000F0016004A
:401140001D00FFF7E5FFA760E6602561069B63612000FFF791FFF8BDF0B50025002711E0BB00C658F3B2FF22964308E06A008A181478A419527822700135013BDBB2002BC8
:40118000F4D10137052FEBD9F0BDC04610B50A00002102F0E0FB10BD064B1B68002803D080221206134301E05B005B08014A13607047C04680033A4010B50323094A136056
:4011C000094A136080221206084B1A600723084A1360084A13600022074B1A600120FFF7DBFF10BD300030403000314000003A4000033A4040033A40000E3F4010B502F009
:4012000075FB03680C2B00D1FEE7FEE710B50300094A1068C318094A9A1A802189008A4202DC054A136005E002F060FB0C2303600120404210BDC046DC000020F8020020A6
:4012400070B50F4E0F4D13E029686B68AC68002202E001C901C30432A242FAD1E868002202E0002102C304328242FAD11035013E002EE9D102F040FBFFF7A6F9FEE7C04696
:401280000100000090F6000010B50E4A136801218B43136000230AE0032B03D89A000A49505800E009489900094A885001332F2BF2D9FEF7FBFE034A116801230B4313601A
:4012C00010BDC0460000104000000000FD11000000000020024B186840080123184070470401044004490A68D2B240239A438001184010430860704700000440024B18682D
:4013000080090123184070470400044004490A68D2B240239A438001184010430860704700020440024A1168024B0B401360704700002240FFFFFFBF034B18688023DB059F
:40134000184000D001207047000022401F2318401E3B8340014A13607047C04600E100E01F2318401E3B8340014A13607047C04680E100E001BE704770B504000D000F28C4
:4013800002D90020FFF7F6FFA40080239B059C4664442068256070BD70B504000D001F2802D90020FFF7E6FF1034A40080239B059C4664442068256070BDC04670B504002B
:4013C0000E00032902D90020FFF7D4FF1F2C02D90020FFF7CFFF03252540ED00063500F084F9A408A400074B9C46644421680323AB4099430B003100A9401943216000F02F
:4014000078F970BD00E400E010B5040006E0084B586800F061F9074B9C46644480231B029C42F4D8024B9868604300F055F910BDE00000200080FFFF30B583B000F066F918
:4014400000285AD000F051F9040000230AE02C4A12683F210A402B49C95C8A4201D1033303E001332D2BF2D90323274A1268D20606D1254802681F218A4313390A430260EF
:40148000224A1168224A0A40224959438020C00184466144C90B01394905490D0A43A021490311430800192B02D81B4B1A430EE01A4A9A1812781A3B1249C9183023CB5CD8
:4014C000D318FF2B00D9FF239B0502001A430F4B1A60134D2B680193302000F0D9FD114A13688021C9050B4313601420FFF78CFF019B2B60200000F0FCF803B030BDC046E0
:401500002CFF0B40D0F3000034FF0B400800224000F800C040420F000000D43FCDF1FF0F300010400000224030B587B0040000F0DCF80500FFF700FF002803D0FFF7F2FEC1
:40154000012100E00021104B1B6800930F4B1B680193033C0E4B1B5D02930E4B1B68039304AA0D4B04936B4605930C4B1A600C480C4A10601B68012901D1FFF75DFF280085
:4015800000F0B7F807B030BD08010B4000010B40D0F3000030001040B6EA000008001040170000800400104010B5034B1B7B584300F092F810BDC046E0000020024A1168CC
:4015C00002230B431360704710E000E010B5FFF7F5FF034A116801230B43136010BDC04610E000E00002000A014B18607047C04614E000E0012805D1054A116804230B43E4
:40160000136004E0024A136804218B431360704710E000E0024B1868000C01231840704710E000E010B5FFF7F5FF01280BD107E0A300054A9B58002B00D09847013400E054
:401640000024042CF4D910BDD80100200022014B1A60704718E000E010B5002304E0990000200D4A88500133042BF8D90B490F20FFF782FE0120FFF7BDFF094B1869FA2168
:40168000890000F0E9FEFFF7ADFFFFF7DFFF0F20FFF75CFE10BDC046D801002025160000E000002010B5064B5B69002B04D1FFF7D3FF0122024B5A61FFF788FF10BDC046B1
:4016C000D8010020024A8300985899507047C046D8010020000000000230800803D00138FDD1C046C046C0467047EFF3108072B6704780F310887047034B1868C0231B0255
:40170000184000D00120704700010B40034B1B68002B01DA012000E0002070470000224010B5FFF7E2FF044A1368C02109020B431360FFF7DEFF10BD00010B4010B5FFF793
:40174000D4FF08490A68084B1A408024E40122430A600A6813408022120213430B60FFF7C8FF10BD00010B40FF3FFFFF70B50500FFF7BBFF0400FFF7BFFF002803D0FFF7FD
:40178000DDFF012100E0002108482840084A1568084B2B40184310601368012901D1FFF7BFFF2000FFF7A5FF70BDC0460404040010020B40FBFBFBFF10B5244B1B685B0790
:4017C00015D5234B5B685B070ED5224B596A042001401F4C62688A4362605A6A82435A629B69002B00D098470420FFF7BFFF174B1B685B0518D5164B5B685B0510D5154B3A
:40180000596A8022D2001140114842688A434260596A114A0A405A62DB69002B00D098478020C000FFF7A2FF084B1B685B030CD5074B5B685B0304D5064B1B6A002B00D043
:4018400098478020C002FFF791FF10BD10020B40F4000020F0010020FFFBFFFF10B50820FFF774FD10BDC04610B500F01DF810BD10B5044A1368802109060B431360FFF7A7
:40188000EDFF10BD0000244010B5064B1B78002B04D1FFF7E9FF0122024B1A70FFF7E8FF10BDC0461802002010B50024194B1C60194A1A4B1A601A4B1A4A13601A4A146081
:4018C0001A4A14601A4A13601A4B1C600820FFF747FD03210820FFF771FD17490820FFF75BFD164B1C60164B1C60164B1C601422FF32154B1A60154B1C60154B1C60043AA2
:40190000FF3A144B1A70144B1C80144B1C60144B1C6010BD000024407708008060002440070100800003244004032440100324400002244004022440E5200000C80E244000
:40194000880E2440480F2440080F2440C80F2440880F2440B8020020C8020020D8020020C002002070B504000D002D4B1B78102B51D12C4B1B68DB074FD40820FFF7F0FCBA
:401980006400FF231C40002D03D12422244B1A7004E02522224B1A7001231C43224B1C60224A234B1A600222224B1A60204B1A680823FF331A42F9D01D4B1B685B0714D474
:4019C0001B4B1B689B0713D4194B1B68DB0705D51022134B1A70012001210BE01022104B1A7080204000012104E00020002101E0022000210822FF320D4B1A6000290DD0F5
:401A00000D4A13685B005B0813601368802109060B43136002E0042000E0082070BDC046B8020020640024404002244017030000000F244068002440000024401D4B1B7876
:401A40009B0634D51C4B1B689B0601D5182200E010221A4B1A601A4B1A681223FF331A42F9D0174B1B68DB0606D4154B1B68DB0705D50120012105E00020002102E0802093
:401A8000400001211222FF320D4B1A60023AFF3A084B1A7000290BD00A4A13685B005B0813601368802109060B43136000E004207047C046B802002064002440680024401C
:401AC000000F244000002440214B1B789B063CD5204B1860204B1A680823FF331A42F9D01D4B1B685B0705D56022194B1A700020002119E0184B1B689B0705D56022144BF8
:401B00001A70022000210FE0134B1B68DB0705D510220F4B1A700120012105E010220C4B1A708020400001210822FF320A4B1A6000290BD0094A13685B005B081360136851
:401B4000802109060B43136000E004207047C046B802002040022440000F24400000244010B50820FFF7FCFB074B1C88A2B21400064B1B789B0602D504231A4394B2082056
:401B8000FFF7E4FB200010BDC8020020B8020020054B1B682022134000D0082301221343024A13607047C0466400244068002440F0B583B001900C0017001D00002917D0FA
:401BC000284B1B78102B08D10820FFF7C9FB264B1B68DB070ED508260FE0224B1B78602B0AD1224A138808218B431380002604E0042602E0002600E00426002E2BD1282262
:401C0000184B1A7000231A4A13601A4A13601A4B1F601A4B1C60EAB2194B1A70019B5C00FF231C40114A138802218B431380154A154B1A604023154A1360154A1360EB0775
:401C400004D5FFF7A5FF134B1C6004E0114B1C600222114B1A600820FFF778FB300003B0F0BDC046B802002064002440C8020020BC020020C0020020C4020020DC0200200A
:401C8000D002002017030000000F2440800F2440880F24404002244068002440F0B583B001900C0017001D00002917D02D4B1B78102B08D10820FFF753FB2B4B1B68DB0726
:401CC0000ED508260FE0274B1B78602B0AD1274A138808218B431380002604E0042602E0002600E00426002E35D129221D4B1A7000221F4B1A601F4A17601F4B1C60EBB2C3
:401D00001E490B70019B5C00FF231C400120044316490B8883430B8019491A4B19601368072B03D80422184B1A6008E0174A1368802149000B4313600822134B1A60EB0772
:401D400004D5FFF725FF124B1C6004E0104B1C600222104B1A600820FFF7F8FA300003B0F0BDC046B802002064002440C8020020D8020020D4020020CC020020D0020020E1
:401D800017030000000F2440C80F244060002440400224406800244010B503211020FFF70DFB3E491020FFF7F7FA07223C4B1A603C4B1B68002B01DA3B4900E03B493C4AC8
:401DC00013680B4313603B4A3B4B1A603B4A3C4B1A6000233B4A13603B4A3C490A603C490A603C4A13603C4A136001333B4A13603B4908683B4A024013430B6000224AE038
:401E0000394891000C58DC239B0123408018007B03433648844661440B60E30707D52D480168012393401B041B0C0B43036093002D495B589B0707D52748016801239340E2
:401E40001B041B0C0B4303609300274959588B0502D58020400001E080204001CB0506D44108494209B25300214C195303E0530000241F495C521F4B43438021C9008C46AD
:401E80006344D9174905490DCB18DB121BB29000194943500132022AB2D910BD1120000020003A4080033A40402E1013402E001300003A40FC00008004003A400000FF07BA
:401EC00018003A401C003A400200020010003A4014003A4028023A4038023A4018023A4030003A40FFFFFFDF18F4000080003A40EC02002010270000E002002010B5094BC6
:401F00001B68002B0CDB084B1B68002BFBDB054A1368802109060B4313600A20FFF744FB10BDC04600003A4008023A4010B5064B1B78002B04D1FFF72FFF0122024B1A7003
:401F4000FFF7DCFF10BDC04620020020034A1368802149020B4313607047C04604003A40020083070CD0074B1B680120184001D19307F8D4002804D00122024B1A6000E017
:401F80000020704710023A4010B50400022802D90020FFF7EFF9022C07D8A400044B9C46644420680004000C00E0002000B210BD80013A4070B504000D00022802D90020FB
:401FC000FFF7D8F963000F4A995A09B2691A09B20D484843002906DDA3000C4A9A58D30F9A18531006E0A300084A9A58D30F9A18521053421818A400044BE15800F0B6FA50
:4020000000B270BDEC02002010270000E0020020014B1A681A60704710023A40034B1868C0B27F2290431860C009704710000440014B18647047C0460000002010B5040081
:40204000FFF753FB044A1368C0218B43A4011C431460FFF74EFB10BD00E400E00122014B1A60704700E100E00122014B1A60704780E100E010B50400FFF7F6FF2000FFF750
:40208000D7FF0320FFF7DAFFFFF7E8FF10BDC04670B50400FFF729FB0500102C05D8104A136803218B43136016E0202C07D80C490B6803229343023A13430B600CE0302CE4
:4020C00007D807490B6803229343013A13430B6002E00020FFF74EF92800FFF70AFB70BD3000104010B5B94B1B68002B00D09847B74B1B68DB0702D50022B64B1A60B64B36
:402100001B789B0628D5B54B1B68DB0507D5B44A1188C0239B000B431380012300E00023AE4A1268D20706D5AD4A118890239B000B4313800123002B0FD0A74A1278D207AB
:4021400001D5012200E00222A549088802430A800021A14A117000E000239F4A1278920600D417E19D4A1268D20611D510229D4B1A60994B1B78DB0701D5012300E00223A3
:40218000974A11880B4313801022934B1A701BE1914A1278120720D5904A126892070AD50222904B1A608E4A118888239B000B431380012311E0884A1278D20703D5252176
:4021C000854A117009E02421834A1170864A1268002A02D01439854A11607F4A1278520700D4AEE07C4A1278D20749D5804A1268120727D57F4A12687F4909681F240C4087
:402200007E4909686418141B082C09D8002C16D17B4A11687B4B0B401360012308340EE008240CE0754A116877480068411877480068C0B20870116801311160013C002C1D
:40224000F0D119E06A4A1268520715D56B4A11686D48006841186D480068C0B208701168013111601168634A1268914203D20421674A116000E001236649674A116060E0C8
:40228000564A1268920726D50222564B1A6063490B681D321A40096880231B020B4000D001239B185E4A1168CB1A136012685D4B1A604B4A118884239B000B4313805A4B3B
:4022C0001A68802149020A431A601968574A0A401A60012335E0564A1268D2061ED427E04F4A1168404A126891421DD23E4A1268013A4B4909688A4204D140224D490A6082
:402300003A490A60464A11684B48006841180978C9B24A4801601168013111603F4A12681F210A40082ADBD11021424A116008E03F4A1268520604D5394B1A68394B1A608F
:402340000123002B40D02E4A11682E4B0B40136000233B4A1360254A13603A4B1B789B070ED51D4B1B78DB0701D5092300E00A231B4A11880B4313806022174B1A7023E000
:40238000314B1B689B0601D5182200E01022204B1A6019E0104B1B78DB0615D42B4A13685B005B08136010210B4B1970144B18682749014019601868264901401960136867
:4023C000802109060B43136010BDC0461C0200208C0E2440880E2440B80200200C0F2440C8020020000F2440C4020020880F2440CC0F2440D402002008032440D80200202E
:4024000060002440FFFEFFFFCC0200204003244068002440ED0F0000C00F244008022440BC020020C002002004022440FFFFFEFF8C0F2440800F2440DC0200204002244024
:40244000C80F2440D00200206400244000002440FF5FFFFFFFFCFFFF002243088B4274D303098B425FD3030A8B4244D3030B8B4228D3030C8B420DD3FF22090212BA030C98
:402480008B4202D31212090265D0030B8B4219D300E0090AC30B8B4201D3CB03C01A5241830B8B4201D38B03C01A5241430B8B4201D34B03C01A5241030B8B4201D30B0321
:4024C000C01A5241C30A8B4201D3CB02C01A5241830A8B4201D38B02C01A5241430A8B4201D34B02C01A5241030A8B4201D30B02C01A5241CDD2C3098B4201D3CB01C01A1D
:40250000524183098B4201D38B01C01A524143098B4201D34B01C01A524103098B4201D30B01C01A5241C3088B4201D3CB00C01A524183088B4201D38B00C01A5241430803
:402540008B4201D34B00C01A5241411A00D20146524110467047FFE701B5002000F0F0F802BDC0460029F7D076E7704703460B437FD4002243088B4274D303098B425FD31B
:40258000030A8B4244D3030B8B4228D3030C8B420DD3FF22090212BA030C8B4202D31212090265D0030B8B4219D300E0090AC30B8B4201D3CB03C01A5241830B8B4201D3F8
:4025C0008B03C01A5241430B8B4201D34B03C01A5241030B8B4201D30B03C01A5241C30A8B4201D3CB02C01A5241830A8B4201D38B02C01A5241430A8B4201D34B02C01A27
:402600005241030A8B4201D30B02C01A5241CDD2C3098B4201D3CB01C01A524183098B4201D38B01C01A524143098B4201D34B01C01A524103098B4201D30B01C01A5241A8
:40264000C3088B4201D3CB00C01A524183088B4201D38B00C01A524143088B4201D34B00C01A5241411A00D201465241104670475DE0CA0F00D04942031000D3404253406E
:4026800000229C4603098B422DD3030A8B4212D3FC22890112BA030A8B420CD3890192118B4208D3890192118B4204D389013AD0921100E08909C3098B4201D3CB01C01AEF
:4026C000524183098B4201D38B01C01A524143098B4201D34B01C01A524103098B4201D30B01C01A5241C3088B4201D3CB00C01A524183088B4201D38B00C01A5241D9D2E2
:4027000043088B4201D34B00C01A5241411A00D20146634652415B10104601D34042002B00D54942704763465B1000D3404201B5002000F005F802BD0029F8D016E770475C
:402740007047C0468446101C62468C46191C634600E0C0461FB500F061FF002801D40021C8421FBD10B500F0B5FE4042013010BD10B500F053FF002801DB002010BD01203F
:4027800010BDC04610B500F049FF002801DD002010BD012010BDC04610B500F0DBFE002801DC002010BD012010BDC04610B500F0D1FE002801DA002010BD012010BDC04686
:4027C00070B5002830D0C317C5185D40C40F280001F06EF89E231B1A962B0DDC9622D21A95406A02520AD8B25202C005520AE40702432243100070BD992B19DC9922D21AD4
:402800009540124A2A40690704D00F210D40042D00D00432510103D50C4B1A409F231B1A9201520AD8B2DFE7002400200022DBE705222E00121AB921D6402A00C91A8A4084
:40284000551EAA4135001543DBE7C046FFFFFFFBF8B556465F464D464446F0B40F00FD0FAA4609037C002E005F00450F490A7F0D2943C5001803BC46400A570F640DDB0F52
:402880003843D2009A4500D1AAE06646A61B002E00DCFFE06346002B39D10300134300D0D9E06B0709D00F232B40042B05D02B1DAB42AD416D4249191D000B0200D482E0FB
:4028C000CA4B01349C4200D1FEE00A005646C84BED081A405007640552020543120B640D002112030B0D1B056405120B1A436308C04CF60714401C43640064083443280028
:4029000021003CBC90469946A246AB46F8BDB74B9C42C6D080231B041843382E00DDEBE01F2E00DD1EE120239B1B9C4603006746BB40984613004746F3403B436746BA4015
:40294000571EBA4113430200F240EB1A9D42B6411D008A1A7642911B0B0231D54A02560A002E00D1B4E0300000F0A2FF0300083B1F2B00DDB5E020222900D21AD1409E4002
:402980000A009D4032439C4200DDB1E01C1B631C1F2B00DDD5E0202114002800C91A8C40D8408D400443DA40681E854111002543002476E74146314300D134E23100454687
:4029C0006B0700D06FE756464807ED08C9080543864B9C4235D00A036405120B640D7FE76346E31A9B46002B00DC8BE06746002F3CD07E4FBC4200D153E780273F0438430C
:402A00005B46382B00DCF7E00243501E82410020D2B253194218AB4289411D00494289180B02CDD5714B01349C4200D13DE101206F4A6B080A4028401843D50705435108BB
:402A40002FE72B000B4300D1CBE180231B030B431A03120B44E7013E002E6DD1AE1AB5429B41091A5B42C91A350075E70700174300D116E701235B429C46E3445B46002B97
:402A800000D0E0E0AA18AA429B4109185B4259181500C5E7002E75D1661C7605760D012E00DCF3E0AE1AB0464545BF410E1A7F42F61B370200D48FE0551BAA42B641411ACE
:402AC00076428E1B9A464BE756460022002507E7280000F0EDFE20300300083B1F2B00DC49E72A002838824000259C4200DC4DE73F49E41A1140D4E60243501E8241D3B2B8
:402B0000002222E7002B00D0F3E0631C9C465B055B0D012B00DC9FE0344B9C4500D1C3E0AA180918AA42804140424118CD075208154349086446B4E62C4B9C4200D0ECE69B
:402B4000AFE611001F3CE1400C00202B00D17FE04021CB1A9A4015436A1E95410021254300242DE733000700203BDF403B00202E70D04027BE1BB0400243501E824113439C
:402B80000022E2E6002C4FD0184CA44500D1ABE08024240476422143382E00DDDFE01F2E00DD43E12027BC1BA1460C004F46BC40A0462C004746F4403C434F46BD406F1EEC
:402BC000BD41F1402C43151BAA429241411A5242891A64469A46BFE641464546314300D0BEE6002600240025F2E6C046FF070000FFFF7FFFFFFF0F801F2B59DC2027FF1A52
:402C0000BC46070063469F405B46B9461700DF40B8464F4643461F4363469A40531E9A415B463A43D840F4E60C002C435CD0F643002E55D1551BAA42A441411A6442091B36
:402C40009A46644688E6964FBC4200D0D8E628E6002280E700208FE70B002B43002C00D0C2E0002B00D101E10300134300D118E6AB18AB42B6410918764271180A0200D4B8
:402C800009E1884A1D00114064460AE6002C5BD10E002E4300D08AE00100114300D1C2E0010015009A46FCE56446002100258FE620235B429C46DC4463460700DF405B46E9
:402CC000BC46202B00D1ACE040235F46DB1B98400243501E8241634613431A00002098E66F4CA44500D057E70100150064469A46D7E5002C39D10C002C436ED0DB43002BE1
:402D00001AD0674CA44568D0382B00DDA4E01F2B00DDAEE020240F00E41AA740B9462F00DF40B846A3464F46444627435C46A5406C1EA541D9403D43AD1895429B4109183E
:402D40005B42591864466BE60C002C4315D1010011437BD0010015009A46514CA1E50D43691E8D410021ECB22DE74D4CA44534D0802424045B422143C6E7040014434ED03F
:402D8000ED084C072C438025C9082D03294208D0C6082E4205D1D208410711430C009A463100620FC900E50011433D4C79E50600164300D175E5AE1AB0464545BF410E1A78
:402DC0007F42F61B370200D4F4E5551BAA42B641411A7642891B9A4663E50100150064465FE5002200257BE5002B3BD00300134315D0ED084B072B438025C9082D03294204
:402E000007D0C4082C4204D141070B002100D2081343C9005A0F1143DD00214C41E5204C3FE5002054E700260025D1E534000F00203CE7403C00202E2BD04027BE1BB140AA
:402E40000D43691E8D4100212C43BCE6802100260903134C0025BBE50D43691E8D410021EDB269E7010015000D4C1AE50100150017E51C000F00203CE7403C00202B0CD03E
:402E80004027FB1A99400D43691E8D410021254352E70021D4E71D0092E50021F3E7C046FF070000FFFF7FFFF0B556464D4644465F46F0B41D000E034C00CB0F87B007002A
:402EC00092468146360B640D98466AD06D4B9C4235D08022430F12041343F6001E43C3009946694B00279C460023644402932B0368001B0BED0F51469B46400D009500D175
:402F000078E0604B98426CD05B46DA004B0F802109040B4313439B465346D9005A4B9C46002360444246201A6A40924601901F430F2F00D9B0E05548BF00C0598746374316
:402F400000D088E0002399460233082700260293CDE74346B34649460093029B009A9246022B00D0BFE1002153460122002689461A40444B002136030C0D2405360B2643F3
:402F8000434C1B0526401E437600D207760816434846310007B03CBC90469946A246AB46F0BD330003434FD0002E00D1BCE1300000F07EFC03000B3B1C2B00DDADE11D22C4
:402FC0000100D31A08393A008F408E40DA40B9461643304B00279C46002360444442029385E753465A4613432CD1002300219B46023397E70B4320D05B46002B00D19EE1C9
:40300000584600F055FC03000B3B1C2B00DD8FE102005946083A91408B461D21CB1A5146D9400B0059460B4351469B469140194B9C4660444042002374E7002300219B462C
:4030400001336FE703236DE70023994601330427002602934BE703230C27029347E70122D51A382D00DCB0E153461A4000210023002689467EE7002380269946002236036A
:40308000004B77E7FF07000001FCFFFF28F40000FFFF0F80F30300005E4500D972E100D16DE1019B4D46013B01930023340002935B461E020B0E1E430B020393330C9946F2
:4030C00033041B0C494620000093FFF7C5F9009B370043430600494620009846FFF742FA2C0C09040C43A04509D9E419731EA74200D95CE1A04500D859E1023EE4194346BA
:40310000E41A49462000FFF7A7F90300009A80465343494620009B46FFF724FA2A040904120C0A4393450DD94346D219013B974200D93AE1934500D837E102235B429C4662
:40314000D219E0445B46D21A4346360433439B460399180C0B0C1D00059309045B46090C0C001B041B0C4443049159436B4368431B190D0CEB189C4203D980246402A446E9
:4031800060441C0C09041B04090C20185D18824200D2DEE000D1D7E0161A029B9C465D1BAC459B415B42F61AB74200D106E149463000FFF751F9009B040043434946300044
:4031C0009846FFF7CFF92E0C09040E43B04509D9F619631EB74200D9F3E0B04500D8F0E0023CF6194346F31A494618000293FFF733F9009B06004343494602989846FFF78D
:40320000B1F92D0409042D0C0D43A84509D9ED19731EAF4200D9D6E0A84500D8D3E0023EED192404210043463143049E059A3000ED1A0B040C0C1B0C5843664353435443FC
:403240009A19030C9B189E4203D980225202944664441A0C00041B04000C14191B18A54250D34DD001231943964A019B94466344002B00DCF3E64A0709D00F220A40042A99
:4032800005D00A1D8A42894149428B4411005A46D20108D55A468C4B1A4093468022D2009446019B6344894A934200DD5BE65A46C908500708435602514601225B05814674
:4032C000360B5B0D0A4055E680231B031E4211D05A461A420ED15E461E433603360B2A0089467B4B46E6032B00D1E1E0012BBBD11A40BBE61E433603360B4246744B39E6A5
:40330000002BB1D07D194A1EAF4252D91100A542A8D1039A9A42A5D1A6E703003E00283B9E400023994654E600F0C2FA203041E603005246283B9A400021934677E6504634
:4033400000F0B6FA20305EE6029B0026AB4200D323E7039E0299B44661448846B045B6415B467642F619B218013B0291974213D290424FD800D18EE0161A9B460DE789452D
:4033800000D28EE674084B46F60735005B081D434B46DB0702938BE69742EDD10399029CA142E5D93E1A9B46F7E69846CAE61E00A5E6AC423ED874D0110053E7012149424D
:4033C00052E71C000EE71E002BE71F2D3CDC20230A0058465B1B9840EA4099400243481E81415E461143EE404B0709D00F230B40042B05D00B00191D99429B415B42F618D1
:4034000033023CD55346012200211A40002601238946AFE502235B429C46039CE344A446029B63449846A045B6417642F6190293B218B1E603988A1E41008142B64176425D
:40344000F619AD19039161E71F225242D31A5A46DA401300202D29D040225846551BA8400143481E814107200B4318400026002809D00F2200261A401900042ABBD10B007F
:4034800070077602360BDB0803439946012253461A4000236EE502998D42BBD89B4600267BE603989842C5D3110032E70020D7E780265B4636031E433603360B009A89460A
:4034C000034B57E5FF030000FFFFFFFEFE070000FF070000F0B55F4656464D464446F0B41F035C00DB0F9A46194B0E034D00C90F8046360B6D0D8B4691463F0B640D9D42EE
:4035000019D0134B9C421BD00123A54206D018003CBC90469946A246AB46F0BDBE42F6D1C845F4D1D34510D0002DF0D1304303005A1E9341EBE7310001230143E7D1E0E724
:403540003A430123002AE2D1DEE70023DFE7C046FF070000F0B55F46444656464D46F0B41F033C0B2C4F0E034D00A3465C008446360B6D0DC90F9046640DDB0FBD422BD05D
:40358000254FBC422ED0002D0ED130430700814678427841002C17D15F463A4314D14B460020002B0AD006E0002C02D15846024301D099421AD00123484218433CBC9046D5
:4035C0009946A246AB46F0BD0028F2D058425841012240421043F1E737000743D0D002204042EBE75F461743CDD0F8E7A542E2DC05DB5E45DFD808D000205E45DED24842B3
:403600004841012340421843D8E7C445D3D80020C445F4D3D2E7C046FF070000F0B55F464D4644465646F0B41C03240BA4462F4C0F034D005E00C90F80463F0B6D0D8B468E
:403640009146760DDB0FA54220D0284CA64222D0002D12D1384344424441002E20D0002C0DD05C42634101245B421C4320003CBC90469946A246AB46F0BD002E17D05B45B9
:4036800019D05B465C4201231C43EFE7390002240143EBD1D9E7614602241143E6D1D7E761460A43DBD100240028DFD0E9E761460A43E4D1E5E7B54203DD01225C42144305
:4036C000D4E7B542CDDB6745DBD809D000246745CCD259464C426141012449420C43C5E7C845CED80024C845F3D3BFE7FF0700004200120E511C4302C9B270B55D0AC40F0C
:40370000012915DDE02189008C466D071B0B6244002128000D0D2D052B431C4D52052B40520813435B00E4075B082343190070BD002A15D1002D1FD0280000F0B9F80A2877
:403740001DDC0B232A001B1ADA4013000200153295400F4A1B03121A52051B0B520DD7E7002D06D080221B0B120313436D07094ACEE7084A0023CBE700220023C8E703006B
:403780000B3B9D402B000025E3E7C046FFFF0F8089030000FF0700004B0070B55E0D0C03751C640A420F6D052243C90FC4006D0D012D2ADD3B4BF318FE2B1ADC002B42DD51
:4037C0008001451EA841D2001043620F0243500704D00F201040042800D004328020C004104021D00133FF2B03D09201520ADBB201E0FF2300225202520ADB0513435B008D
:40380000C9075B080B43180070BD002E07D01443EFD08020D20080040243FF23D7E722430023002A03D00522D208FF2B03D05202520ADBB2DFE7002A32D08020C003024332
:403840005202520AD7E71800173014DB8020000402431E20C01A1F280FDC2500124BF3189D406E1EB5419A402B0013432200C2401A430023ABE70023D5E702256D42EB1A22
:403880001500DD40202809D0084BF3189A401443621E9441220000232A4398E70022F6E70022A8E780FCFFFF82FCFFFFA2FCFFFF1C2101231B04984201D3000C10391B0AB6
:4038C000984201D3000A08391B09984201D30009043902A2105C40187047C04604030202010101010000000000000000014B18687047C0465C0100200E4B70B500251E00BC
:403900000D4CE41AA410A54204D0AB00F35898470135F8E70BF0AAFE084B00251E00084CE41AA410A54204D0AB00F35898470135F8E770BD78F6000078F6000078F600007C
:4039400080F60000002310B59A4203D0CC5CC4540133F9E710BD03008218934202D019700133FAE77047F0B58BB014001D1E129906DA802424061B191D0014002D2300E063
:4039800000230B702023149E03229E43462E07D03300453B59424B411099013ACB18109309AB049308AB0393139B00920293109B220001932B0000F0FDFC0700472E02D1B2
:4039C000119BDB072DD5109BFB180793462E14D13B78302B0CD10022002320002900FEF7C1FE002804D10123109A9B1A139A1360139B079A1B68D3180793002200232000FD
:403A00002900FEF7AFFE3022002802D0079B099307E0099B0799994203D9591C09911A70F7E73800099B159ADB1B13600BB0F0BDF7B52B2307000C000270861C002901DA57
:403A40002D234C427B70092C1CDD6B46DD1D20000A21FEF771FE013D3031297020000A21FEF784FD04000928F1DC013D30342C706B4607333000AB4209D92B780135337056
:403A80000136F5E73023E4183370B01C7470C01BFEBD0000F0B595B00C000A920B931A9D099001F04DFA036818000D9300F0F4FB0023129323680E900C930C99277E2B6894
:403AC0000722C90501D59B1800E0073393431A0008322A601A685B68A264E3640122E56CA66C6B005B080F935242C04B30000F9902F076FD002819D10122BC4B5242300014
:403B00000F99FEF73FFE002810D10022002330002900FEF72DFE002803D023002D2243331A70B34D472F0ED8B24D0CE032002B003000290002F054FD002800D19AE1AE4DC8
:403B4000472F00D8AD4D03230C9A236101339A432260002642E0672F00D193E1472F00D190E10C9A0021134312AA059211AA0392232223600691019308A963685218029212
:403B8000009332002B0004970998FFF7ECFE20233A0005009A43472A00D18EE11199652F00D996E1200001393A0050301191FFF73FFF129A060083182361012A00DD85E132
:403BC0002268D20700D581E1232308AA9B181B78002B03D023002D2243331A700B9B13AA009321000A9B099800F0A4F9431C02D1012040429BE12268530501D4236964E0BB
:403C0000652F00D8CCE0A06CE16C00220023FEF7A9FD00282CD00123794A0A9909980B9DA847431CE4D0119B129A934208DB2368DB0705D4236800259B0700D50FE113E1D9
:403C40000B9D0E9B0D9A0A990998A8470025431CCED0129B013B9D42ECDA220001231A320A9909980B9EB047431CC1D00135F0E7119B002B2BDC0123614A0A9909980B9E5C
:403C8000B047431CB4D0119B002B05D1129B002B02D12368DB07CDD50B9E0E9B0D9A0A990998B0470026431CA2D0119B5B429E420ADA220001231A320A9909980B9FB8470C
:403CC000431C95D00136F0E7129B2A00ACE0A36D129E9E4200DD1E00002E05DC00230C93F343DB170F9315E033002A000A9909980B9FB847431CF1D17AE7220001231A3206
:403D00000A9909980B9FB847431C00D170E70C9B01330C930F9BA26D0C993340D31A9942EBDBAE18119B129A93420DDB2368DB070AD4129B119AED18AD1B9B1A9D4200DD7A
:403D40001D00002D09DC11E00E9B0D9A0A9909980B9FB847431CECD14AE72B0032000A9909980B9EB047431C00D141E7EF43FB1700260C930AE0220001231A320A99099837
:403D80000B9FB847431C00D132E70136119A129B0C999B1A2A000A409B1A9E42EBDB49E7129B012B02DC01231A4245D001232A000A9909980B9FB847431C00D118E70E9BCA
:403DC0000D9A0A9909980B9FB847431C00D10FE7A06CE16C00220023FEF7C4FC002801D000251AE0129B6A1C013B26E0FFFFEF7F6EF400006AF4000076F4000072F400002D
:403E00007AF40000220001231A320A9909980B9FB847431C00D1EBE60135129B013B9D42F0DB2200330050320A9909980B9DA847431C00D0FEE6DBE62A000A9909980B9D2F
:403E4000A847431CEDD1D3E62200012319320A9909980B9EB047431C00D1C9E60135E368139A9B1A9D42EFDB139BE06898425EDA18005CE080236268DB00511C00D06AE66C
:403E8000073202E0002A02D10122626069E60C9908A80B430021069112A9059111A90391232109182360019300922B000497029132000998FFF757FD0500119BDA1C02DBB4
:403EC000626893421CDD023FFFB267E6013323617AE6662F15D16368002909DD2161002B02D12268D2071ED50133591821611AE0002B03D101222168114213D09A1C11E0FF
:403F00006727119B129A934206DB22682361D20709D50133236106E00121002B01DC4918C91A8A182261119B0026A3654CE615B0F0BDC046F7B5170001938A680B6900901E
:403F40000C00934200DA130022003B6043321278002A01D001333B6023689B0602D53B6802333B60062523681D401ED0230043331B785A1E9341226892061CD53020E118A2
:403F80004331087021005A1C45310978A2184332023311700FE022000123193201990098089EB047431C0ED00135E3683A689B1A9D42F0DBDAE72200019943320098089D65
:403FC000A847431C02D10120404220E006232068E1683A6803400025042B03D18D1AEB43DB171D40A3682269934201DD9B1AED180027BD420AD0220001231A32019900980B
:40400000089EB047431CDED00137F2E70020FEBDF0B58BB006920A0043320793059004920A7E0C00109B6E2A00D1ABE011D8632A22D009D8002A00D1B5E0582A00D0C5E02B
:4040400045310A70814A4FE0642A1DD0692A1BD0BCE0732A00D1AAE009D86F2A29D0702A00D0B3E0202209680A43226037E0752A1FD0782A33D0A9E00E001A684236111DCE
:40408000196013683370A4E021681A68080606D4490604D5111D19600023D55E02E0111D19601568002D3BDA2D23049A6D42137036E021681A68080606D4490604D51568B7
:4040C000111D1960ADB202E0111D196015685F4B227E039308276F2A1DD00A271BE022007821453211705A4A19680392081D226818600D68100602D4500600D5ADB2D3079A
:4041000002D520231A4322601027002D03D1202322689A4322602300002243331A7002E00A274A4B03936368A360002B09DB0422216891432160002D05D1049E002B11D00D
:404140007BE0002D79D0049E28003900FEF70AFA039B013E5B5C280033703900FEF77CF9051EF1D1082F09D12368DB0706D563682269934202DC3023013E3370049B9B1B9F
:4041800023612BE009681A68080607D4490605D5111D19601368A28A1A8004E0111D1960136862691A600023049E236116E01A68111D1960166800216268300000F0CEFE7B
:4041C000002801D0801B6060636803E0260042363270012323610023049A1370079B09AA00932100069B0598FFF7A4FE431C02D10120404227E02369320006990598079D38
:40420000A847431CF4D0236800259B070FD4099BE068984217DA180015E022000123193206990598079EB047431CE1D00135E368099A9B1A9D42F0DBE9E72600039B42366B
:404240001B7833708EE70BB0F0BDC0467CF400008DF400000EB410B59DB002A9029008610B48822488604861012040421FABC881084804CBA400006801938C8101F080FA43
:404280000023029A13701DB010BC08BC03B01847FFFFFF7F5C0100200023C25C0133002AFBD1581E7047F0B503690C6989B00700059100269C4279DC0B00013C1433A500D3
:4042C00003935B1904930300143302935D19049B28681B68591C0193FEF7BEF80190B04233D0039B02989C460696634604CB9C46019B91B25943120C5A4389190B0CD318F2
:404300000793069A1E0C038889B29B1802685B1A110C6A46928B8A1A1914521811149BB21204134308C0049B06916345DDD22B68002B0AD1029B043DAB4201D33C6104E0B0
:404340002B68002BFAD1013CF4E70599380001F021F8002829DB0020019B02990133039A019340CA0B881818B3B2C31A0868360C000C801B1D14451928149BB22D042B43B5
:4043800008C1049B9342ECD2029AA300D3181A68002A0AD1029A043B9A4201D33C6104E01A68002AFAD1013CF4E7019E300009B0F0BD0000F0B516001F00446A9DB0049018
:4043C000259D06960797002C08D1102000F0BCFD049B5862446084600460C460049B5B6A196800290BD05A68012393404A608B60049800F0F6FD0022049B5B6A1A60079B22
:40440000002B05DA01232B607B005B08079301E000232B60079CC84B220019931A409A4219D1C64B249A1360069AC54B002A02D1240300D1C34B269A1800002A01D100F05F
:404440007DFDD978DA1C002900D00532269918000A6000F073FD069E079F0022002330003900FEF77FF9051E0ED00123249A1360B54B269A1800002A01D100F05FFDB34AD2
:4044800026990A6000F05AFD1AAB01931BAB009332003B00049801F003F8630005905B0D09D03A03AA4C120B1443AA4A300021009E1817951AE01A9B1B9A9E18A64BF31848
:4044C000202B08DDA54A0698B218D0404022D31A9C40204303E020220698D31A984002F017F901239E4C013E0919179300229D4B01F022FD9C4A9D4B01F0A4FA9C4A9D4BAF
:40450000FEF7A6F9040030000D0002F0BFF89A4A9A4B01F097FA02000B0020002900FEF797F904000D0002F07BF800220390002320002900FEF71CF900280DD0039802F0A4
:40454000A5F802000B0020002900FEF70BF943424341039AD31A039301231693039B162B11D88749DB00C91808684968069A079BFEF712F9002805D0039B013B0393002312
:40458000169300E016901A9B9E1B00230B93013E0C9604D50C9B5B420B9300230C93039B002B08DB039A0C9B944663440C9300231192089307E00B9B039A9B1A0B935342BC
:4045C000089300231193229B0125092B25D8052B02DD0025043B2293229B981E032824D801F026FA060E0204012302E0012308E000231093239B002B20DD1F000A9321E0DD
:404600000023239A1093039B9F187B1C0A930123FA18002A16DD130014E0012700237F42229310950A97123305E0012701237F4210930A9711330022239203E001273B0031
:404640000A972397049A546A00226260043211001431994204D86168520001316160F6E76168049800F085FC049B20605B6A1B680D930A9B0E2B00D981E1002D00D17EE11E
:40468000069B079C14931594039B002B31DD0F223B491340DB00CB185C681B680E930F94039B02241D11EB060AD514981599354B15401A6A5B6AFEF7F7FB069007910134BA
:4046C000304E002D0ED001231D4208D00E980F99E4183268736801F0B5F90E900F916D100836EEE70E9A0F9B06980799FEF7DCFB4CE0039B02245D42002D49D0149815991F
:404700000F231F4A2B40DB00D3181A685B6801F099F90023069007911A4E2D11002D33D00122154205D0A4183268736801F08AF901236D100836F1E70000F07F0F2700006E
:40474000A7F400009EF400007AF400007BF400000000F03F01FCFFFF3204000012040000000010FE0000F83F61436F63A787D23FB3C8608B288AC63FFB799F501344D33FD6
:4047800018F50000F0F50000002B01D006900791169B002B1DD0069D079E0022C74B28003100FDF7E5FF002813D00A9B002B10D0002F00DCDFE0039B3100013B0E93002214
:4047C000BF4B280001F03EF90134069007913E0002E0039B0A9E0E93200001F057FF069A079B01F02FF90022B64BFEF731F8B64A12901391129C139D9446139B6344189374
:404800001D00002E1CD1069807990022AF4B01F093FB2200189B06900791FDF7BDFF002800D054E2AA481399844661440B00069807992200FDF79CFF002800D03DE29AE0EE
:40484000109A731EA349DB00002A49D0CB181A685B680020A049FEF727FB2B00220001F06BFB129013910D9D0698079901F0D8FE040001F00BFF02000B000698079901F0D7
:404880005BFB01356B1E30341C70129A139B06900791FDF76DFF002800D02EE3069A079B0020864901F048FB129A139BFDF760FF002800D0C7E00D9BEB1AB3425BDA1298D0
:4048C000139900227E4B01F0BDF8002212901391069807997A4B01F0B5F806900791C3E7C9182200086849682B0001F0ABF80D9C12901391A5190698079901F091FE060046
:4049000001F0C4FE02000B000698079901F014FB303626700134069007910022A54222D16D4B12981399FDF793FF02000B0006980799FDF731FF002800D084E0129A139B65
:404940000020654901F0F8FA02000B0006980799FDF70EFF00280ED06B1E1A78302A00D0CBE21D00F8E706980799554B01F06AF806900791BFE7149B159C069307941B9BF7
:40498000002B00DA81E0039A0E2A00DD7DE0D300504AD3185C681B6808930994239B002B15DA0A9B002B12DC00D088E1089809990022464B01F046F8069A079BFDF7F6FE8E
:4049C0000A9B08931E00002800D07BE182E10D9D069E079F089A099B30003900FEF764FA01F01EFE040001F051FE089A099B01F029F802000B003000390001F09DFA2200E3
:404A000001356B1E30321A700D9B0A9AEB1A9A422ED102000B00FDF71BFF06000F0002000B0008980999FDF7A3FE00280FD10898099932003B00FDF795FE002800D15EE214
:404A4000E30704D45BE20E9B039300E01D006B1E1A78392A08D10D9A9A42F7D1039A0D990132039230220A701A7801321A7046E20022134B00F0E6FF0022002306000F005C
:404A8000FDF770FE0028A5D039E2109A002A44D0229A012A0BDC179A002A02D00F4A9B1802E036231A9A9B1A089D0B9C29E00A9B5D1E089BAB4213DB5D1B18E00000F03F37
:404AC0000000244000001C400000C0FC000014400000C07C18F500000000E03F33040000089B0895EA1A0025119B9B1811930A9B002B04DA0B9B0A9A9C1A002301E00B9C82
:404B00000A9B0B9A0121D2180B920C9A0498D3180C9300F006FB060002E0089D0B9C109E002C0ED00C9B002B0BDD0C9A2300944200DD13000B9AE41AD21A0B920C9AD31AD1
:404B40000C93089B002B20DD109B002B17D0002D11D031002A00049800F076FB059A01000600049800F0E6FA05990E90049800F038FA0E9B0593089B5A1B06D000E0089AEB
:404B80000599049800F060FB05900121049800F0C8FA119B0890002B00D1C0E11A000100049800F051FB229B0890012B17DC0025069BAB420ED1079B1B03AB420AD1199B55
:404BC000079A134206D00B9B013501330B930C9B01330C93119B0120002B0DD000E00025089B089A1B690E9303339B00D318586800F04DFA2023181A0C9BC0181F2318403C
:404C000009D001331B1A042B02DD1C23181A03E0042B08D018001C300B9B24181B180B930C9B1B180C930B9B002B05DD1A000599049800F05DFB05900C9B002B05DD1A0087
:404C40000899049800F054FB0890169B002B1DD00899059800F09EFB002817DA039B0A22013B039305990023049800F0D3F9109B0590002B00D159E1310000230A22049830
:404C800000F0C8F90600002F37DC33E00A9B0A9F002B2ADC229B022B27DD002F12D108993B000522049800F0B5F908900100059800F070FB00280DDC04E0089602E0002303
:404CC0001E000893239B0D9DDB4303930AE00E9B089603930D9B0D9A5D1C31231370039B013303930A960026F3E0109B002B04D10D9DB5E0229B022BCFDC002C05DD3100BA
:404D00002200049800F0F4FA06000A96002D12D07168049800F02DF93100040033690C319A1C92000C30FEF70DFE01222100049800F0DEFA0A900D9B7D1E0B935B190E93CD
:404D400008990598FFF7AFFA310010900400059800F020FB0A9A05000899049800F035FB01230C93C36830340700002B04D10100059800F00FFB0C903900049800F031F957
:404D80000C9B229A134308D1069A0133134204D1392C2AD0002D1CDC1DE0002D06DB229B1D431BD10123069A134217D10C9B002B11DD05990122049800F09AFA08990590F3
:404DC00000F0E8FA002802DC05D1E30703D5392C0BD0109C31340B9B5D1C0FE00B9B5F1C0C9B002B0CDD392C05D10B9B0B9A5D1C3923137057E03D000B9B01341C7068E007
:404E00000B9B0E9A3D001C7093423CD000230A220599049800F0FEF80A9B05909E4208D1310000230A22049800F0F4F806000A900DE0310000230A22049800F0EBF8002381
:404E400006000A220A99049800F0E4F80A900B9776E700230A220599049800F0DBF8059008990598FFF71FFA0D9B3030287001350400EB1ABB42ECDB3D1E00DC01250A968E
:404E800000260D9B5D1905990122049800F030FA0899059000F07EFA002804DC13D1E30701D410E01D006B1E1A78392A08D10D9A9A42F7D1039B013303933123137008E018
:404EC00001321A7005E06B1E1A78302A01D11D00F9E70899049800F084F80A9B002B0ED0002E05D09E4203D03100049800F079F80A99049800F075F801E00E9B0393049839
:404F0000059900F06EF800232B70039B249A01331360269B0D98002B10D01D600EE0229B012B00DC43E6119D012065E6002F00DDDEE6229B022B00DCDAE6AEE61DB0F0BD74
:404F4000004870476001002010B5034B0100186800F054FB10BDC0465C010020C9B28218904204D003788B4202D00130F8E70020704770B5466A04000D00002E07D11020B6
:404F8000FFF7E2FF6062466086600660C660666AF368002B09D0636AAA00DB689B18186800280ED002681A6017E021220421200000F0CAFA636AF060DB68002BEBD10020A0
:404FC0000EE001210E00AE40721D9200200000F0BBFA0028F3D04560866000230361C36070BD70B5456A06000C00002D07D11020FFF7AAFF7062456085600560C560002CA6
:4050000007D0726A6368D2689B00D3181A6822601C6070BDF7B5070008000C000D691E00002101921430019A0388013153439B190668360C56431A0C9446B4446246160C85
:40504000120494469BB2634408C08D42EBDC002E1BD0A3689D4212DB63683800591CFFF788FF2100236901909A1C92000C310C30FEF768FC21003800FFF7B3FF019C2B1DCB
:405080009B00E31801355E6025612000FEBD00220300010C914201D103041032190E01D108321B02190F01D104321B01990F01D102329B001000002B03DB20205B0000D577
:4050C000501C70470722036810B501001A400CD001240020234223D10222134203D0E34020000B601CE09B0818E098B2002801D110221B0CD8B2002801D108321B0A18072F
:4051000001D104321B09980701D102329B08D80704D45B082020002B02D0013210000B6010BD10B50C000121FFF723FF01234461036110BDF0B50B691400126989B00D0036
:40514000934201DA25000C002F692669AA68BB1969680193934200DD0131FFF70AFF0200BB1914329B00D3189C46002113000290634501D202C3FBE71435BF00EB19143439
:40518000B6000593A31903950793079B9C4251D2208800281ED015000026039F08CF069504936B461B8A434319002B88CB1804999B19090C41432E68360C89191E0C8919B1
:4051C0000E0C9BB209040B4308C5059BBB42E5D8069B5E6023681D0C1FD0002110001368039F04913E8801686E43090C7118049E9BB289190E043343036008CF86881B0CDB
:405200006B43090C9B195B18190C0491059906900430B942E6D806994B6004340432B4E704235B429C4463461B68002B05D1019B013B0193019B002BF2DC029B019A180034
:405240001A6109B0F0BD00000323F7B5134005000E001400002B08D02349013B9A00525800233100FFF7D6FE0600A310019338D06C6A002C07D11020FFF766FE68624460CD
:4052800084600460C4606F6ABC68002C10D117492800FFF746FF0023B8600400036007E0019B5B1001931CD02068002810D004000122019B1342F3D0310022002800FFF7C9
:4052C00039FF070031002800FFF78BFE3E00E7E7220021002800FFF72DFF002320600360E5E73000FEBDC046E0F5000071020000F0B50C0017002369551185B0EB1801936D
:40530000013300934968A3680290009A934202DA01315B00F9E70298FFF72BFE00230200060019001432AB4203DA980011500133F9E7EB43DB171D402300AD005519226940
:40534000143392009A1894461F22174014D00132D21B0392002219682800B9400A4304C504CB0399CA409C45F5D84260002A07D0019B0233009303E004CB04C59C45FBD864
:40538000009B0298013B33612100FFF72AFE300005B0F0BD03690A6910B59B1A0400181E12D1930014341431E218C918043A043913680868834204D083429B41012018438A
:4053C00002E09442F2D3002010BDF0B50C0085B00700110020001500FFF7DCFF061E07D101003800FFF7C5FD01234661036155E000230193984204DA23002C001D000123EF
:40540000019361683800FFF7B4FD019B26692F00C3601434B300E318020002932B69002514379B00FB180393143208CC69469C4608CF0432009363468B808B885D19009BBB
:405440009BB2EB1A65460193009B2D0C190C019B691A1D14131F9C466B4649199B880D1409040B4361460B60039BBB42DDD8029913008C420BD202CC8BB25B191D14090C0C
:4054800049190D149BB209040B4308C2EFE7043B1A68002A01D1013EF9E7066105B0F0BDF7B51D000121089F1400FFF762FD2B036D0006001B0B6D0D02D080225203134321
:4054C0000193002C18D068460094FFF7FBFD009C002809D0019B20211A00091A8A40C34022437261019300E07461019CB461631E9C410134346107E001A8FFF7E3FD01246A
:40550000019B346173612030002D06D00B4BED1835232D183D60181A0BE0094BC018094B3860E3189B00F3185869FFF7B0FD6401201A099B18603000FEBDC046CDFBFFFFD2
:40554000CEFBFFFFFFFFFF3F4A4370B51100140000F054F8051E03D022000021FEF7FBF9280070BD70B50500002944D00C1F2368002B00DAE418280000F027FA1E4A136864
:405580001100002B02D16360146031E0A3420DD92268A018834203D118685B688218226063600C6024E0A24203D813005A68002AF9D11E689819A0420BD12168711858185D
:4055C0001960824214D110685268411819605A600EE0A04202D90C232B6009E021686018824203D1106852684118216062605C60280000F0EBF970BD28020020032370B59C
:40560000CD1C9D43083506000C2D01D20C2501E0002D01DBA94202D90C23336048E0300000F0D3F9234B1C681A002100002913D00B685B1B0DD40B2B02D90B60CC181EE03A
:405640008C4202D1636813601AE04B6863600C0016E00C004968E9E7174C2368002B03D1300000F08BF920602900300000F086F9431C18D00323C41C9C43A0420DD1256002
:40568000300000F0A3F9200007220B30231D9043C31A0ED05A42E2500BE0211A300000F06DF9431CEBD10C233000336000F08EF9002070BD2802002024020020F0B58E6866
:4056C00085B007000C00039201939E4243D890238A89DB001A423ED003250969236801985B1A029363695D43EB0F5D19029B6D1001331B18AB4200D91D00530510D52900C5
:405700003800FFF77BFF061E14D0029A2169FEF719F9A289194B134080221343A38112E02A00380000F053F9061E0CD121693800FFF718FF0C23402201203B60A389404233
:405740001343A38117E0029B2661F61826606561019EED1AA560019BB34200D21E0032000399206800F01CF90020A3689B1BA36023689E19266005B0F0BDC0467FFBFFFF27
:40578000F0B59FB0029005938B890F0016001B0610D50B69002B0DD14021FFF72FFF38603861002804D10C23029A01381360D8E040237B61002306AD6B6120336B761033D5
:4057C000AB7634002378002B03D1A31B049312D003E0252BF9D00134F4E7A31B320039000298FFF76BFF431C00D1B4E06A69049B944663446B612378002B00D1ABE001228C
:40580000002352426A6002A95432521801342B60EB60AB601370AB65534E217805223000FFF79CFB002807D00123801B83402A68013413432B60EFE72B68DA0604D55322C5
:40584000202102A8121811701A0704D553222B2102A81218117022782A2A03D0099B00200A210EE0059A111D12680591002A01DB099204E05242EA60022213432B6001346A
:405880000BE02278303A092A04D84B4301349B180120F6E7002800D0099323782E2B1ED163782A2B0AD1059B02341A1D1B680592002B01DA01235B42079310E000230A202F
:4058C0001A0001346B6021783039092904D84243013452180123F6E7002B00D00792234E217803223000FFF739FB002806D04023801B83402A68013413432B602178062214
:405900001B48661C2976FFF729FB002812D0194B002B06D10722059B073393430833059314E005AB00933A00134B29000298FEF7B1F807E005AB00933A000F4B29000298FC
:40594000FEF766FB0390039B013304D06B69039A9B186B6135E7BB890B985B0601D5012040421FB0F0BDC04618F600001EF6000022F60000953A0000BD560000002370B5E5
:40598000064C050008002360FBF740FC431C03D12368002B00D02B6070BDC046F402002010B5884202D98B18984201D3002305E09B1A013A08D3995C8154FAE7934203D069
:4059C000CC5CC4540133F9E710BD70477047F8B506000C001500002904D11100FFF70EFE040018E0002A03D1FFF7BCFD2C0012E000F013F885420ED929003000FFF7FEFD79
:405A0000071E07D021002A00FDF79CFF21003000FFF7A8FD3C002000F8BD0B1F1A68101F002A04DA891804390B68D0180438704702B4714649084900095C49008E4402BC3F
:405A40007047C046F0B55F4656464D464446F0B40D0399464E002B0B87B00700924680469B46760DCC0F002E69D06D4B9E4235D05B468022DD001204430F13432B439B4603
:405A8000C3009846674B00279C460023664401934A4615035000D20F53462D0B400D914600D176E05E4A90426CD080225B0F120413435C4AED0094461D4353460022DB00A3
:405AC000604449463618701C6140029017430F2F00D9AFE05448BF00C759BF465B461F4300D088E000239B469846023308270193CEE74946022A6AD0032A00D109E2012A13
:405B000000D0BBE111400022002300259046CCB200212D030A0D12052D0B1543434A1B0515401D436D00E4076D0825434046290007B03CBC90469946A246AB46F0BD034365
:405B400052D05B46002B00D18AE15846FDF7B0FE03000B3B1C2B00DD7BE11D22D31A3A0001005D46DA4008398D4013008F402B439B46B8462E4B00279C46002360444642C0
:405B8000019385E752462A432CD100250023022297E752462A4321D0002D00D154E12800FDF786FE03000B3B1C2B00DD46E11D21CB1A51460200D9405346083A9540934044
:405BC0000D431B4A944660444042002279E7012400220C40124B0025904699E70025002301226EE703226CE700239B4698460133042701934CE703230C27019348E7002384
:405C00008025984600242D03054B81E75D464346019A6FE75D4643462100019A6AE7C046FF07000001FCFFFF2CF60000FFFF0F80F30300004246120C91461A0C94464246CE
:405C400017044A461B041B0C5A43604690464A4642431000039262461C003F0C7A437C4342440192220C9246019A5244904506D98246802040028046C24450460390100C16
:405C8000049048462404240C1204121905922A0C2D042D0C68432C00824648467C4350438146200C8046574357444744BA4503D9802040028046C144380C3F04B846484461
:405CC0002404240C01900498A044404404905846000C814658460404200C8246070048465F434C464343604660436446834650464443380C8446E4186444A34203D98023DA
:405D00005B029C46E34448463F04230C3F0C2404E419574668436F4384464D46504655434243380C814662444A445B44944503D9802040028446654403983F048346049858
:405D40003F0C8446E344C345804140428246100484460198674484466744A344BC46A345A4419946D44464428742BF41D4458041E144A04699459B417F424042C8440743E9
:405D8000120CBA18A045A4415F423B0064422343D71843467D19DB0D6D021D435B465A02059B1A43531E9A415B46DB0D1A4343465B021343EA0107D501225C08134023430D
:405DC000EA07029E13436D08574AB218002A4BDD580709D00F201840042805D0181D98429B415B42ED180300E80104D54F4A15408022D200B2184E48824200DDE7E6012423
:405E0000DB08680718436D02530580462D0B5B0D0C407DE6802259461203114208D0154206D115432D0398462D0B4C46414B6FE65D4615432D032D0B3E4B69E60300554640
:405E4000283B9D400023BCE65046FDF731FD2030A8E60300283B9F400023BB46984689E6FDF726FD203073E60124A61A382E07DD00220C4000230025904649E6029EA3E7FD
:405E80001F2E20DC20222C001800921BF040944093400443581E83411C43F540630709D00F232340042B05D023001C1D9C4292415242AD182B021FD5012400220C40012360
:405EC0000025904624E61F202C004042821AD440202E1CD04022961BB5402B43581E83410720234318400025002809D00F2200251A401C00042AD8D1230068076D022D0B2F
:405F00000124DB08034398460C40002300E60025E3E780220124120315432D0398462D0B0C40044BF4E5C046FF030000FFFFFFFEFE070000FF070000F0B557464E46454694
:405F4000E0B40E001100F20F9246C500420F180337037400400A4E0F7F0A3043CF4E17435A00640D520DDB0FC900B24200D1E5E001267340A61AB446534500D1AFE0002E7B
:405F800000DC0DE1002A3AD103000B4300D0E4E06B0709D00F232B40042B05D02B1DAB42AD416D427F191D003B0200D488E0BB4B01349C4200D110E13A00B94B51461A4007
:405FC00001235007ED08520264050543120B640D0B400021280012030D0D120B64052D0515436208AF4CDB072C401443640064081C4321001CBC90469946A246F0BDA74B5D
:406000009C42C5D080231B0418436346382B00DDFDE01F2B00DD30E1624620239B1A02009A40664690460A009940F24046464B1E99413243114363460200DA40691A8D4210
:406040009B410D00BA1A5B42D71A3B0235D57A02530A98464346002B00D1C4E04046FDF727FC0300083B1F2B00DDC5E020222900D21A4746D1409F400A009D403A439C42E9
:4060800000DDC0E01C1B631C1F2B00DDE4E0202114002800C91AD8408C408D400443DA40681E854117002543002471E7424663461A4300D14CE2674645466B0700D069E7B2
:4060C000012351467807ED08FA080B40054373498C4238D012036405120B640D79E7002E00DC9AE0002A47D06C4A944200D14FE78022120410436246382A00DC08E1014368
:40610000481E81410022C9B24919D219A942BF410D007F42BF183A0200D442E15F4A0134944200D14EE101205D4A69083A4028400843D507054357089A4629E706000E43A6
:4061400000D017E714E72900114300D1F9E1802109030A431203120B3BE701235B429846C4446346002B72D1691A8D429B413F1A5B42FF1A0D0068E702000A4300D107E77B
:40618000012252429046C4446246002A00D0E6E06918A942B6413F187642F7190D00BAE7002E00D080E0621C5205520D012A00DCF9E06A1A91464D45B6413A1A7642921BA3
:4061C0009046120200D499E04D1BA9428941C71B49427A1A90469A463CE752460123002513400022F5E62800FDF762FB20300300083B1F2B00DC39E72A002838824000257A
:406200009C4200DC3EE7264FE41A1740C0E60143481E81410022C9B210E7002E00D0F1E0621C94465205520D012A00DCA0E01B4A944500D1C5E06918A94292413F185242CD
:40624000D2194908D5070D4357086446A0E6134B9C4200D0D9E69BE611001F3CE1400C00202B00D180E04021CB1A9A4015436A1E95410027254300241FE763460200203B31
:40628000DA406346202B71D0402366469B1B98400143481E814111430022CFE6FF070000FFFF7FFFFFFF0F80002C48D0CA4CA24200D1A2E07442A1468024240427434C4656
:4062C000382C00DDDBE01F2C00DD44E14E462024A41B3E00A640A246B0464C462E00E640B4464646644626435446A5406C1EA54134002C434D46EF400D1B28E04A464346A0
:406300004D461A4300D0A5E6002300240025DEE61F2A5ADC66462022921B060096409146B04662460E00D640424616434A4691404A1E9141020060463143C240E4E63C00B3
:406340002C435AD0F443A146002C52D14D1BA9428941C71B49427F1A14009A4675E69E4A944200D0C7E613E600227FE700208FE7002C00D0C8E03B002B4300D10FE1030042
:406380000B4300D104E66918A9429B413F185B42DF193B0200D41AE1904B0D001F406446F6E59A4689E63A002A43002C5CD1002A75D102000A4300D1CAE007000D009A464B
:4063C000E6E564460022002581E662460600203AD6406246B046202A00D1B7E040226646921B904001434246481E8141114300228AE6794CA24200D061E707000D001400BE
:406400009A46C5E5002C41D13C002C4378D0F443A146002C20D0704CA24271D04C46382C00DDB2E01F2C00DDBCE02026341BA2463C005646B4404E46A0462C00F440A44650
:40644000444666463443A4465446A54064466E1EB54125434C46E7406D188D4289413F184942CF19140056E6002A2FD102000A4300D184E007000D009A46574C88E53D434F
:406480006F1EBD41ECB200270D1B60E7524CA24236D0744280263604A1463743BEE702000A4300D174E56A1A90464545B6413A1A7642921B9446120200D4F7E54D1BA942FB
:4064C0008941C71B49427F1A9A4661E502000A433AD0ED087C072C438025FA082D032A4208D0C7082F4205D145072C003A009A46C9080C43670FD200E5001743364C47E54E
:4065000007000D00140043E53A002A4343D002000A4319D0ED087C072C438025FA082D032A4207D0C6082E4204D147073C003200C9080C43D700620FE50017439A46264C50
:4065400026E50022002544E5234C21E5002049E700230025BBE54C463E00203CE6404C46B446202C31D040244E46A61BB7403D436C1EA54164462C4300270D1BE7E6802251
:4065800000231203144C0025A1E53D436F1EBD410027EDB260E707000D000F4CF8E407000D00F5E44E463C00203EF440A0464C46202C0ED040244E46A41BA7403D436F1E99
:4065C000BD4144460027254346E70027CFE70D0073E50027F2E7C046FF070000FFFF7FFF70B50E4E0C031D0349005B00240B490D2D0B5B0DB14204D0084900208B4208D037
:4066000070BD04430120002CFAD1044900208B42F6D115432800451EA841F1E7FF0700000B0330B5134D1A0B4B005B0DC90F0024AB4211DD104CA34210DC80246403224384
:406640000E4CE41A1F2C0CDD0D48C31ADA4013005C42002900D11C00200030BD094BCC18FAE7E040084CA44663449A4013000343EEE7C046FE0300001D04000033040000E9
:4066800013040000FFFFFF7FEDFBFFFF70B5002830D0C317C4185C40C50F2000FDF708F9174B184A1B1AD21A1F2A18DD164AD21A9440002224035B05240B5B0D0021100025
:4066C00024030A0D1205240B1443104A1B0514401C436400ED0764082C43210070BD210091400A000B21081AC4405B052403240B5B0DE3E70025002300240022DEE7C04682
:406700001E0400003304000013040000FFFF0F8070B5051E28D0FDF7CBF8154B154A1B1AD21A1F2A16DD2C00134A0025D21A94405A052403240B520D002124030B0D240B38
:406740001B0523430D4C1205234013435B002800590870BD0B212C00081AC440954024035A05240B520DE7E700220024E4E7C0461E0400003304000013040000FFFF0F8010
:406780000000000000000000B60200008602000086020000960200009E020000AE020000860200008602000086020000860200008602000086020000B602000041303D256E
:4067C00064206D562020200041313D2564206D562020200041323D2564206D562020000054656D703D252E316620430048756D69646974793D252E3166252500496C6C75A7
:406800006D3D252E3166206C75780000506F743D252E32665600000041323D252E3266560000000041313D252E32665600000000427574746F6E733D257800004C454473A8
:406840003D2578004C454420436E74726C3D25780000000050536F432041464520536869656C64005465737400000000426173652041444300000000427574746F6E7300C0
:40688000F4090000E0090000EA090000F4090000F4090000F40900004C0A0000220A0000340A0000460A00004C0A00004C0A0000AC0A0000820A0000940A0000A60A0000BC
:4068C000AC0A0000AC0A00000C0B0000E20A0000F40A0000060B00000C0B00000C0B00006C0B0000420B0000540B0000660B00006C0B00006C0B0000720C00009E0B000043
:40690000DC0B0000FC0B0000720C0000720C0000E60C0000A60C0000A60C0000D40C0000000D0000000D00008A0D0000220D0000460D0000760D0000A40D0000AE0D000015
:40694000800E0000EA0D0000EA0D0000120E00009A0E0000A40E00001815AF19FF0000001815AE19FF0000001815A115C819FF001815A015C019FF001815AE15D51680154D
:40698000A8163F15D316001540158D16141520160015A115C815DA1612158116CF15D916F115DB1640152E15A415A619FF0000000001140A6464323200093D0000042896EE
:4069C00010080000800040001815AE15D5168015A8163F15D316001540158D16141520160015A115C815DA1612158116EF15D916A115DB1600152E15A415A619FF00000029
:406A00000001140A6464323200093D00030428961008020280004000205F00000000000000000000065F5F0600000003070000070300147F7F147F7F140000242E6B6B3A2D
:406A40001200466630180C666200307A4F5D377A4800000004070300000000001C3E63410000000041633E1C0000082A3E1C1C3E2A080008083E3E080800000080E060006F
:406A80000000000808080808080000000060600000006030180C060301001C3E6349633E1C000040427F7F40400042637159496F660022634949497F3600181C16537F7F28
:406AC00050002F6F4949497931003C7E4B4949783000030371790D070300367F4949497F3600064F4949693F1E000000006666000000000080E6660000000000081C366396
:406B00004100002424242424240000004163361C0800020301595D0702003E7F415D5D1F1E007C7E0B090B7E7C00417F7F49497F36001C3E634141632200417F7F41633E06
:406B40001C00417F7F495D416300417F7F491D0103001C3E6341513372007F7F0808087F7F000000417F7F410000307040417F3F0100417F7F081C776300417F7F41406002
:406B800070007F7F0E1C0E7F7F007F7F060C187F7F003E7F4141417F3E00417F7F49090F06003E7F4141E1FFBE00417F7F09197766000022674D597322000003417F7F41C6
:406BC00003003F7F4040407F3F001F3F6040603F1F003F7F6038607F3F0063771C081C77630000074F78784F0700476371594D67730000007F7F414100000103060C18301D
:406C00006000000041417F7F0000080C0603060C080080808080808080800000203A00000000000000000000000000000000000000000000000000000000000000000000E3
:406C400000000000000000000000000000000000000000000000000000000000000000000000000000000000000000000000082A3E1C1C3E2A080008083E3E080800000060
:406C800080E060000000000808080808080000000060600000006030180C060301001C3E6349633E1C000040427F7F40400042637159496F660022634949497F3600181CCD
:406CC00016537F7F50002F6F4949497931003C7E4B4949783000030371790D070300367F4949497F3600064F4949693F1E0000000066660000000000207F00000000000017
:406D000000000000065F5F0600000003070000070300147F7F147F7F140000242E6B6B3A1200466630180C666200307A4F5D377A4800000004070300000000001C3E6341A6
:406D40000000000041633E1C0000082A3E1C1C3E2A080008083E3E080800000080E060000000000808080808080000000060600000006030180C060301001C3E6349633E4C
:406D80001C000040427F7F40400042637159496F660022634949497F3600181C16537F7F50002F6F4949497931003C7E4B4949783000030371790D070300367F4949497FB2
:406DC0003600064F4949693F1E000000006666000000000080E6660000000000081C36634100002424242424240000004163361C0800020301595D0702003E7F415D5D1FA8
:406E00001E007C7E0B090B7E7C00417F7F49497F36001C3E634141632200417F7F41633E1C00417F7F495D416300417F7F491D0103001C3E6341513372007F7F0808087FDF
:406E40007F000000417F7F410000307040417F3F0100417F7F081C776300417F7F41406070007F7F0E1C0E7F7F007F7F060C187F7F003E7F4141417F3E00417F7F49090F2F
:406E800006003E7F4141E1FFBE00417F7F09197766000022674D597322000003417F7F4103003F7F4040407F3F001F3F6040603F1F003F7F6038607F3F0063771C081C776A
:406EC000630000074F78784F0700476371594D67730000007F7F414100000103060C18306000000041417F7F0000080C0603060C08008080808080808080000001030604F5
:406F00000000207454543C784000417F3F44447C3800387C4444446C2800387C44453F7F4000387C5454545C1800487E7F490903020098BCA4A4F87C0400417F7F08047CFC
:406F400078000000447D7D4000000060E08080FD7D00417F7F10386C44000000417F7F4000007C7C0C780C7C7800047C7804047C7800387C4444447C380084FCF8A4243C8B
:406F80001800183C24A4F8FC8400447C784C040C0800485C54545474240004043F7F446420003C7C40403C7C40001C3C6040603C1C003C7C6038607C3C00446C3810386CDF
:406FC00044009CBCA0A0A0FC7C00004C64745C4C64000008083E77414100000000EFEF000000004141773E080800020301030203010070784C464C787000000020FF000025
:407000000000000000000000065F5F0600000003070000070300147F7F147F7F140000242E6B6B3A1200466630180C666200307A4F5D377A480000000407030000000000A1
:407040001C3E63410000000041633E1C0000082A3E1C1C3E2A080008083E3E080800000080E060000000000808080808080000000060600000006030180C060301001C3E98
:407080006349633E1C000040427F7F40400042637159496F660022634949497F3600181C16537F7F50002F6F4949497931003C7E4B4949783000030371790D070300367FBC
:4070C0004949497F3600064F4949693F1E000000006666000000000080E6660000000000081C36634100002424242424240000004163361C0800020301595D0702003E7F65
:40710000415D5D1F1E007C7E0B090B7E7C00417F7F49497F36001C3E634141632200417F7F41633E1C00417F7F495D416300417F7F491D0103001C3E6341513372007F7F59
:407140000808087F7F000000417F7F410000307040417F3F0100417F7F081C776300417F7F41406070007F7F0E1C0E7F7F007F7F060C187F7F003E7F4141417F3E00417F75
:407180007F49090F06003E7F4141E1FFBE00417F7F09197766000022674D597322000003417F7F4103003F7F4040407F3F001F3F6040603F1F003F7F6038607F3F0063773E
:4071C0001C081C77630000074F78784F0700476371594D67730000007F7F414100000103060C18306000000041417F7F0000080C0603060C08008080808080808080000049
:40720000010306040000207454543C784000417F3F44447C3800387C4444446C2800387C44453F7F4000387C5454545C1800487E7F490903020098BCA4A4F87C0400417FF2
