:4000000000100020110000002D0300002D03000008B500F0D5FF00F091F9C04610B5194C12232360302000F043FF80225200164B1A608023DB051549196015490A60154A6A
:400040001A60FE210902144A1160144A1A6080218900134A1160134A1A602422124B1A601E32124B1A60023A114B1A600332114B1A600022104B1A60002000F0A9FF112322
:40008000236010BD300010400403004041FF00800803004042FF00800003004040FF00800C03004043FF008028000340300100400C010040080100400C02064008B572B69F
:4000C000EE23174A1360174A13600022164B1A60164A174B1A60D822164B1A6082225203154B1A60A822154B1A60683A144B1A6080225203134B1A60E023134A1360134A48
:4001000013600322124B1A602132124B1A60233A114B1A60FFF782FF00F068F908BDC046000002400004024004013F403606000008000440000104400801044018010440DD
:400140000002044008020440000304401803044000040440080404401805044010B5064C2378002B07D1054B002B02D0044800E000BF0123237010BD30010020000000008A
:40018000882D000008B5084B002B03D00748084900E000BF07480368002B00D108BD064B002BFBD09847F9E700000000882D000034010020B00000200000000008B500F035
:4001C000A7FB06200221084A00F032FC00F072FB00F072FA00F0E2F900F060FD00F056FD00F062FF08BDC0464C010020F8B562B6FFF7E4FF0025002401F072FDC043C0B24B
:4002000000F01AFF424B1B78002B03D0002000F01FFF02E0012000F01BFF3D4B5B78002B03D0002000F020FF02E0012000F01CFF012000F055FA002826D0002000F06CFAD2
:40024000061C012000F068FA24B263011C1B34196409A4B22DB26B015D1B45196D09ADB220B229B200F014F900B200F027F9071C01F047FD061C00F0BFFB830601D4244B15
:400280005F80301C01F041FD01F02AF80028B3D1204B188D5E8E204B9C46604402F0DCFB1E4902F009F9071C1B4BF01802F0D4FB011C381C01F0C8FF01F0AEFF86B201F0D2
:4002C00020FD071C00F098FB83061AD4144BF01800B2642670431F2101F0ACFE114B9C46604483B2020409D41A1C1BB2FA2189008B4201DD0C4B1A8893B200E00023044AB8
:400300009380381C01F001FD01F022F874E7C0464C010020A001002000FAFFFF0080DE44F8F8FFFF260200008C2D000008B502F0EDFC03680C2B00D1FEE7FEE770B50F4E0D
:400340000F4D13E029686B68AC68002202E001C901C30432A242FAD1E868002202E0002102C304328242FAD11035013E002EE9D102F0D2FCFFF73AFFFEE7C04601000000F9
:400380001049000008B500230AE0032B03D89A000949505800E009489900094A88500133282BF2D9FFF78AFE0022064B1A6080229205054B1A6008BD000000002D030000D3
:4003C00000000020A800002008ED00E0064B1B68002803D080221206134301E05B005B08014A13607047C04680033A4008B50322164B1A6080231B0615490B601548164944
:40040000086016490B6080204004154908608020800414490860802080021349086013490B601349134B1960E021134B1960134B1A60134A134B1A60F122134B1A60002225
:40044000124B1A600120FFF7C1FF08BD08210240000031408000080088003140000038401000384018003840C001384000003A40A060000000033A4040033A4008013F40A7
:400480000100008000023F4004023F40000E3F4008B5021C084B5943002805DA43429BB25B085B429BB201E083B25B081BB25818111C01F0BFFD08BD1027000030B521495D
:4004C000002413E063185B109AB2002A11D01D4DAA420ED01B049B0B1B4D5B59834208D002D9013294B201E0511E89B28C42E9D30A1C930014495B5883420DD913498A42F1
:400500000AD81C1A511C89000F4D4959411A8C4202D9013292B20DE098420BD9002A09D0511E8900084C0959091AC01A814201D2013A92B29300D2185000054B9C46604423
:4005400000B230BD72060000902D00007106000060F0FFFF0323064A136080210906054A11600421044A1160044A13607047C046540100200000314008003140140F314034
:40058000044A1168044B1B680B43802109010B4313607047080031405401002008B5064B1B79002B04D1FFF7D5FF0122024B1A71FFF7E6FF08BDC0465401002010B5041CDC
:4005C000808E002100F07AFBA2682A4B1B68002B02DA80235B0300E000231343264A1360264BE2681A60264BA2691A60254BE2691A60254B22691A60244B62691A60244A2A
:4006000000211160234B1960A16A1160626A1A600122214B1A60214B1B68EF32A1680A40402A01D0002A04D11D4A13400122134304E001229343802292051343174A136066
:40064000002113E023685A189200164BD058164B0340164812581343D20101D5144A13408A001448844662441360013163688B42E8D810BD80033A4000003A4004003A401D
:4006800018003A401C003A4010003A4014003A4028023A4038023A4018023A4030003A40FFFFFFDF5C4700000037008064470000FFFEFFFF80003A40074B1B685B0306D580
:4006C000054A1368802149020B43136002E00122024B1A607047C04604003A4024003A40011C431E012B11D8094A0A4B1B6801201840013A002803D18B0701D5002AF4D119
:40070000002804D00122034B1A6000E000207047FFFFFF0310023A4010B5041C104B1A68D3009B1ADB000F4AD3185B68834202D8002000F005FB0A4B1A68D3009B1ADB007A
:40074000084AD3185B68A34207D9A400064B9C46644420680004000C00E0002000B210BD5C0100206C47000080013A40F0B5474680B43C4B1B79002B56D06FE0A3003A4AAB
:400780009A5893050AD5FB00DB1BDB003749CB18DB68DB0705D58020C00004E08020400101E080204000D3051DD4FB00DB1BDB002E4AD318DB685B0710D5FB00DB1BDB006E
:4007C000D3189B68E02212011340934206D143085B429BB262002649535208E063000021234A995203E063000021214A9952214B58431E4B9846FE00F51BED004544E96AA6
:400800004018490001F016FC00B2A3001A4A9850F31BDB0042469A586B68D318013BA34200D10137013401E000270024012CA5D90F20032100F098FA0F20104900F082FA53
:40084000084B5B79002B09D10122064B5A71074C201CFFF7B3FE226A094B1A6004BC9046F0BDC0465C0100205C4700006C470000880100201027000080010020D9080000FF
:4008800020003A4008B5094B1B68002B0CDB084B1B68002BFBDB054A1368802109060B4313600A2000F070FB08BDC04600003A40A0023A4008B5074B1B79DB0706D4FFF7AB
:4008C00055FF044A117901230B431371FFF7DAFF08BDC0465C010020014B1A681A60704710023A4008B50A2000F00CFA08BDC04608B500F01DF808BD08B5044A13688021DE
:4009000009060B431360FFF7EDFF08BD0000094008B5064B1B78002B04D1FFF7E9FF0122024B1A70FFF7E8FF08BDC0466401002010B500241B4B1C601B4A1C4B1A601C4BD9
:400940001C4A13601C4A14601C491D4A11601D4A136002221C4B1A600A2000F0DDF90A20032100F001FA0A20184900F0EBF9184B1C60184B1C603222FF32174B1A60174B9F
:400980001C602E3AFF3A164B1A60164B1C60164B1C70164B1C70164B1C80164B00221A7010BDC0460000094000F80040600009400701008000030940040309401000FE004F
:4009C000100309400002094004020940610A0000C80E0940880E0940480F0940080F0940C80F0940880F094090010020940100208E0100208C01002010B50A2000F08CF972
:400A0000094B1C78E3B2094A12684024144000D020241C43044A13781F218B4313700A2000F070F9201C10BD94010020400F094070B5061C0D1C141E0BD00A2000F06CF902
:400A4000044B1C60044B1E80044B1D800A2000F059F970BD980100209C01002092010020F8B56E4B1B68002B00D098476C4B1C686C4B1E680223FF331C422AD06A4A1368F7
:400A80005B005B081360694A117810230B431370674B1B78DB070BD5664B1A78664B1B889A420AD0614A117808230B43137004E05E4A117802230B43137000235F4A1360F7
:400AC0005B4A1370584A1368802109060B431360A3E0330744D55A4B1D68554B1B78012B04D0002B16D0032B28D032E0524B1B88544A1288934209D2534A1268D318EAB2FE
:400B00001A704D4A13880133138025E00322484B1A7021E04D4B1B88AB4207D9454B1D70454B1D800122424B1A7015E0414B1A78414B1A8003223E4B1A700DE0444B1A68EF
:400B4000802149020A431A601968424A0A401A6002E0002000F0F4F804223F4B1A6000E00025202121401BD02D4A402313603B4B3B481860022018602E4F3B7832480068DD
:400B8000C3181B78DBB2374803602B4805883B78013303800120294B1860146004231E4373071DD5244B1B88284A128893420BD2254A1268D3181B78DBB22A4A13601E4A66
:400BC00013880133138002E0FF22264B1A60264B1B681F221340022BE4D11E3A234B1A60E3061AD5002903D10D4B1C60124B1D88104B1B78AB4205D00D4B1B78DB0703D4FC
:400C0000022302E0022300E00A231C40074B1A7814431C700022064B1A70F8BD68010020400F0940000E09400000094094010020900100208C0100208E010020880F094043
:400C40004003094092010020980100209C01002004030940FFFFFEFFC00F094004020940020001004002094008020940800F0940044A1368802109060B431360F022024BBB
:400C80001A60704700023F4008023F40024A116801230B431360704708023F4008B5064B1B78002B04D10122034B1A70FFF7E0FFFFF7ECFF08BDC0466C01002010B5064A50
:400CC00013680724234000021843CB00FF2119400143116010BDC04608030040024A1168024B0B401360704700000640FFFFFFBF034B18688023DB05184000D0012070479D
:400D0000000006401F2318401E3B8340181C014B1860704700E100E01F2318401E3B8340181C014B1860704780E100E01F2318401E3B8340181C014B1860704780E200E0FA
:400D400001BE704738B5041C0D1C182802D90020FFF7F6FFA400034B9C4664442068256038BDC0464000002070B5041C0E1E032E02D90020FFF7E4FF182C02D90020FFF712
:400D8000DFFF03252540ED00063500F0BAFFA408A400074B9C46644423680322AA409343AE40351C1D43256000F0AFFF70BDC04600E400E010B5041C06E0084B586800F0D4
:400DC00097FF074B9C46644480231B029C42F4D8024B9868604300F08BFF10BDB40000200080FFFF30B583B000F0E0F8002848D000F087FF041C244B1B6807221A409200D1
:400E0000131C1833214A12681207920FD3401A1C1F4B19681F4B19401F4B53438020C00184466344DB0B013B5B055B0D0B43A02149031943192A02D8184A13430BE0184B0C
:400E4000D31818781A3A174B9B5CC318FF2B00D9FF239B050B430E4A1360134D2B680193302000F055FF114A13688021C9050B4313601420FFF79EFF019B2B60201C00F056
:400E800044FF03B030BDC046080F0340280003400800064000F800C040420F000000D43FCDF1FF0FA44700003000104000000640F0B583B0041E182C0BD01C2809D02028DF
:400EC00007D0242805D0282803D02C2801D0302849D100F016FF0190FFF70AFF002803D0FFF7FCFE012600E00026214A136807218B4313601F4BE3181B78DBB21E4A1360E4
:400F00001E4A13688B4313601D4803687F229343191C1C4BE3181B7813400B430360322000F0E6FE182C16D9114F3B680725AB431A1C231C1C3B9B082B4013433B60322085
:400F400000F0D6FE3A68AA43231C183B9B082C1C1C4014433C60012E01D1FFF743FF019800F0D3FE02E00020FFF7EAFE03B0F0BD080F0340CDF1FF0F0C0F0340100F034099
:400F8000180F0340B4F1FF0F08B5034B1B7B584300F0AEFE08BDC046B4000020024B1868800F80077047C0460C020640034B1B68002B01DA012000E00020704700000640B4
:400FC000014A024B1A6070476588EDAC3800034010B5041CFFF7E2FFA0421AD0144A136803218B431360134B1B689B0F01D17C2001E086204000FFF7C7FF00F082FE0D4A1E
:4010000013689B009B08A40FA4071C43146000F07CFE074B1B6803229343064A1268920F01D1023200E001221343014A136010BD140206400C02064004490A68BF231A408C
:4010400080017F3B18401043086070470002044004490A68EF231A400001DF3B18401043086070470001044004490A68BF231A4080017F3B1840104308607047000104408B
:4010800008B5084B1B78002B06D100F063F800F095F80122034B1A7000F02EF800F0BEF908BDC0466D01002038B5FFF7E9FF051E02D100F093F9051C002D02D100F048F923
:4010C000051C002D12D100F01CFE041C07E000F049FE201C00F019FE00F013FE041C00F0FFF80028F3D1201C00F00FFE00F0CAF800F0AEF8281C38BD70B500230BE01348F8
:40110000191D890000220A509A1C920082180121494251600133002BF1D00D4C012310E06668227E094B5B1900211975012A06D12069002803D0F179E28A01F01CFE1C340B
:401140002B1C5D1E002BEBD170BDC046A0010020C047000038B5164D281C0021442201F00AFE144B2B80B0235B006B80593BFF3BEB82073B2B76104C281C1A30211C2031FE
:401180000E2201F0EFFD221C043401230CE0A168E38A04E013784B7201320A31031C581E002BF7D11C342B1C5D1E002BEFD138BDA0010020307C0000BC4700000023024A33
:4011C0009380024A13607047A001002078010020C9B2062902D08318002119715300195AC3185980821800231372704770B50D4DC3001A1A9200AA1894688A0051184900D5
:401200006418181A80002818067E012305E0201C311C2A1CFFF7DCFF2B1C5D1E002BF6D170BDC046C047000038B5051CC3001B1A9B00064AD318DB8A04E0281C211CFFF789
:40124000D5FF231C5C1E002BF7D138BDC047000010B5012303E0201CFFF7E6FF231C5C1E002BF8D110BDC04630B5012306E0D3B2062B02D063005D5A1D52231C5C1E002BAB
:40128000F5D130BD70B501231FE0EB005B1B9B00104AD318DB8A14E0EB005B1B9B000D4AD318A100091949009A6894466144DE68301C1A7E062A01D060003018FFF7D4FF32
:4012C000231C5C1E002BE7D12B1C5D1E002BDCD170BDC046C047000000230B737047C046024B9B68802018407047C046A001002010B50F4B9B68DB030FD400280FD1430923
:4013000002339B000A4AD3185A681F230340DA40131CDB0705D4012404E0112402E0012400E00024002C01D100F034FB201C10BDA001002008B5054B9B68DB0303D400F06E
:40134000A7FA002000E0112008BDC046A001002010B50C4B9B681B0612D40024012040420BE0201CFFF7C4FF002805D10022064B1A70FFF7DFFF04E00134002CF1D000E08D
:40138000112010BDA00100207C0100207047C046084A8023DB051A6001380002064B18608023DB051B68002BFADB044A8023DB051A607047400000400003004040FF008037
:4013C00008B5031E01D1002000E00120002803D1181C552100F0CAFB08BDC04638B50024002504E0201CFFF7EBFF05430134002CF8D0281C38BDC04610B5002409E0E3005B
:401400001B1B9B00044AD3185968201CFFF764FF0134002CF3D010BDC047000008B5FFF7EBFF00F09BF8002008BDC04670B5002516E0EB005B1B9B000B4A9E58002406E0B8
:40144000E000001B8000301800F072FA0134EB005B1B9B00044AD3189B7DA342F0D80135002DE6D070BDC046C047000010B50F4B1B68702293431C1C0D4B197E0D4800F055
:4014800049FD0D4B984204D820232343074A13600BE0084B984204D830232343034A136003E040232343014A136010BDC8000020A001002000366E01001BB700034A044B0B
:4014C0001A60C1225204034B1A60704700008301C0010C40C4010C40064A136806490B431360064A064B1A60C1225204054B1A607047C046A8020C400100001000008301D7
:40150000C0010C40C4010C4070B50D1C161C04880123A3401C1C013CA00000194000642100F0F8FC01302B18A34200D9231C854201D3281A00E00020864203D39E4203D9FB
:40154000062002E0062000E0002070BD01390843014B18607047C04600020C4010B5FFF765FF0024284B1C60284B1C60284B1C60284B1C60284B1C60284B1C60284B1C60F0
:4015800028490C60284B1C60284803680F229343093A13430360264A1368802040010343136080225200234B1A60234A136823480343136080235B04214A13602148224A5F
:4015C00010600B60214A224B1A60FFF777FF214B187EFFF7DDFEFFF749FF1F4B1B681F4A13431F4A1360482000F082FB01221D4B1A601D4B1C6009321C4B1A60C0221203E8
:401600001B4B1A6010BDC046F4000C40B4020C40C0020C4020030C4084010C4088020C4080020C4084020C4080010C400005024094020C40A0020C40A8020C400100001006
:40164000A4020C404112000088010C400000030190020C40A0010020C80000200010008000000C4000030C40F0010C4010030C4004020C4038B5041C00F043FB0A490B68AB
:401680007F25AB43094A1278A418A47A23430B6007490B68AB43074C2468A218527A13430B6000F032FB38BDC0010C4024480000C4010C40E801002038B5051C012088409D
:4016C0000138102912D16C1C6408041B0A4B197E0A4800F01FFC0A4B984201D8A01E05E0064B984201D8E01E00E0201F002D02D0291C00F00FFC38BDA001002000366E01D3
:40170000001BB70008B5064B1A78D3009B1A9B00044AD3185B68D97A0020FFF717FF08BD7E010020C047000008B5031CC07A19881A7BFFF7C1FF0004000C014B186008BD93
:4017400014030C4010B50E20FFF7E6FA01242F4B1C60182000F0CCFA00232D4A13602D4A136006222C4B1A60FA322C4B1A60802252042B4B1A602B4B1C60832252002A4BC1
:401780001A60033AFF3A294B1A60013A284B1A60F0235B0000E0013B234A1268520701D4002BF8D1002B02D10822214B1A600024174B1C60174B1C60832252001A4B1A60CC
:4017C0000E20FFF7B3FA0E20FFF79CFA124B1C60124B1C60124B1C605022124B1A604F3A144B1A60094B1C600132104B1A60F0235B0000E0013B104A1268520701D0002B9D
:40180000F8D10E4A0A4B1A6010BDC04680010C40B0020C40B4020C4088020C4080020C4084020C40F0010C40F0000C40F8000C4040030C408C010C4000000C40010300002D
:4018400008B5044A044B91680B439360FFF77AFF08BDC046A00100208000010070B5041C857E067E00F04DFA23681B680F22B24093431A1C0423B340134366683268072118
:40188000A9408A4332602268136000F03EFA70BD70B5174E3278174DD3009B1A9B00EB185868154C002323703278D3009B1A9B00EB189968227893009B185B00CB180F4AB1
:4018C0001360FFF7D7FE3278D3009B1A9B0058592178CA00531A9B00C018094B1860FFF7BDFF084800F0EEF9FFF7AAFF70BDC0467E010020C04700007D010020E801002025
:40190000E4010020F91D000008B5C300181A8000054BC058CB00591A89004018034B1860FFF79CFF08BDC046C0470000E401002038B5041C007EA57E21680B680F22824008
:4019400093430B6000F0DDF961680B680722AA4093431A1C0623AB4013430B6000F0D5F9A1680B68607E0122824093430B6038BD08B5064B1B78012B06D1054B1868FFF793
:40198000D7FF0022014B1A7008BDC0467F010020E401002070B5041C104DC3001B1A9B00EB185E68FFF7E4FFE4B20D490C700A78D3009B1A9B005A590A4B1A600A4A7F238D
:4019C00090689843031C906009780B439360301CFFF7AAFEFFF796FE70BDC046C04700007E010020E4010020A001002038B5C3001B1A9B00124AD3185D68C9B2114C21703B
:401A00009968227893009B185B00CB180E4A1360FFF7C0FF281CFFF72DFE20780B4AC300181A800013689C4660441060FFF716FF0122074B1A70074800F044F938BDC0464E
:401A4000C04700007D010020E8010020E40100207F010020811D0000074B1A687F210A40064802431A60064A13680B40802109040B4313607047C046C0010C4000008301D7
:401A8000C4010C40F0B5474680B482B0071C0E1C90462E4A1178CB005B1A9B002C49CB185B680193402333701078C0B2294B1978C9B2FFF79BFFFFF7CFFF4025FFF7C0FEE2
:401AC000254A00E0013A254B1B7A5BB2002B01DA002AF7D1224B1B681C88BC4202D23378AB4333706D0833782B4333700198FFF7C1FD002DE2D1154B1A78D3009B1A9B003D
:401B0000134A9858134B1978CA00531A9B00C018144B1860FFF70CFF0022134B1A70FFF7DBFC0198391C221CFFF7EEFC43461A7833789A4201D242461370094B1B68327803
:401B40005A7202B004BC9046F0BDC0467E010020C04700007D01002033330000A0010020E8010020E40100207F010020F0B54F4680B484B0051C8946C3001B1A9B00384ADE
:401B8000D3185F68012303AA137038888340181C01384843642100F0BDF90190EAB2314B1A70314800F08EF83C1C0A3400222F4B1A7000260AE00198211C03AAFFF762FFB1
:401BC00006432A4A13780133DBB21370EB005B1B9B00234AD318254A12785B7E9342EAD803AB1B7801335B08BB7200221F4B1A7023E0EB005B1B9B00194AD3189A681B4BCC
:401C00001B789C00E41864001419194B1C60637AB87A83420AD31B1AD8B260724B4658436330642100F076F9607201E0002363720E4A13780133DBB21370EB005B1B9B0055
:401C4000074AD318094A12785B7E9342D1D80022064B1A70301C04B004BC9146F0BDC046C04700007E010020811D00007D010020E8010020014B98677047C046000000209A
:401C800010B5041C00F03DF8044A1168044B0B40A4051C43146000F038F810BD0CE400E0FFFF3FFF8022D201014B1A607047C04600E100E08022D201014B1A607047C04693
:401CC00080E100E010B5041CFFF7F4FF201CFFF7D1FF0320FFF7D4FFFFF7E4FF10BDC046024B18680007C00F7047C046040004400230800803D001300238FCD1C046C046C2
:401D00007047EFF3108072B6704780F31088704738B5041CFFF7F5FF051C102C05D8104A136803218B43136016E0202C07D80C490B6803229343023A13430B600CE0302C45
:401D400007D807490B6803229343013A13430B6002E00020FEF7F4FF281CFFF7D6FF38BD3000104008B5FFF7CCFF044A136804218B43136030BFFFF7C8FF08BD10ED00E061
:401D800083225200144B1A60144B1A78D3009B1A9B00134AD3185B68124A12681204120C198801238B40013B9A4206D20E4B19680E4B1B785B00CA5205E00B4A11680B4A65
:401DC000127852008B520A4BDA880132DA80094A99680A409A607047F0000C407E010020C0470000D0000C40E801002024480000A00100207FFFFEFF38B53C4B19783C4C5B
:401E0000CA00521A920010593A4A1578E9004A1B9200801883214900374A11601B78DA00D31A9B00E3185B68344A12681204120C198801238B40013B9A4206D2304B1968AE
:401E4000304B1B785B00CA5205E02D4A11682D4A127852008B52FFF76BFD244B18782449C200121A92008A1850681B78DA00D31A9B00CB189B7D1F4A1278013B93421DD94A
:401E80001C4C23780133DBB22370184D2A78D3009B1A9B00CB189968227893009B185B00CB18174A1360FFF7E5FB2878C0B22178C9B2FFF729FDFFF745FC15E000220D4B0D
:401EC0001A70114A114B91680B409360104A1278012A02D1FFF75AFA06E00B4A80218B439360D3880133D38038BDC0467E010020C04700007D010020F0000C40D0000C4028
:401F0000E801002024480000A0010020FFFFFEFF7C010020002243088B4274D303098B425FD3030A8B4244D3030B8B4228D3030C8B420DD3FF22090212BA030C8B4202D31B
:401F40001212090265D0030B8B4219D300E0090AC30B8B4201D3CB03C01A5241830B8B4201D38B03C01A5241430B8B4201D34B03C01A5241030B8B4201D30B03C01A52419B
:401F8000C30A8B4201D3CB02C01A5241830A8B4201D38B02C01A5241430A8B4201D34B02C01A5241030A8B4201D30B02C01A5241CDD2C3098B4201D3CB01C01A52418309B0
:401FC0008B4201D38B01C01A524143098B4201D34B01C01A524103098B4201D30B01C01A5241C3088B4201D3CB00C01A524183088B4201D38B00C01A524143088B4201D3C7
:402000004B00C01A5241411A00D20146524110467047FFE701B5002000F0FCF802BDC0460029F7D003B5FFF775FF0EBC4243891A1847C04603460B437FD4002243088B42E2
:4020400074D303098B425FD3030A8B4244D3030B8B4228D3030C8B420DD3FF22090212BA030C8B4202D31212090265D0030B8B4219D300E0090AC30B8B4201D3CB03C01AAD
:402080005241830B8B4201D38B03C01A5241430B8B4201D34B03C01A5241030B8B4201D30B03C01A5241C30A8B4201D3CB02C01A5241830A8B4201D38B02C01A5241430A72
:4020C0008B4201D34B02C01A5241030A8B4201D30B02C01A5241CDD2C3098B4201D3CB01C01A524183098B4201D38B01C01A524143098B4201D34B01C01A524103098B4273
:4021000001D30B01C01A5241C3088B4201D3CB00C01A524183088B4201D38B00C01A524143088B4201D34B00C01A5241411A00D201465241104670475DE0CA0F00D0494261
:40214000031000D34042534000229C4603098B422DD3030A8B4212D3FC22890112BA030A8B420CD3890192118B4208D3890192118B4204D389013AD0921100E08909C30980
:402180008B4201D3CB01C01A524183098B4201D38B01C01A524143098B4201D34B01C01A524103098B4201D30B01C01A5241C3088B4201D3CB00C01A524183088B4201D383
:4021C0008B00C01A5241D9D243088B4201D34B00C01A5241411A00D20146634652415B10104601D34042002B00D54942704763465B1000D3404201B5002000F00BF802BD9E
:402200000029F8D003B5FFF715FF0EBC4243891A1847C0467047C0469E2110B5C905041C00F092FC002803D1201C00F0F5FB10BD9E21201CC90500F071FA00F0EDFB802363
:402240001B069C466044F2E7F0B556464D465F464446F0B443024500C70F83B08A465C0A2E0EB94641D0FF2E26D080231B042343DC00002398469B467F3E53465B025D0AFF
:4022800053465A00DB0F120E9A4639D0FF2A33D080231B042B43DD0000237F3A5146B21A46467940081C01921E430F2E00D976E07E4AB6009659B746002C30D10823984657
:4022C000063B9B46D9E780230021DB03FF245B02E4055B0AC90723430B43181C03B03CBC90469946A246AB46F0BD002C28D104239846033B9B46C0E7002D1FD1022302E0DA
:40230000002D11D10123B21A50464646784001921E430F2E27D86649B60089598F460C239846093B9B46A8E7281C00F017FC7622431F52429D40121A0023AFE70323ADE766
:40234000201C00F00BFC431F9C4076235B421E1A002398469B4690E70025D1469B465B464846022B6FD10121FF2401400023AEE77E23019A5B429B1A1B2B6DDD01214B465D
:40238000194000240023A2E78023DB031C4249D18023DB0323435B025B0A391C96E763016D01AB4237D389461A2001215B1B01241E1C49005B00002E01DBAB4201D35B1BD2
:4023C000214301380028F3D1581E83410B431D1C019C7F34002CCBDD6B0704D00F232B40042B00D004352B0104D5019A314B8032141C1D40FE2C07DD4B460121FF241940BC
:40240000002364E7251CAAE701214A46AB015B0AE4B211405BE7019A8946013A01921B200021C4E71D4207D023435B025B0A391C4CE700256302ABD58023DB032B435B02F5
:402440005B0A514642E7032B25D0012BC0D101210024014000233AE7291CD9402B1C019A9E3293405D1EAB410B435A0704D00F221A40042A00D004335A0105D54B46012117
:4024800001241940002322E701214A469B015B0A114000241BE7802301214A46DB032B435B020A405B0A111C10E7C0462848000068480000FFFFFFF7F0B55F4656464D46E4
:4024C0004446F0B445024600C40F83B00F1C6D0A360EA34645D0FF2E25D080231B041D4300239A46ED007F3E01937B025B0A98467800FB0F000E994640D0FF2838D08023A1
:4025000042461B041343DB00984600237F384A46019F30186240411C1F430F2F69D87D4EBF00F659B746002D45D108230193063B9A46DAE793465346022B2FD15B46012494
:4025400000251C40FF236D02DB056D0AE4071D432543281C03B03CBC90469946A246AB46F0BD002D2CD104230193033B9A46BCE743465A4253410322D31AC8E74246012349
:40258000002AC4D0404600F0E9FA4246431F9A4076235B42181A90460023B8E7032B00D1ADE0012B00D08CE05B4654461C40E4B200230025C7E70C230193093B9A4694E7C7
:4025C000281C00F0CBFA7626431F9D4000237642361A01939A4688E780250024ED03FF23B1E74546CB469A46A5E7454693469A46A1E743462C041B0C9C46230C444626040D
:402600001C1C360C2F0C7443351C66467D4373437743EB18260C9E19B54203D980235B029C46674424043304240C1B199D016C1EA5419B0E360C2B43BD19AD011D432B017B
:4026400004D5012368081D400543081C031C7F33002B2CDD690704D00F212940042900D00435290103D52C4B1D40031C8033FE2B17DD0124FF231440002564E78020C003D9
:40268000054209D04346034206D1454605436D026D0A4C46FF2356E705436D026D0AFF2351E70124AD016D0ADBB214404BE77E235B421B1A1B2B07DD012400231440002568
:4026C00041E7081C5A46C1E79E30291C8540D940681E85410D436B0704D00F232B40042B00D004356B0104D5012401231440002529E70124AD016D0A1440002323E7802319
:40270000DB031D4301245B466D0223401C1C6D0AFF2318E7A8480000FFFFFFF7F8B54A00430244004D02C00F240E061C9B09120EC90FAD09FF2A00D175E0012779408842D1
:4027400050D0A01A002800DC8FE0002A1ED1002D00D075E05A0704D00F221A40042A00D0043380220120D2041A403040002A32D00134FF2C00D184E09B015B0AE4B25B0294
:40278000E4055B0A2343C0071843F8BDFF2CE1D08022D20415431B287ADD01255B1B5A015DD59B019F09381C00F0D8F905388740844269DC001B1F243A1C431C201ADA4050
:4027C0008740131C7C1EA74100243B43C2E7131E45D100230020DB08FF2C28D05B025B0AE4B2CCE7A11A00295BDD002A2ED0FF2CB0D08022D20415431B2974DC2F1C20229B
:40280000CF40511A8D40691E8D413D435B195A0125D50134FF2C74D001217E4A194013405B080B4396E7002D00D088E785E7002B27D08022D20313435B025B0AFF249EE71A
:4028400001380028AAD0FF2CA5D183E7002D00D180E701390029D9D0FF2CCDD17AE75A0700D079E701203040B5E7002825D1621CD2B2012A55DD5F1B7A012DD5EF1A0E1C72
:4028800091E7FF2400237AE7624B241A3B4061E7291C2022C140101A8540681E85410D437CE7002946D1621CD1B201292BDDFF2A26D0EB185B08141C4CE7002C15D0FF2A40
:4028C0001AD08024E404404223431B284DDD0123EB1A141C0E1C62E7002F00D063E700230020002477E7012590E7002B39D0C0430028EDD0FF2AE8D12B1CFF240E1C29E7F4
:40290000FF24002367E7002C5AD1002B7FD0002D00D11FE75B195A01A1D53E4A0134134018E7002C15D1002B2FD1002D5ED02B1C0E1C0FE7002C21D1002B54D0C943002939
:4029400004D0FF2A4CD01B2958DD01235B19141C5DE7002B23D1002D4BD02B1C0E1CFF24F8E62B1C141C0E1CF4E61E1C2024C640201A8340581E83413343A9E7FF2A2FD07C
:402980008024E40449422343DDE7002D00D1E1E65A1B500100D41AE7EB1A0E1CDAE6FF24002D00D1D6E68022DB08D203134204D0ED08154201D12B1C0E1CDB00FF24C9E6EB
:4029C000002B0DD0FF24002D00D1C3E68022DB08D2031342F1D0ED081542EED12B1CECE72B1CFF24B6E62B1C141CB3E6231C0020F1E6802300209B04FF24ECE61F1C20244E
:402A0000CF40611A8B40591E8B413B439EE72B1CA0E6C046FFFFFFFB4202510A4200C30F120E00207E2A0DDD9D2A0CDC802000040143952A0ADC9620821AD1400A1C58424C
:402A40004240D0187047034A9818FBE7963A91400A1CF4E7FFFFFF7F70B5041E39D0C50F00D04442201C00F079F89E23261C1B1A962B07DC082801DD083884406402640A5F
:402A8000D8B21EE0992B0ADD0522211C121AD1400A1C011C1B318E40711E8E411643052801DD421F96400F4C3440720704D00F221640042E00D0043462010ED4A401640AB7
:402AC000D8B26402C005640AED0704432C43201C70BD002500200024F3E7024B1C409F231B1AEBE7FFFFFFFB8446081C6146FFE71FB500F0C5F8002801D40021C8421FBDF3
:402B000010B500F049F84042013010BD10B500F0B7F8002801DB002010BD012010BDC04610B500F0ADF8002801DD002010BD012010BDC04610B500F059F8002801DC00206A
:402B400010BD012010BDC04610B500F04FF8002801DA002010BD012010BDC0461C2101231B04984201D3000C10391B0A984201D3000A08391B09984201D30009043902A257
:402B8000105C40187047C04604030202010101010000000000000000430270B542004C005D0AC30F4802120E460A240EC90FFF2A05D0FF2C08D00120A2420BD070BD012061
:402BC000002DFBD1FF2CF6D10120002EF6D10120A242F3D1B542F1D18B4205D0002AEDD1281C431E9841E9E70020E7E7F0B543024D024A0044005E0A240EC30F6D0A120EC2
:402C0000C90FFF2C0DD0FF2A31D0002C0DD177427741002A23D1002D21D10020002F0BD107E0002E28D1FF2A21D0002A05D08B4207D0584201231843F0BD002DF9D08B4253
:402C4000F7D19442F5DC04DBAE42F2D80020AE42F2D25842434101205B421843ECE7002FE5D048424141012049420843E4E7002D02D1002CCBD0DAE702204042DCE7C046C7
:402C80004302F0B542004C005E0AC30F4802120E450A240EC90FFF2A0FD0FF2C1AD0002A10D177427741002C29D0002F17D0484241410120494208430BE00220002E08D1B4
:402CC000FF2C07D0002C0AD1002D08D1584201231843F0BD0220002DFBD1002AE1D08B42F4D1A242F2DC04DBAE42EFD80020AE42EFD25842434101205B421843E9E7002D2A
:402D0000D3D10020002FE4D1E0E7C046014B18687047C0462C0100200E4B70B500251E1C0D4CE41AA410A54204D0AB00F35898470135F8E701F0DAFD084B00251E1C084CED
:402D4000E41AA410A54204D0AB00F35898470135F8E770BDF8480000F8480000F848000000490000002310B5934203D0CC5CC4540133F9E710BD031C8218934202D019702C
:402D80000133FAE77047000000000000E803000034660600C75A0600704F06002F44060004390600EF2D0600F022060006180600310D060072020600C7F7050031ED050012
:402DC000AFE2050042D80500E9CD0500A4C3050073B9050056AF05004CA50500559B050072910500A2870500E57D05003B740500A36A05001E610500AB5705004A4E050046
:402E0000FB440500BE3B0500933205007A290500722005007B170500950E0500C1050500FDFC04004AF40400A7EB040016E3040094DA040023D20400C1C9040070C104003D
:402E40002FB90400FDB00400DBA80400C8A00400C4980400D0900400EB880400158104004E79040095710400EB6904004F620400C25A040043530400D24B04007044040078
:402E80001B3D0400D43504009A2E04006F27040050200400401904003C120400450B04005C0404007FFD0300B0F60300EDEF030037E903008DE20300F0DB03005FD50300C7
:402EC000DACE030062C80300F5C1030095BB030040B50300F7AE0300BAA8030089A20300639C03004896030039900300358A03003C8403004E7E03006B78030093720300CA
:402F0000C66C0300036703004B6103009E5B0300FB55030062500300D44A030050450300D63F0300663A030001350300A52F0300532A03000A250300CC1F0300971A030064
:402F40006B15030049100300300B0300210603001B0103001EFC02002AF702003FF202005DED020084E80200B4E30200EDDE02002EDA020078D50200CAD0020025CC020071
:402F800088C70200F4C2020068BE0200E4B9020069B50200F5B0020089AC020026A80200CAA30200779F02002B9B0200E6960200AA920200758E0200478A020021860200E7
:402FC00003820200EC7D0200DC790200D4750200D2710200D86D0200E5690200FA65020015620200375E0200605A02008F560200C6520200034F0200474B02009247020070
:40300000E34302003B4002009A3C0200FE38020069350200DB310200532E0200D12A020055270200DF23020070200200071D0200A319020046160200EE1202009D0F0200A7
:40304000510C02000B090200CB050200900202005BFF01002CFC010003F90100DFF50100C0F20100A7EF010093EC010085E901007CE6010079E301007AE0010081DD01006C
:403080008DDA01009ED70100B5D40100D0D10100F0CE010016CC010040C901006FC60100A4C30100DDC001001ABE01005DBB0100A4B80100F1B5010041B3010097B00100EB
:4030C000F1AD01004FAB0100B2A801001AA6010086A30100F7A001006B9E0100E59B010062990100E49601006B940100F5910100848F0100178D0100AE8A0100498801000B
:40310000E88501008C83010033810100DE7E01008E7C0100417A0100F8770100B47501007373010035710100FC6E0100C66C0100956A0100676801003C6601001664010084
:40314000F2610100D35F0100B75D01009F5B01008A590100795701006B550100615301005A510100574F0100574D01005A4B0100614901006B470100784501008943010006
:403180009D410100B43F0100CE3D0100EC3B01000C3A0100303801005736010081340100AE320100DE300100112F0100472D0100802B0100BC290100FB2701003D26010055
:4031C00082240100CA22010014210100621F0100B21D0100051C01005B1A0100B31801000F1701006D150100CD1301003112010097100100000F01006B0D0100D90B01006A
:40320000490A0100BC08010032070100AA05010025040100A202010022010100A4FF000029FE0000B0FC000039FB0000C5F9000053F80000E4F6000077F500000CF400009F
:40324000A4F200003EF10000DAEF000078EE000019ED0000BCEB000061EA000008E90000B2E700005DE600000BE50000BBE300006DE2000022E10000D8DF000090DE000090
:403280004BDD000008DC0000C6DA000087D9000049D800000ED70000D5D500009DD4000068D3000034D2000003D10000D3CF0000A6CE00007ACD000050CC000028CB000060
:4032C00002CA0000DDC80000BBC700009AC600007BC500005EC4000042C3000029C2000011C10000FBBF0000E7BE0000D4BD0000C3BC0000B4BB0000A6BA00009AB90000C6
:4033000090B8000088B7000081B600007BB5000078B4000076B3000075B2000076B1000079B000007DAF000083AE00008AAD000093AC00009EAB0000AAAA0000B7A9000003
:40334000C6A80000D6A70000E8A60000FCA5000011A5000027A400003EA3000058A2000072A100008EA00000AB9F0000CA9E0000EA9D00000B9D00002E9C0000529B0000FE
:40338000789A00009F990000C7980000F09700001B9700004796000074950000A3940000D393000004930000379200006A9100009F900000D58F00000D8F0000458E00004B
:4033C0007F8D0000BA8C0000F68B0000338B0000728A0000B1890000F28800003488000077870000BC86000001860000488500008F840000D8830000228300006D8200003A
:40340000B98100000681000054800000A37F0000F37E0000457E0000977D0000EA7C00003F7C0000947B0000EB7A0000427A00009B790000F47800004F780000AA770000D4
:403440000677000064760000C27500002175000082740000E373000045730000A87200000C72000071710000D77000003E700000A56F00000E6F0000776E0000E26D0000F0
:403480004D6D0000B96C0000266C0000946B0000026B0000726A0000E269000054690000C668000038680000AC67000021670000966600000C66000083650000FB6400002D
:4034C00073640000ED63000067630000E26200005D620000DA61000057610000D560000054600000D35F0000545F0000D45E0000565E0000D95D00005C5D0000E05C000006
:40350000645C0000EA5B0000705B0000F65A00007E5A0000065A00008F59000018590000A25800002D580000B957000045570000D25600005F560000ED5500007C550000BF
:403540000C5500009C5400002D540000BE53000050530000E3520000765200000A5200009E51000033510000C950000060500000F64F00008E4F0000264F0000BF4E00008C
:40358000584E0000F24D00008D4D0000284D0000C34C00005F4C0000FC4B0000994B0000374B0000D64A0000754A0000144A0000B449000055490000F6480000984800007A
:4035C0003A480000DD4700008047000024470000C84600006D46000012460000B84500005E45000005450000AD44000054440000FD430000A64300004F430000F942000071
:40360000A34200004E420000F9410000A541000051410000FE400000AB4000005840000006400000B53F0000643F0000133F0000C33E0000733E0000243E0000D53D00004D
:40364000873D0000393D0000EB3C00009E3C0000513C0000053C0000B93B00006E3B0000233B0000D83A00008E3A0000443A0000FB390000B23900006939000021390000D3
:40368000D9380000923800004B38000004380000BE3700007837000033370000EE360000A93600006436000021360000DD3500009A3500005735000014350000D2340000B2
:4036C000913400004F3400000E340000CD3300008D3300004D3300000D330000CE3200008F3200005032000012320000D431000097310000593100001C310000E030000085
:40370000A3300000673000002C300000F12F0000B62F00007B2F0000402F0000062F0000CD2E0000932E00005A2E0000212E0000E92D0000B12D0000792D0000412D0000D5
:403740000A2D0000D32C00009C2C0000652C00002F2C0000F92B0000C42B00008F2B00005A2B0000252B0000F02A0000BC2A0000882A0000552A0000212A0000EE2900002A
:40378000BC290000892900005729000025290000F3280000C2280000902800005F2800002F280000FE270000CE2700009E2700006F2700003F27000010270000E1260000F0
:4037C000B2260000842600005626000028260000FA250000CD2500009F250000722500004625000019250000ED240000C124000095240000692400003E2400001324000093
:40380000E8230000BD23000093230000692300003F23000015230000EB220000C22200009922000070220000472200001E220000F6210000CE210000A62100007E2100006E
:40384000572100003021000009210000E2200000BB200000952000006E2000004820000022200000FD1F0000D71F0000B21F00008D1F0000681F0000431F00001E1F0000D6
:40388000FA1E0000D61E0000B21E00008E1E00006B1E0000471E0000241E0000011E0000DE1D0000BB1D0000991D0000761D0000541D0000321D0000101D0000EE1C00001E
:4038C000CD1C0000AC1C00008A1C0000691C0000491C0000281C0000071C0000E71B0000C71B0000A71B0000871B0000671B0000481B0000291B0000091B0000EA1A000087
:40390000CB1A0000AD1A00008E1A0000701A0000511A0000331A0000151A0000F7190000DA190000BC1900009F1900008219000065190000481900002B1900000E1900004D
:40394000F2180000D5180000B91800009D18000081180000651800004A1800002E18000013180000F8170000DC170000C1170000A71700008C1700007117000057170000B0
:403980003D1700002217000008170000EE160000D5160000BB160000A1160000881600006F160000551600003C160000241600000B160000F2150000D9150000C1150000DE
:4039C000A915000091150000781500006115000049150000311500001915000002150000EA140000D3140000BC140000A51400008E14000077140000611400004A14000009
:403A0000341400001D14000007140000F1130000DB130000C5130000AF13000099130000841300006E13000059130000431300002E1300001913000004130000EF1200005B
:403A4000DA120000C6120000B11200009D1200008812000074120000601200004C120000381200002412000010120000FC110000E9110000D5110000C2110000AE110000FF
:403A80009B1100008811000075110000621100004F1100003C110000291100001711000004110000F2100000E0100000CD100000BB100000A9100000971000008510000015
:403AC0007310000062100000501000003E1000002D1000001B1000000A100000F90F0000E80F0000D70F0000C60F0000B50F0000A40F0000930F0000820F0000720F0000BC
:403B0000610F0000510F0000400F0000300F0000200F0000100F0000000F0000F00E0000E00E0000D00E0000C00E0000B10E0000A10E0000910E0000820E0000730E000014
:403B4000630E0000540E0000450E0000360E0000270E0000180E0000090E0000FA0D0000EB0D0000DC0D0000CE0D0000BF0D0000B10D0000A20D0000940D0000860D000039
:403B8000780D0000690D00005B0D00004D0D00003F0D0000310D0000240D0000160D0000080D0000FA0C0000ED0C0000DF0C0000D20C0000C50C0000B70C0000AA0C000043
:403BC0009D0C0000900C0000830C0000760C0000690C00005C0C00004F0C0000420C0000350C0000290C00001C0C00000F0C0000030C0000F70B0000EA0B0000DE0B000041
:403C0000D20B0000C50B0000B90B0000AD0B0000A10B0000950B0000890B00007D0B0000710B0000660B00005A0B00004E0B0000430B0000370B00002C0B0000200B000056
:403C4000150B0000090B0000FE0A0000F30A0000E80A0000DC0A0000D10A0000C60A0000BB0A0000B00A0000A60A00009B0A0000900A0000850A00007A0A0000700A00008D
:403C8000650A00005B0A0000500A0000460A00003B0A0000310A0000270A00001C0A0000120A0000080A0000FE090000F4090000EA090000E0090000D6090000CC090000ED
:403CC000C2090000B8090000AE090000A40900009B09000091090000870900007E090000740900006B09000061090000580900004F090000450900003C090000330900009C
:403D00002A09000021090000170900000E09000005090000FC080000F3080000EA080000E2080000D9080000D0080000C7080000BF080000B6080000AD080000A508000097
:403D40009C080000940800008B080000830800007A0800007208000069080000610800005908000051080000480800004008000038080000300800002808000020080000ED
:403D800018080000100800000808000000080000F8070000F1070000E9070000E1070000D9070000D2070000CA070000C2070000BB070000B3070000AC070000A4070000B7
:403DC0009D070000950700008E070000870700007F07000078070000710700006A070000620700005B070000540700004D070000460700003F0700003807000031070000EE
:403E00002A070000230700001C070000150700000F0700000807000001070000FA060000F4060000ED060000E6060000E0060000D9060000D2060000CC060000C5060000A8
:403E4000BF060000B8060000B2060000AC060000A50600009F06000098060000920600008C060000860600007F06000079060000730600006D0600006706000061060000ED
:403E80005B060000550600004F06000049060000430600003D06000037060000310600002B060000250600001F0600001A060000140600000E0600000806000003060000BC
:403EC000FD050000F7050000F2050000EC050000E7050000E1050000DC050000D6050000D1050000CB050000C6050000C0050000BB050000B6050000B0050000AB05000038
:403F0000A6050000A00500009B05000096050000910500008B05000086050000810500007C05000077050000720500006D05000068050000630500005E0500005905000043
:403F4000540500004F0500004A05000045050000400500003B05000036050000320500002D05000028050000230500001F0500001A05000015050000100500000C050000FA
:403F80000705000003050000FE040000F9040000F5040000F0040000EC040000E7040000E3040000DE040000DA040000D5040000D1040000CD040000C8040000C40400006C
:403FC000BF040000BB040000B7040000B3040000AE040000AA040000A6040000A20400009D0400009904000095040000910400008D04000089040000840400008004000087
:404000007C0400007804000074040000700400006C0400006804000064040000600400005C0400005804000054040000510400004D0400004904000045040000410400005B
:404040003D0400003904000036040000320400002E0400002A04000027040000230400001F0400001C0400001804000014040000110400000D0400000904000006040000EC
:4040800002040000FF030000FB030000F8030000F4030000F1030000ED030000EA030000E6030000E3030000DF030000DC030000D8030000D5030000D2030000CE0300004E
:4040C000CB030000C7030000C4030000C1030000BE030000BA030000B7030000B4030000B0030000AD030000AA030000A7030000A4030000A00300009D0300009A0300006D
:404100009703000094030000910300008D0300008A0300008703000084030000810300007E0300007B0300007803000075030000720300006F0300006C0300006903000054
:404140006603000063030000600300005D0300005A0300005703000054030000520300004F0300004C030000490300004603000043030000400300003E0300003B0300000C
:40418000380300003503000033030000300300002D0300002A0300002803000025030000220300001F0300001D0300001A0300001703000015030000120300001003000095
:4041C0000D0300000A03000008030000050300000303000000030000FD020000FB020000F8020000F6020000F3020000F1020000EE020000EC020000E9020000E7020000FE
:40420000E4020000E2020000DF020000DD020000DB020000D8020000D6020000D3020000D1020000CF020000CC020000CA020000C8020000C5020000C3020000C102000039
:40424000BE020000BC020000BA020000B7020000B5020000B3020000B1020000AE020000AC020000AA020000A8020000A5020000A3020000A10200009F0200009D02000049
:404280009A02000098020000960200009402000092020000900200008D0200008B02000089020000870200008502000083020000810200007F0200007D0200007B02000038
:4042C00079020000760200007402000072020000700200006E0200006C0200006A02000068020000660200006402000062020000600200005E0200005D0200005B0200000B
:4043000059020000570200005502000053020000510200004F0200004D0200004B0200004902000048020000460200004402000042020000400200003E0200003C020000B6
:404340003B0200003902000037020000350200003302000032020000300200002E0200002C0200002B02000029020000270200002502000024020000220200002002000048
:404380001E0200001D0200001B0200001902000018020000160200001402000012020000110200000F0200000D0200000C0200000A020000090200000702000005020000C2
:4043C000040200000202000000020000FF010000FD010000FC010000FA010000F8010000F7010000F5010000F4010000F2010000F1010000EF010000EE010000EC0100002E
:40440000EA010000E9010000E7010000E6010000E4010000E3010000E1010000E0010000DE010000DD010000DB010000DA010000D8010000D7010000D6010000D40100007B
:40444000D3010000D1010000D0010000CE010000CD010000CB010000CA010000C9010000C7010000C6010000C4010000C3010000C2010000C0010000BF010000BE010000AC
:40448000BC010000BB010000B9010000B8010000B7010000B5010000B4010000B3010000B1010000B0010000AF010000AD010000AC010000AB010000AA010000A8010000CB
:4044C000A7010000A6010000A4010000A3010000A2010000A10100009F0100009E0100009D0100009C0100009A0100009901000098010000970100009501000094010000D4
:404500009301000092010000900100008F0100008E0100008D0100008C0100008A0100008901000088010000870100008601000085010000830100008201000081010000CD
:40454000800100007F0100007E0100007D0100007B0100007A0100007901000078010000770100007601000075010000740100007201000071010000700100006F010000B3
:404580006E0100006D0100006C0100006B0100006A0100006901000068010000660100006501000064010000630100006201000061010000600100005F0100005E0100008C
:4045C0005D0100005C0100005B0100005A010000590100005801000057010000560100005501000054010000530100005201000051010000500100004F0100004E01000053
:404600004D0100004C0100004B0100004A01000049010000480100004701000046010000450100004401000043010000420100004101000041010000400100003F0100000F
:404640003E0100003D0100003C0100003B0100003A0100003901000038010000370100003601000036010000350100003401000033010000320100003101000030010000BB
:404680002F0100002E0100002E0100002D0100002C0100002B0100002A0100002901000028010000280100002701000026010000250100002401000023010000230100005C
:4046C0002201000021010000200100001F0100001E0100001E0100001D0100001C0100001B0100001A010000190100001901000018010000170100001601000016010000F1
:40470000150100001401000013010000120100001201000011010000100100000F0100000F0100000E0100000D0100000C0100000B0100000B0100000A010000090100007A
:4047400008010000080100000701000006010000050100000501000004010000000100000011000007000501050006010000000002000000402E201088000490CA03020051
:40478000020002000002000E00000000030000000000000000000000B00400000100000017000000EEDBC9B9AA9B8E82766B60564D443B332C241D17100A040020200000FE
:4047C000EC470000BA010020C8010020700100207401002001000200010200001000640028280A031E64208000000000000102400801044000010440040104400000F00095
:404800002000000014050F0000010240080104400001044004010440000000F0800000001C071500000000009E23000066230000822300005A23000082230000C622000071
:40484000822300005A2300006623000066230000C62200005A2300000424000004240000042400008823000066230000662300004E240000582300004E240000C622000023
:404880004E240000582300006623000066230000C62200005823000004240000042400000424000032240000F2250000EA250000EA250000E22500003425000034250000DA
:4048C000D8250000E225000034250000D825000034250000E22500003625000036250000362500007C26000043000000F8B5C046F8BC08BC9E467047850100008503000034
:40490000F8B5C046F8BC08BC9E4670475D01000020490000B000002080000000C000000000000000010000000000E02EC05D00001800000000366E010200000400000000EB
:4049400000000000000000000000000000000000000000000000000000000000E8480000000000000000000000000000000000000000000000000000000000000000000007
:4049800000000000000000000000000000000000000000000000000000000000CC00002000000000000000000000000000000000000000000000000000000000000000000B
:4049C00000000000000000000000000000000000000000000000000000000000000000000000000000000000000000000000000000000000000000000000000000000000B7
:404A00000000000000000000000000000000000000000000000000000000000000000000000000000000000000000000000000000000000000000000000000000000000076
:404A40000000000000000000000000000000000000000000000000000000000000000000000000000000000000000000000000000000000000000000000000000000000036
:404A800000000000000000000000000000000000000000000000000000000000000000000000000000000000000000000000000000000000000000000000000000000000F6
:0200000490303A
:0200000059564F
:0200000490402A
:200000000000000000000000000000000000000000000000000000000000000000000000E0
:0200000490501A
:0C00000000021C0011AC00011C136B027C
:0200000490600A
:0100000001FE
:00000001FF