:400000000040002011000000C90F0000C90F000010B500F0F9FF0000F7B572B680220021D2005E4804F021F880220021D2005C4804F01BF80022FF2511005A4E1836594BA5
:40004000D0584B000700284009184800013001333018AF43F31801900198834207D0581E0078C0190400187802332070F4E70432182AE4D1C0224C4B92011A60C0224B4B9F
:4000800092051A60EE224A4B12021A60EE22494B80211A6099238025474A1B041360474AC90311603C21464A2D061360454A07241360454A03261560444A30201360444A1F
:4000C000444B1A60444A13788B4328390B431370424A023113780B431370C822404B1A60404A414B1A608222404B92001A60404B423AFF3A1A60D8223E4B12041A60D82242
:400100003D4B12011C603D4B1A6024223C4B1E603C4B1A603C4B123A1A6001F095FC3B4A3B4B3C491A603C4A3C4B20001A603C4B3C4A1A60E82252010A603B4919603B490B
:400140000A603B4A3B491A6082223B4B12061A6080223A4BD2021A604222394B1A60394B023A1A60384B01321A6001F0B7FB200001F0D6FB0023354A01201360344A1660E6
:40018000344A1660344A1560344A1460344A1460344A136000F00AFFF7BDC04600300F4000400F40B0F200000000024000020240000302400004024000500F4008500F40C9
:4001C00010500F4020500F4028500F4030500F4010EE0E002001204001700F4000700F4000000440000C58000800044008010440000204400802044018020440080304406D
:400200000004044008040440300010400600008004010B4000030140007B9200080301400000014042FF008040FF00800403014041FF0080951C000008010B4000010B4019
:400240002C01014028010140080101400C020B40300030403000314000003A4000033A4040033A40000E3F4010B5064C2378002B07D1054B002B02D0044800E000BF012370
:40028000237010BDB801002000000000D8670000084B10B5002B03D00749084800E000BF07480368002B00D110BD064B002BFBD09847F9E700000000BC010020D8670000CC
:4002C000C000002000000000044B1A68511C1960C82A02DD0021012206C37047D401002010B52A2907D02B2909D029290AD1100001F02AFB06E00A2001F0E6FB02E0024860
:4003000001F062FC012010BDB01200001B4B70B50021595E002001F035FA194C02001949200004F021FB184D230003222800002100F04AFC154B01200021595E01F022FA90
:4003400013490200200004F00FFB230004222800002100F039FC0F4B02200021595E01F011FA0D490200200004F0FEFA280023000522002100F028FC70BDC046400200205A
:4003800042020020E067000084020020CA020020EC670000C8020020F867000070B5504C237AE179607A1B020B4300041A000300A07A13430006184303F024FD494D0200C9
:4003C0000B002800484904F0CFFA484E2B0030000222002100F0F8FB237BE17A607B1B020B4300041A000300A07B13430006184303F008FD02000B0028003D4904F0B4FADC
:400400002B0030000322002100F0DEFB237CE17B607C1B020B4300041A000300A07C13430006184303F0EEFC02000B002800314904F09AFA2B0030000422002100F0C4FBB7
:40044000237DE17C607D1B020B4300041A000300A07D13430006184303F0D4FC02000B002800254904F080FA05222B003000002100F0AAFB214B02200021595E01F082F964
:4004800002F0D4F903F0BEFC00221D4B02F042FD02000B0028001B4904F066FA06222B003000002100F090FB174B01200021595E01F068F902F0BAF903F0A4FC0022104BA7
:4004C00002F028FD02000B002800104904F04CFA2B0030000722002100F076FB70BDC046B00200204202002003680000840200200F6800001F6800002E680000C80200201F
:4005000000408F4038680000CA0200204168000070B5124C124E1349B279200004F024FA114D230028000322002100F04DFB32790E49200004F018FA2300280004220021FA
:4005400000F042FB72790A49200004F00DFA280023000522002100F037FB70BD42020020B00200204A68000084020020556800005D68000070B52F4E2F4AB368DB0700D417
:400580002E4A2F4C2F49200004F0EEF92E4D230002220021280000F017FBB368264A9B0700D4264A2949200004F0DEF9230003220021280000F008FBB3681F4A5B0700D4BC
:4005C0001E4A2349200004F0CFF9230004220021280000F0F9FAB368174A1B0700D4174A1C49200004F0C0F9230005220021280000F0EAFAB368104ADB0600D40F4A164988
:40060000200004F0B1F9230006220021280000F0DBFAB368084A9B0600D4084A0F49200004F0A2F9280023000722002100F0CCFA70BDC046D40100206A6800006F6800004C
:400640004202002074680000840200208368000092680000A1680000B0680000BF68000010B5012001F022F9054BD86842425041C0B2D86000F012FD01F0B0F810BDC046BB
:40068000D4010020143970B505001C0008000C291BD801F009FD181A1A070F161A1A1A1A1A1A18009D18A5420DD0207800F02EFE0134F8E70135E87F0021400800F088FDA3
:4006C00001E000F0E1FD012000E0002070BD0000F8B5124D124C2B69DB00E318586804F065F9104E0700300000F029FC30000E4B0022012100F068FA10212B69C91BDB00CA
:40070000E3184908C9B2012230005B6800F05CFA2B69DB001B599847F8BDC046D4010020C400002084020020CE680000F8B5664C2369002B2BD1654B01200021595E01F0B8
:4007400021F802F073F803F05DFB0022604B02F0E1FB02000B0000205E4902F0FFFF03F0A5FB03F04FFB5C4A5C4B06000F0001F045FE00280BD0584A594B3000390001F050
:4007800029FE002803D00223A2681343A360554D554E2B7CE97B6F7C1B020B433F041A003B00AF7C13433F061F43316A381C01F05FFE002800D03762716A381C01F044FEF9
:4007C000002800D077624949306A01F051FE002809D04749706A01F037FE002803D00823A2681343A360AA79237D134323757F2B03D1A2687E3B1343A3602B7BE97A6F7B64
:400800001B020B433F041A003B00AF7B13433F061F433849381C01F02BFE002809D03649381C01F011FE002803D01023A2681343A3602B7AE9791B020B431A006B7AAD7AA2
:400840001B0413432D061D432C49281C01F010FE002809D02A49281C01F0F6FD002803D02023A2681343A360264B0020185E01F0DDFF254901F010FEB16A051C01F0F8FD18
:40088000002800D0B562F16A281C01F0DDFD002800D0F562FE21F06A890501F0D5FD00280AD08021B06AC90501F0E2FD002803D00423A2681343A360A3683F2B02D100205E
:4008C00000F000FCF8BDC046D4010020CA02002000408F400000F03F9A9999999999B9BF9999B93FB0020020C4000020000096440000C842000020410000B4420000A04127
:4009000000000C42C802002000007A44F0B587B062B600F0FDFE00F009FF00F0EDFB01F021F95D49002001F045F95C4800F070FF00F0AEFF5A4C5B4B5B4A5C492000009329
:400940005B4B00F023FB200000F0CFFA20000021002600F0D1FA20000924564900F0FAF8FFF7B6FE02ABE418310004AD42202E7026706670A670E67000F02AFC300000F0B7
:40098000C5FC00F081FC012000F0DAFE00280ED0002000F0EBFE484B1880012000F0E6FE464B1880022000F0E1FE454B188000F00DFF444F061E0AD13B6B012B07D14249FC
:4009C0000B695A1C032313400B61FFF781FE002317223E4942203E6300F06EFD012600F0D7FC3042FBD0384E7368002B02D1FFF79DFE41E0002373603369DB00FB5898479B
:400A00003369002B06D1237063708033A370413BE37013E028792B6800061B0A184303F0F1F92B4B2B4A01F049FF03F03FFA030A20706370030C000EA370E0702B6828791F
:400A40001B0A0006184303F0DDF9234A234B01F0D5FC002804D0002323706370A370E370002305222900422000F0B8FC022600F08FFC3042FBD0BAE7134BDB680393002B43
:400A800081D0642000F060FF00F014FBC043C0B200F004FBF0E7C046C90200006106000084020020E1020000E10C0000210E000085060000FFD5000040020020CA0200204E
:400AC000C8020020C4000020D4010020B00200209999B93F9A999999CDCCCCCCCCCC004030B5846923788B4219D864788C4216D31400C91A89B2C90089B28B1C0A319BB2A6
:400B000089B28569ED5C01339BB2257001348B42F7D1C37F002B11D01100083108E011001300002408311C7001338B42FBD1F0E71378DB43137001328A42F9D130BD000050
:400B4000002902D088B20A2900D101487047C046FFFF000081617047F0B504000E00170085B002AD2A001900FFF7BAFF009501233A003100200000F0A4F905B0F0BD0000C8
:400B8000F7B5002406000D001F00031D0192DC777368397830009847094B98420ED0094B01379842F4D0C3B22900019A300001350134FFF7D1FFEDB2E4B2E9E72000FEBDE2
:400BC000FFFF0000FEFF000010B5024C4460FFF7D7FF10BD410B000010B5130004690A001721A04710BD07B56B46DA1D11700121FFF7F2FF0EBD002310B51A0004691821C2
:400C0000A04710BD002310B51A0004691921A04710BD70B5040016000D00FFF7ECFF40212000FFF7E0FF33002A00172125692000A8472000FFF7E6FF70BD10B50A00C468CB
:400C400000231521A04710BD10B50A00C46800231621A04710BD10B51300C4680A001721A04710BD002310B51A00C4681821A04710BD002310B51A00C4681921A04710BD2D
:400C800073B505000C002178172916D009D8152925D36B4662782800DA71EE680023B0471BE0192912D9FE2919D16B46627829212800DA7100F04FF90FE06B46DA1D63788C
:400CC000012128001370FFF7C6FF06E0002328001A00EE680134B047D5E70234D3E773BD1439F8B5040015001E000020052931D8080001F0D9F92303031221212000FFF7DD
:400D00007AFF00212000FFF76EFF29002000FFF76AFF2000FFF776FF0EE03200182D07D918212000183DFFF774FFEDB21836F4E729002000FFF76DFF01200BE0631CDA7FB0
:400D4000FF2A01D1873ADA77276933002A0014212000B847F8BD00000B39F8B5040015001F000800042957D801F09EF903560B1D2D002A49002A00D005312000FFF780FF75
:400D80001FE02649002A06D10A312000FFF778FF23689B7C05E011312000FFF771FF2368DB7CA3770DE02000FFF75CFF81212000FFF743FF29002000FFF746FF2000FFF7BF
:400DC00058FF012029E02000FFF74CFF7E79A37F4021F6002000F618FFF72FFF1021F6B2330919432000FFF728FF0F2120003140FFF72AFFB023B97920001943FFF724FF27
:400E00003979013DC900C9B23A682000EDB2FFF722FF002DF4D1D1E70020F8BDFC68000070B504000D00FFF797FF002811D1092D0AD00A2D0ED1200000F014F806492000A6
:400E40001831FFF71DFF04E003492000503100F005F8012070BDC046FC68000001608B7C83777047002370B51A00282145690400A8470023E5681A0014212000A84720004E
:400E800001224B2100F067F8236820001A79292100F061F8200000224B2100F05CF8236820001A79292100F056F8200001224B2100F051F8236829215A79200000F04BF8E8
:400EC00070BD13B56C462371049B6171A271009384686B4601220F21A04716BD002310B51A0084680921A04710BD002310B51A0084680A21A04710BD10B50A00846800237F
:400F00000B21A04710BD73B500236A460400537168460122027122680091557C837123680F211A7C20006B46A668B0476B466A469B790133DBB293719D42F0D873BD13B5EA
:400F4000040008220021684603F08FF869462000FFF7D9FF13BD10B500234469A04710BD002070470023084AC3778260C26002614261C21C0360D377021DD377421CFF3330
:400F80000630D377C3777047610F0000F8B504000F0016001D00FFF7E5FF069BA760E660256163612000FFF799FFF8BD054A1368002803D0802109060B4301E05B005B0886
:400FC0001360704780033A4010B503F019F803680C2B00D1FEE7FEE7030010B580240849084A08686401C3189A1AA24201DC0B6005E003F005F80C2303600120404210BD4E
:40100000F800002010030020F8B500250F49104B01394A1C14D000221F685C689E68A018B24203D0B858A0500432F8E70200DE68141AA64201D020C2FAE710330139E8E717
:4010400002F0E4FFFFF762FCFEE7C0460100000050F6000001210D4A70B5136814008B43136000230A4D0B4E0B489A002900032B00D8B15801338150302BF6D1FEF7CCFFC8
:40108000012223681343236070BDC04600001040C90F000000000000000000204023044980010A689A43D2B2034013430B60704700000440024B18684006C00F7047C0468C
:4010C000040004404023044980010A689A43D2B2034013430B607047000204408021054A10B5136809060B431360082000F018FC10BDC0460000244010B5054C2378002B64
:4011000003D100F007F801232370FFF7E7FF10BDEC01002010B50024194B1A4A1C601A4B08201A60194B1A4A13601A4A14601A4A14601A4A13601A4B1C6000F0FBFB03219E
:40114000082000F0D3FB1749082000F0C7FB1422154BFF321C60154B1C60154B1C60154B1A60154B043A1C60144BFF3A1C60144B1A70144B1C80144B1C60144B1C6010BDE5
:40118000000024407708008060002440070100800003244004032440100324400002244004022440351D0000C80E2440880E2440480F2440080F2440C80F2440880F244075
:4011C000CC020020DC020020EC020020D4020020F8B5264C050023780F000420102B44D10126234B00181B6833423ED100F0A2FBB540FF231D40002F02D1DB3B237002E07B
:4012000025233543237002211A4B1B4A1D601B4B13601B4B19600823FF33106816491842FBD00423086803400ED102200D6805420CD10868102101332170184201D01800C3
:4012400004E08020400001E0002003000821FF311160002B09D080210A4A090613685B005B08136013680B431360F8BDCC0200206400244040022440000F2440170300004E
:401280006800244000002440202210B51A4B04201C78190014422DD0184B18681823104200D1083B164A174C13601223FF332068144A1842FBD01368DB0606D40123106870
:4012C000184204D18020400003E0002000E0180003001224FF34146010220A70002B09D08021094A090613685B005B08136013680B43136010BDC046CC02002064002440E0
:4013000068002440000F24400000244010B51C4A0100137804209B0631D51A4B1A4819600823FF330168184C1942FBD0042321680B4004D0602300201370030010E00220EE
:401340002168014202D06021117009E01021012320681170184201D0180001E0802040000822FF322260002B09D08021074A090613685B005B08136013680B43136010BDEB
:40138000CC02002040022440000F24400000244010B5082000F0CEFA064B1C88064BA4B21B789B0601D504231C43082000F0B8FA200010BDDC020020CC020020054B1A687C
:4013C0002023134000D0082301221343024A13607047C0466400244068002440F7B506000F00019200930424002944D0244D2B78102B08D1082000F09DFA224B24191B6883
:40140000DB0738D408E02B780424602B33D108211D4A13888B43138028232B7000251B4B019A1D601A4B18491D601A4B76001A60194B01241F606B461A78184B184F1A7030
:40144000FF2302221E400B8893430B801549164B1960402315490B6015490B60009B23401C00AB4204D0FFF7A9FF2C003E6002E0104B3E601A60082000F052FA2000FEBDD0
:40148000CC02002064002440DC020020D0020020D4020020D8020020F0020020E40200204002244017030000000F2440800F2440880F244068002440F7B506000F0001923D
:4014C0000093042400294CD0284D2B78102B08D1082000F02FFA264B24191B68DB0740D408E02B780424602B3BD10821214A13888B431380292300222B701F4B1F491A6029
:401500001F4A019B012013601E4B76001F606B461B780B70FF2317491E400B88064383430B80194B194919601368194A072B01D8042306E08020174940000B6803430B604F
:40154000082301241360009B134D23401C1E04D0FFF734FF00242E6003E002220F4B2E601A60082000F0DCF92000FEBDCC02002064002440DC020020EC020020E402002068
:40158000E8020020E0020020000F244017030000C80F2440600024404002244068002440F7B50321102000F0A1F93649102000F095F90722344B1A60344B1B68002B01DB3F
:4015C000334900E033490124334AA446136833480B431360324A334B33491A60334A344B344D1A600023344A1360344A0A6034490A603449344A0B60036014602E68334AB6
:40160000324022432A600191314CDC2725009A0016590C35BF015D5D37403D432D4FD7193D6065462E4205D066469E4001990D6835430D600226A558354204D066469E40E6
:40164000056835430560A4588027802621007F00B6003C00314201D1802464011E4E5D00394203D167087F423FB200E0002777531A4D01336C431A4DE412AC50032BC3D188
:40168000F7BDC046C117000020003A4080033A40402E0013402E101300003A4038023A40FC00008004003A4010003A400000FF0718003A4030003A401C003A400200020061
:4016C00014003A4028023A4018023A40FFFFFFDF18F3000080003A400003002010270000F4020020084B10B51A68002A0BDB07490A68002AFCDB80211A6809060A431A606D
:401700000A2000F0E1F910BD00003A4008023A4010B5054C2378002B03D1FFF741FF01232370FFF7DFFF10BDF40100208021034A490213680B4313607047C04604003A40E7
:4017400010B5002382070DD001240233064918400B680122234002D10028F9D102E0024B1A601300180010BD10023A400023022804D8034B8000C01803689BB218B2704727
:4017800080013A4070B50B4B0B4E42008400D35A3259C91A094DD30F09B29A184D435310002901DC521053423159581900F010FD00B270BD00030020F4020020102700001D
:4017C000014B1A681A60704710023A40024B18680006C00F7047C046040004407F22034B18689043C0B21860C00970471000044010B5040000F0F1F9044AA40713689B0005
:401800009B081C43146000F0ECF910BD10E400E010B58024054B24031C60054B8C3318600320FFF7E5FF034B1C6010BD80E100E00000002000E100E0084A094B1A608E2253
:40184000084B52001A60084B1C3AFF3A1A60074B1D321A600022064B1A60704700070402000120402401204038012040140120400801204010B500F0B0F90121034A13687C
:401880000B43136000F0ADF910BDC0460000204010B5054C2378002B03D1FFF7CDFF01232370FFF7E7FF10BDF5010020014B18607047C04630012040024A034B11680B4046
:4018C0001360704700002240FFFFFFBF024B18684000C00F7047C04600002240024B8000C31818681960704740000020F8B5032605003540B5400F0004000635AE40AF407D
:4019000000F06BF9A408054BA400E4182368B3431F43276000F065F9F8BDC04600E400E01F2318401E3B8340014A13607047C04600E100E01F2318401E3B8340014A13601A
:401940007047C04680E100E070B5802504002D02064BAC4205D9586800F036F9044BE418F6E79868604300F02FF970BDFC0000200080FFFFF7B500F037F900284FD000F0C3
:401980002CF93F2700220400254E26483168135C39400500994201D1033203E001322E2AF4D12B3A1F2020490B68034204D10B688343133803430B6080261C491C4B086849
:4019C000F60118401B4B53439B19DB0B013B0343192A01D818480CE018481018AA180678107DA022801952031343FF2800D9FF2080050343124D0B602B683020019300F0A2
:401A000031FB80210F4AC905136814200B431360FFF79AFF019B20002B6000F0E2F8F7BD2CFF0B4027F3000034FF0B400800224000F800C040420F000000D43FCDF1FF0F4E
:401A4000300010400000224030B587B0040000F0C4F80500FFF73AFF0022904202D0FFF72BFF0122104B1148196802AB02911049096803910F490C19033C217804910E4967
:401A8000096805910D490091694601930C4B19600C4908601B68012A01D1FFF76BFF280000F09FF807B030BD08010B401700008000010B4027F3000030001040B6EA0000C4
:401AC000080010400400104010B5034B1B7B584300F07AF810BDC046FC00002010B5002404210E4B0E4A1C601C615C609C60DC600C4B1A600C4A13680B43FA2113600B4B25
:401B00008900186900F0DAFA8022094B12021860084B1C60084B1A6010BDC046F8010020911B00003C00002010E000E0FC00002014E000E018E000E000E100E00221024AFD
:401B400013680B431360704710E000E010B5FFF7F5FF0121024A13680B43136010BDC04610E000E010B5054C6369002B03D1FFF7B5FF01236361FFF7E9FF10BDF80100206F
:401B8000024B1868C003C00F7047C04610E000E010B5FFF7F5FF012808D10024044BE358002B00D098470434142CF7D110BDC046F8010020024A8300985899507047C0466F
:401BC000F8010020000000000230800803D00138FDD1C046C046C0467047EFF3108072B6704780F310887047014B1868C00F70470000224010B5FFF7F0FFC021034A0902C5
:401C000013680B431360FFF7ECFF10BD00010B4010B58024FFF7E1FF0749084B0A68E4011A4022430A600A6813408022120213430B60FFF7D6FF10BD00010B40FF3FFFFFB0
:401C400070B50500FFF7C9FF0E4B04001A68C0231B02134011D10C480C49054028000E680B4A3240104308600A68012B01D1FFF7C1FF2000FFF7B5FF70BDFFF7C9FF01235B
:401C8000E9E7C04600010B400404040010020B40FBFBFBFF042270B5224C2368134213D021494B6813420CD0204B5D6A48681540A8434860596A914359629B69002B00D0C4
:401CC00098470420FFF7BCFF80232268DB001A4215D015494A681A420DD0144A556A48682B4098434860516A114B0B405362D369002B00D098478020C000FFF7A1FF80231D
:401D00002268DB021A420CD0074A52681A4204D0064B1B6A002B00D098478020C002FFF78FFF70BD10020B401001002010020020FFFBFFFFF8B5A84B1B68002B00D0984751
:401D4000A64B1B68DB0702D50022A54B1A60A54B1A78920601D4002223E0A34A00211068C00506D5C024A148A40001882143018001211268D20706D590209C4980000A889A
:401D800002430A8001E00029E5D0012202201978964C1140411A2088014389B221800021197018781021800600D4D8E08E4C206808420DD08E4A8D4C11600122187802404C
:401DC0000220821A2088024392B22280197001E1187800071BD502202568054209D0844A8249106088200A88800002430A8001220DE01878C00702D52521197007E02420C7
:401E000018707C480068002801D07B48016004251978294200D19FE001201978014243D0082676490C68344223D07549754C0D68754909682768EF1B1F252940791AB1429B
:401E400007D8002906D17149714A0D682A400A60020031006F4E704D20683768013938182F68FFB207702068013020600029F3D117E00968294214D06249664E0C6836685A
:401E80003419654E3668F6B226700C6801340C600C685B4909688C4202D260490D6000E002005F485F494DE0022124680C4220D04F4A5D4C11601F225C490E680D68216898
:401EC00032408A1AE90B0840101A206084202168574A8000116045490A88024380200A80544A400211680143116010685249014030E052490868C00626D5402050494B4DC9
:401F00000E6849491F272C683C40082C18D00C68A446384C2768BC4512D224680F68013CBC4203D1474C2060334C20600C68464F34192478E4B23C600C6801340C60E1E7AC
:401F400010204049086007E00968490604D5364A1168374A11601AE0002A18D13AE01A780A4237D1394802685200520802601970264B374A19680A401A601968354A0A40C5
:401F80001A608022036812061343036022E01F491F4A086802400A6000222F490A6016490A602E4A127892070CD5012219780F480A400A218A1A01880A4392B2028060224F
:401FC0001A7007E0264B1A681823920600D4083B124A1360F8BDC046F00100208C0E2440880E2440CC0200200C0F2440DC020020000F2440D8020020880F2440CC0F2440EE
:40200000E8020020EC0200200803244060002440FFFEFFFFE00200204003244068002440ED0F0000C00F2440D002002008022440D402002004022440FFFFFEFF8C0F2440FC
:40204000F0020020800F24404002244000002440FF5FFFFFFFFCFFFFC80F2440E40200206400244010B50400FFF7B7FD102C04D803210C4A13688B430FE0202C05D8032169
:40208000084A13688B43023906E0302C06D80321044A13688B4301390B431360FFF7A1FD10BDC0463000104002B4714649084900095C49008E4402BC7047C046002243081E
:4020C0008B4274D303098B425FD3030A8B4244D3030B8B4228D3030C8B420DD3FF22090212BA030C8B4202D31212090265D0030B8B4219D300E0090AC30B8B4201D3CB033A
:40210000C01A5241830B8B4201D38B03C01A5241430B8B4201D34B03C01A5241030B8B4201D30B03C01A5241C30A8B4201D3CB02C01A5241830A8B4201D38B02C01A524164
:40214000430A8B4201D34B02C01A5241030A8B4201D30B02C01A5241CDD2C3098B4201D3CB01C01A524183098B4201D38B01C01A524143098B4201D34B01C01A5241030972
:402180008B4201D30B01C01A5241C3088B4201D3CB00C01A524183088B4201D38B00C01A524143088B4201D34B00C01A5241411A00D20146524110467047FFE701B50020C9
:4021C00000F0F0F802BDC0460029F7D076E7704703460B437FD4002243088B4274D303098B425FD3030A8B4244D3030B8B4228D3030C8B420DD3FF22090212BA030C8B4271
:4022000002D31212090265D0030B8B4219D300E0090AC30B8B4201D3CB03C01A5241830B8B4201D38B03C01A5241430B8B4201D34B03C01A5241030B8B4201D30B03C01A96
:402240005241C30A8B4201D3CB02C01A5241830A8B4201D38B02C01A5241430A8B4201D34B02C01A5241030A8B4201D30B02C01A5241CDD2C3098B4201D3CB01C01A5241E6
:4022800083098B4201D38B01C01A524143098B4201D34B01C01A524103098B4201D30B01C01A5241C3088B4201D3CB00C01A524183088B4201D38B00C01A524143088B424C
:4022C00001D34B00C01A5241411A00D201465241104670475DE0CA0F00D04942031000D34042534000229C4603098B422DD3030A8B4212D3FC22890112BA030A8B420CD309
:40230000890192118B4208D3890192118B4204D389013AD0921100E08909C3098B4201D3CB01C01A524183098B4201D38B01C01A524143098B4201D34B01C01A52410309D0
:402340008B4201D30B01C01A5241C3088B4201D3CB00C01A524183088B4201D38B00C01A5241D9D243088B4201D34B00C01A5241411A00D20146634652415B10104601D3E7
:402380004042002B00D54942704763465B1000D3404201B5002000F005F802BD0029F8D016E770477047C0468446101C62468C46191C634600E0C0461FB501F065F900288D
:4023C00001D40021C8421FBD10B501F0B9F84042013010BD10B501F057F9002801DB002010BD012010BDC04610B501F04DF9002801DD002010BD012010BDC04610B501F096
:40240000DFF8002801DC002010BD012010BDC04610B501F0D5F8002801DA002010BD012010BDC0468446081C6146FFE71FB500F0B9F9002801D40021C8421FBD10B500F0CE
:4024400045F94042013010BD10B500F0ABF9002801DB002010BD012010BDC04610B500F0A1F9002801DD002010BD012010BDC04610B500F053F9002801DC002010BD012016
:4024800010BDC04610B500F049F9002801DA002010BD012010BDC046F0B5564644465F464D46F0B444024600C70F83B08846650A360EBA463DD0FF2E22D00023EC008025D1
:4024C00099469B46ED0425437F3E43465C025800DB0F640A000E984636D0FF2830D080230021E400DB041C437F38301A0190484642460843724E800030587A40130087461B
:40250000002D44D108239946063B9B46DDE70122FF2000241A406402C305640AD2071C431443200003B03CBC90469946A246AB46F0BD002D20D104239946033B9B46C4E78A
:40254000002C17D1022102E0002C0AD10121321A01924A4643460A435A48920082587B409746200001F02EFD431F76309C4040420021BAE70321B8E7280001F023FD431F6C
:402580009D4000237630464299469B469DE70C239946093B9B4698E780240022E403FF20B9E70024C2468B465A465346022AAED0032A7DD0012A31D1012200201A40002443
:4025C000A9E70122101A1B2856DD1A4000200024A1E78023DB031D424BD18023DB032B435C02640A3A00FF2095E76D016001854230D2019A0024013A01921B220127290023
:4026000064006D00002901DBA84201D82D1A3C43013A002AF3D16A1E95412C4301987F300028CEDD620704D00F222240042A00D00434220103D5244A019814408030FE28F8
:4026400000DD64E70122A401640AC0B21A4062E72C00A9E72D1A1A220124CFE76B02BCD500248023DB031C436402640A4246FF2051E71C42B3D1F4E721002022C140101ACD
:402680008440621E94410C43620704D00F222240042A00D00434620104D5012201201A40002438E70122A401640A1A40002032E78023DB031C436402640A5246FF202AE74A
:4026C0006CF30000ACF30000FFFFFFF7430270B542004C005D0AC30F4802120E460A240EC90FFF2A0FD0FF2C11D00120A24200D070BDB542FCD18B420DD0002AF8D1280054
:40270000431E9841F4E70120002DF1D1EBE70120002EEDD1E9E70020EAE7C0464302F0B542005D0AC30F4802440A4800120E000EC90FFF2A1FD0FF2822D0002A09D16E429E
:402740006E4100280FD1002C0DD10020002D09D005E0002801D1002C01D08B4213D0584201231843F0BD002EF7D048424141012049420843F6E7002DDDD002204042F1E7F5
:40278000002CDAD0F9E78242E9DC04DBA542E6D80020A542E6D25842434101205B421843E0E7C0464302F0B542004C005E0AC30F4802120E450A240EC90FFF2A17D0FF2CE3
:4027C00019D0002A0BD170427041002C17D0002807D048424141012049420843F0BD002C13D08B4214D0584201231843F6E70220002EF3D1E3E70220002DEFD1E1E7002D2D
:40280000E5D10020002EE9D0EDE7002DE9D1EAE7A242E8DC04DBAE42E5D80020AE42DDD25842434101205B421843D7E770B5002830D0C317C5185D40C40F280001F0C2FB1D
:402840009E231B1A962B0DDC9622D21A95406A02520AD8B25202C005520AE40702432243100070BD992B19DC9922D21A9540124A2A40690704D00F210D40042D00D00432B3
:40288000510103D50C4B1A409F231B1A9201520AD8B2DFE7002400200022DBE705222E00121AB921D6402A00C91A8A40551EAA4135001543DBE7C046FFFFFFFBF8B55646A3
:4028C0005F464D464446F0B40F00FD0FAA4609037C002E005F00450F490A7F0D2943C5001803BC46400A570F640DDB0F3843D2009A4500D1AAE06646A61B002E00DCFFE0E9
:402900006346002B39D10300134300D0D9E06B0709D00F232B40042B05D02B1DAB42AD416D4249191D000B0200D482E0CA4B01349C4200D1FEE00A005646C84BED081A4078
:402940005007640552020543120B640D002112030B0D1B056405120B1A436308C04CF60714401C43640064083443280021003CBC90469946A246AB46F8BDB74B9C42C6D0B4
:4029800080231B041843382E00DDEBE01F2E00DD1EE120239B1B9C4603006746BB40984613004746F3403B436746BA40571EBA4113430200F240EB1A9D42B6411D008A1AD1
:4029C0007642911B0B0231D54A02560A002E00D1B4E0300001F0F6FA0300083B1F2B00DDB5E020222900D21AD1409E400A009D4032439C4200DDB1E01C1B631C1F2B00DD43
:402A0000D5E0202114002800C91A8C40D8408D400443DA40681E854111002543002476E74146314300D134E2310045466B0700D06FE756464807ED08C9080543864B9C424B
:402A400035D00A036405120B640D7FE76346E31A9B46002B00DC8BE06746002F3CD07E4FBC4200D153E780273F0438435B46382B00DCF7E00243501E82410020D2B253198E
:402A80004218AB4289411D00494289180B02CDD5714B01349C4200D13DE101206F4A6B080A4028401843D507054351082FE72B000B4300D1CBE180231B030B431A03120B23
:402AC00044E7013E002E6DD1AE1AB5429B41091A5B42C91A350075E70700174300D116E701235B429C46E3445B46002B00D0E0E0AA18AA429B4109185B4259181500C5E762
:402B0000002E75D1661C7605760D012E00DCF3E0AE1AB0464545BF410E1A7F42F61B370200D48FE0551BAA42B641411A76428E1B9A464BE756460022002507E7280001F0FA
:402B400041FA20300300083B1F2B00DC49E72A002838824000259C4200DC4DE73F49E41A1140D4E60243501E8241D3B2002222E7002B00D0F3E0631C9C465B055B0D012BF5
:402B800000DC9FE0344B9C4500D1C3E0AA180918AA42804140424118CD075208154349086446B4E62C4B9C4200D0ECE6AFE611001F3CE1400C00202B00D17FE04021CB1A7A
:402BC0009A4015436A1E95410021254300242DE733000700203BDF403B00202E70D04027BE1BB0400243501E824113430022E2E6002C4FD0184CA44500D1ABE08024240461
:402C000076422143382E00DDDFE01F2E00DD43E12027BC1BA1460C004F46BC40A0462C004746F4403C434F46BD406F1EBD41F1402C43151BAA429241411A5242891A64464C
:402C40009A46BFE641464546314300D0BEE6002600240025F2E6C046FF070000FFFF7FFFFFFF0F801F2B59DC2027FF1ABC46070063469F405B46B9461700DF40B8464F46A0
:402C800043461F4363469A40531E9A415B463A43D840F4E60C002C435CD0F643002E55D1551BAA42A441411A6442091B9A46644688E6964FBC4200D0D8E628E6002280E7B0
:402CC00000208FE70B002B43002C00D0C2E0002B00D101E10300134300D118E6AB18AB42B6410918764271180A0200D409E1884A1D00114064460AE6002C5BD10E002E439D
:402D000000D08AE00100114300D1C2E0010015009A46FCE56446002100258FE620235B429C46DC4463460700DF405B46BC46202B00D1ACE040235F46DB1B98400243501ED0
:402D40008241634613431A00002098E66F4CA44500D057E70100150064469A46D7E5002C39D10C002C436ED0DB43002B1AD0674CA44568D0382B00DDA4E01F2B00DDAEE05C
:402D800020240F00E41AA740B9462F00DF40B846A3464F46444627435C46A5406C1EA541D9403D43AD1895429B4109185B42591864466BE60C002C4315D1010011437BD0EB
:402DC000010015009A46514CA1E50D43691E8D410021ECB22DE74D4CA44534D0802424045B422143C6E7040014434ED0ED084C072C438025C9082D03294208D0C6082E42EB
:402E000005D1D208410711430C009A463100620FC900E50011433D4C79E50600164300D175E5AE1AB0464545BF410E1A7F42F61B370200D4F4E5551BAA42B641411A7642B7
:402E4000891B9A4663E50100150064465FE5002200257BE5002B3BD00300134315D0ED084B072B438025C9082D03294207D0C4082C4204D141070B002100D2081343C9004E
:402E80005A0F1143DD00214C41E5204C3FE5002054E700260025D1E534000F00203CE7403C00202E2BD04027BE1BB1400D43691E8D4100212C43BCE6802100260903134C74
:402EC0000025BBE50D43691E8D410021EDB269E7010015000D4C1AE50100150017E51C000F00203CE7403C00202B0CD04027FB1A99400D43691E8D410021254352E70021EA
:402F0000D4E71D0092E50021F3E7C046FF070000FFFF7FFFF0B556464D4644465F46F0B41D000E034C00CB0F87B0070092468146360B640D98466AD06D4B9C4235D08022E0
:402F4000430F12041343F6001E43C3009946694B00279C460023644402932B0368001B0BED0F51469B46400D009500D178E0604B98426CD05B46DA004B0F802109040B43B0
:402F800013439B465346D9005A4B9C46002360444246201A6A40924601901F430F2F00D9B0E05548BF00C0598746374300D088E0002399460233082700260293CDE74346EA
:402FC000B34649460093029B009A9246022B00D0BFE1002153460122002689461A40444B002136030C0D2405360B2643434C1B0526401E437600D2077608164348463100AE
:4030000007B03CBC90469946A246AB46F0BD330003434FD0002E00D1BCE1300000F0D2FF03000B3B1C2B00DDADE11D220100D31A08393A008F408E40DA40B9461643304B54
:4030400000279C46002360444442029385E753465A4613432CD1002300219B46023397E70B4320D05B46002B00D19EE1584600F0A9FF03000B3B1C2B00DD8FE10200594687
:40308000083A91408B461D21CB1A5146D9400B0059460B4351469B469140194B9C4660444042002374E7002300219B4601336FE703236DE7002399460133042700260293E9
:4030C0004BE703230C27029347E70122D51A382D00DCB0E153461A4000210023002689467EE700238026994600223603004B77E7FF07000001FCFFFFECF30000FFFF0F80F4
:40310000F30300005E4500D972E100D16DE1019B4D46013B01930023340002935B461E020B0E1E430B020393330C994633041B0C494620000093FEF7C1FF009B3700434317
:403140000600494620009846FFF73EF82C0C09040C43A04509D9E419731EA74200D95CE1A04500D859E1023EE4194346E41A49462000FEF7A3FF0300009A8046534349461F
:4031800020009B46FFF720F82A040904120C0A4393450DD94346D219013B974200D93AE1934500D837E102235B429C46D219E0445B46D21A4346360433439B460399180C3D
:4031C0000B0C1D00059309045B46090C0C001B041B0C4443049159436B4368431B190D0CEB189C4203D980246402A44660441C0C09041B04090C20185D18824200D2DEE0D1
:4032000000D1D7E0161A029B9C465D1BAC459B415B42F61AB74200D106E149463000FEF74DFF009B04004343494630009846FEF7CBFF2E0C09040E43B04509D9F619631E34
:40324000B74200D9F3E0B04500D8F0E0023CF6194346F31A494618000293FEF72FFF009B06004343494602989846FEF7ADFF2D0409042D0C0D43A84509D9ED19731EAF42DD
:4032800000D9D6E0A84500D8D3E0023EED192404210043463143049E059A3000ED1A0B040C0C1B0C58436643534354439A19030C9B189E4203D980225202944664441A0C75
:4032C00000041B04000C14191B18A54250D34DD001231943964A019B94466344002B00DCF3E64A0709D00F220A40042A05D00A1D8A42894149428B4411005A46D20108D59B
:403300005A468C4B1A4093468022D2009446019B6344894A934200DD5BE65A46C908500708435602514601225B058146360B5B0D0A4055E680231B031E4211D05A461A4214
:403340000ED15E461E433603360B2A0089467B4B46E6032B00D1E1E0012BBBD11A40BBE61E433603360B4246744B39E6002BB1D07D194A1EAF4252D91100A542A8D1039A7C
:403380009A42A5D1A6E703003E00283B9E400023994654E600F016FE203041E603005246283B9A400021934677E6504600F00AFE20305EE6029B0026AB4200D323E7039E76
:4033C0000299B44661448846B045B6415B467642F619B218013B0291974213D290424FD800D18EE0161A9B460DE7894500D28EE674084B46F60735005B081D434B46DB0754
:4034000002938BE69742EDD10399029CA142E5D93E1A9B46F7E69846CAE61E00A5E6AC423ED874D0110053E70121494252E71C000EE71E002BE71F2D3CDC20230A005846BE
:403440005B1B9840EA4099400243481E81415E461143EE404B0709D00F230B40042B05D00B00191D99429B415B42F61833023CD55346012200211A40002601238946AFE5EF
:4034800002235B429C46039CE344A446029B63449846A045B6417642F6190293B218B1E603988A1E41008142B6417642F619AD19039161E71F225242D31A5A46DA401300C7
:4034C000202D29D040225846551BA8400143481E814107200B4318400026002809D00F2200261A401900042ABBD10B0070077602360BDB0803439946012253461A400023CE
:403500006EE502998D42BBD89B4600267BE603989842C5D3110032E70020D7E780265B4636031E433603360B009A8946034B57E5FF030000FFFFFFFEFE070000FF07000068
:40354000F0B55F4656464D464446F0B41F035C00DB0F9A46194B0E034D00C90F8046360B6D0D8B4691463F0B640D9D4219D0134B9C421BD00123A54206D018003CBC904628
:403580009946A246AB46F0BDBE42F6D1C845F4D1D34510D0002DF0D1304303005A1E9341EBE7310001230143E7D1E0E73A430123002AE2D1DEE70023DFE7C046FF07000043
:4035C000F0B55F46444656464D46F0B41F033C0B2C4F0E034D00A3465C008446360B6D0DC90F9046640DDB0FBD422BD0254FBC422ED0002D0ED130430700814678427841E5
:40360000002C17D15F463A4314D14B460020002B0AD006E0002C02D15846024301D099421AD00123484218433CBC90469946A246AB46F0BD0028F2D058425841012240425D
:403640001043F1E737000743D0D002204042EBE75F461743CDD0F8E7A542E2DC05DB5E45DFD808D000205E45DED248424841012340421843D8E7C445D3D80020C445F4D36C
:40368000D2E7C046FF070000F0B55F464D4644465646F0B41C03240BA4462F4C0F034D005E00C90F80463F0B6D0D8B469146760DDB0FA54220D0284CA64222D0002D12D182
:4036C000384344424441002E20D0002C0DD05C42634101245B421C4320003CBC90469946A246AB46F0BD002E17D05B4519D05B465C4201231C43EFE7390002240143EBD1D2
:40370000D9E7614602241143E6D1D7E761460A43DBD100240028DFD0E9E761460A43E4D1E5E7B54203DD01225C421443D4E7B542CDDB6745DBD809D000246745CCD25946C5
:403740004C426141012449420C43C5E7C845CED80024C845F3D3BFE7FF070000F0B557464E464546E0B40E001100F20F9246C500420F180337037400400A4E0F7F0A3043A9
:40378000CF4E17435A00640D520DDB0FC900B24200D1E5E001267340A61AB446534500D1AFE0002E00DC0DE1002A3AD103000B4300D0E4E06B0709D00F232B40042B05D0A1
:4037C0002B1DAB42AD416D427F191D003B0200D488E0BB4B01349C4200D110E13A00B94B51461A4001235007ED08520264050543120B640D0B400021280012030D0D120BDC
:4038000064052D0515436208AF4CDB072C401443640064081C4321001CBC90469946A246F0BDA74B9C42C5D080231B0418436346382B00DDFDE01F2B00DD30E162462023AE
:403840009B1A02009A40664690460A009940F24046464B1E99413243114363460200DA40691A8D429B410D00BA1A5B42D71A3B0235D57A02530A98464346002B00D1C4E0FF
:40388000404600F09FFB0300083B1F2B00DDC5E020222900D21A4746D1409F400A009D403A439C4200DDC0E01C1B631C1F2B00DDE4E0202114002800C91AD8408C408D40A1
:4038C0000443DA40681E854117002543002471E7424663461A4300D14CE2674645466B0700D069E7012351467807ED08FA080B40054373498C4238D012036405120B640D67
:4039000079E7002E00DC9AE0002A47D06C4A944200D14FE78022120410436246382A00DC08E10143481E81410022C9B24919D219A942BF410D007F42BF183A0200D442E1DC
:403940005F4A0134944200D14EE101205D4A69083A4028400843D507054357089A4629E706000E4300D017E714E72900114300D1F9E1802109030A431203120B3BE7012300
:403980005B429846C4446346002B72D1691A8D429B413F1A5B42FF1A0D0068E702000A4300D107E7012252429046C4446246002A00D0E6E06918A942B6413F187642F71947
:4039C0000D00BAE7002E00D080E0621C5205520D012A00DCF9E06A1A91464D45B6413A1A7642921B9046120200D499E04D1BA9428941C71B49427A1A90469A463CE7524644
:403A00000123002513400022F5E6280000F0DAFA20300300083B1F2B00DC39E72A002838824000259C4200DC3EE7264FE41A1740C0E60143481E81410022C9B210E7002E37
:403A400000D0F1E0621C94465205520D012A00DCA0E01B4A944500D1C5E06918A94292413F185242D2194908D5070D4357086446A0E6134B9C4200D0D9E69BE611001F3C83
:403A8000E1400C00202B00D180E04021CB1A9A4015436A1E95410027254300241FE763460200203BDA406346202B71D0402366469B1B98400143481E814111430022CFE645
:403AC000FF070000FFFF7FFFFFFF0F80002C48D0CA4CA24200D1A2E07442A1468024240427434C46382C00DDDBE01F2C00DD44E14E462024A41B3E00A640A246B0464C464D
:403B00002E00E640B4464646644626435446A5406C1EA54134002C434D46EF400D1B28E04A4643464D461A4300D0A5E6002300240025DEE61F2A5ADC66462022921B060060
:403B400096409146B04662460E00D640424616434A4691404A1E9141020060463143C240E4E63C002C435AD0F443A146002C52D14D1BA9428941C71B49427F1A14009A4619
:403B800075E69E4A944200D0C7E613E600227FE700208FE7002C00D0C8E03B002B4300D10FE103000B4300D104E66918A9429B413F185B42DF193B0200D41AE1904B0D0016
:403BC0001F406446F6E59A4689E63A002A43002C5CD1002A75D102000A4300D1CAE007000D009A46E6E564460022002581E662460600203AD6406246B046202A00D1B7E0D3
:403C000040226646921B904001434246481E8141114300228AE6794CA24200D061E707000D0014009A46C5E5002C41D13C002C4378D0F443A146002C20D0704CA24271D060
:403C40004C46382C00DDB2E01F2C00DDBCE02026341BA2463C005646B4404E46A0462C00F440A446444666463443A4465446A54064466E1EB54125434C46E7406D188D4257
:403C800089413F184942CF19140056E6002A2FD102000A4300D184E007000D009A46574C88E53D436F1EBD41ECB200270D1B60E7524CA24236D0744280263604A1463743B0
:403CC000BEE702000A4300D174E56A1A90464545B6413A1A7642921B9446120200D4F7E54D1BA9428941C71B49427F1A9A4661E502000A433AD0ED087C072C438025FA0844
:403D00002D032A4208D0C7082F4205D145072C003A009A46C9080C43670FD200E5001743364C47E507000D00140043E53A002A4343D002000A4319D0ED087C072C43802544
:403D4000FA082D032A4207D0C6082E4204D147073C003200C9080C43D700620FE50017439A46264C26E50022002544E5234C21E5002049E700230025BBE54C463E00203CB2
:403D8000E6404C46B446202C31D040244E46A61BB7403D436C1EA54164462C4300270D1BE7E6802200231203144C0025A1E53D436F1EBD410027EDB260E707000D000F4CC3
:403DC000F8E407000D00F5E44E463C00203EF440A0464C46202C0ED040244E46A41BA7403D436F1EBD4144460027254346E70027CFE70D0073E50027F2E7C046FF070000B9
:403E0000FFFF7FFF4200120E511C4302C9B270B55D0AC40F012915DDE02189008C466D071B0B6244002128000D0D2D052B431C4D52052B40520813435B00E4075B08234373
:403E4000190070BD002A15D1002D1FD0280000F0B9F80A281DDC0B232A001B1ADA4013000200153295400F4A1B03121A52051B0B520DD7E7002D06D080221B0B1203134391
:403E80006D07094ACEE7084A0023CBE700220023C8E703000B3B9D402B000025E3E7C046FFFF0F8089030000FF0700004B0070B55E0D0C03751C640A420F6D052243C90F1D
:403EC000C4006D0D012D2ADD3B4BF318FE2B1ADC002B42DD8001451EA841D2001043620F0243500704D00F201040042800D004328020C004104021D00133FF2B03D0920168
:403F0000520ADBB201E0FF2300225202520ADB0513435B00C9075B080B43180070BD002E07D01443EFD08020D20080040243FF23D7E722430023002A03D00522D208FF2B86
:403F400003D05202520ADBB2DFE7002A32D08020C00302435202520AD7E71800173014DB8020000402431E20C01A1F280FDC2500124BF3189D406E1EB5419A402B00134361
:403F80002200C2401A430023ABE70023D5E702256D42EB1A1500DD40202809D0084BF3189A401443621E9441220000232A4398E70022F6E70022A8E780FCFFFF82FCFFFF03
:403FC000A2FCFFFF1C2101231B04984201D3000C10391B0A984201D3000A08391B09984201D30009043902A2105C40187047C0460403020201010101000000000000000038
:40400000014B18687047C046780100200E4B70B500251E000D4CE41AA410A54204D0AB00F35898470135F8E70BF000FB084B00251E00084CE41AA410A54204D0AB00F358AA
:4040400098470135F8E770BD38F6000038F6000038F6000040F60000002310B59A4203D0CC5CC4540133F9E710BD03008218934202D019700133FAE77047F0B58BB014001A
:404080001D1E129906DA802424061B191D0014002D2300E000230B702023149E03229E43462E07D03300453B59424B411099013ACB18109309AB049308AB0393139B0092DB
:4040C0000293109B220001932B0000F0FDFC0700472E02D1119BDB072DD5109BFB180793462E14D13B78302B0CD10022002320002900FEF769F9002804D10123109A9B1AD6
:40410000139A1360139B079A1B68D31807930022002320002900FEF757F93022002802D0079B099307E0099B0799994203D9591C09911A70F7E73800099B159ADB1B13605E
:404140000BB0F0BDF7B52B2307000C000270861C002901DA2D234C427B70092C1CDD6B46DD1D20000A21FEF719F9013D3031297020000A21FEF72CF804000928F1DC013DE2
:4041800030342C706B4607333000AB4209D92B78013533700136F5E73023E4183370B01C7470C01BFEBD0000F0B595B00C000A920B931A9D099001F04DFA036818000D9373
:4041C00000F0F4FB0023129323680E900C930C99277E2B680722C90501D59B1800E0073393431A0008322A601A685B68A264E3640122E56CA66C6B005B080F935242C04BFE
:4042000030000F9902F018FA002819D10122BC4B524230000F99FEF7E7F8002810D10022002330002900FEF7D5F8002803D023002D2243331A70B34D472F0ED8B24D0CE009
:4042400032002B003000290002F0F6F9002800D19AE1AE4D472F00D8AD4D03230C9A236101339A432260002642E0672F00D193E1472F00D190E10C9A0021134312AA0592C2
:4042800011AA0392232223600691019308A9636852180292009332002B0004970998FFF7ECFE20233A0005009A43472A00D18EE11199652F00D996E1200001393A00503083
:4042C0001191FFF73FFF129A060083182361012A00DD85E12268D20700D581E1232308AA9B181B78002B03D023002D2243331A700B9B13AA009321000A9B099800F0A4F977
:40430000431C02D1012040429BE12268530501D4236964E0652F00D8CCE0A06CE16C00220023FEF751F800282CD00123794A0A9909980B9DA847431CE4D0119B129A93428B
:4043400008DB2368DB0705D4236800259B0700D50FE113E10B9D0E9B0D9A0A990998A8470025431CCED0129B013B9D42ECDA220001231A320A9909980B9EB047431CC1D0C8
:404380000135F0E7119B002B2BDC0123614A0A9909980B9EB047431CB4D0119B002B05D1129B002B02D12368DB07CDD50B9E0E9B0D9A0A990998B0470026431CA2D0119B3E
:4043C0005B429E420ADA220001231A320A9909980B9FB847431C95D00136F0E7129B2A00ACE0A36D129E9E4200DD1E00002E05DC00230C93F343DB170F9315E033002A0020
:404400000A9909980B9FB847431CF1D17AE7220001231A320A9909980B9FB847431C00D170E70C9B01330C930F9BA26D0C993340D31A9942EBDBAE18119B129A93420DDB53
:404440002368DB070AD4129B119AED18AD1B9B1A9D4200DD1D00002D09DC11E00E9B0D9A0A9909980B9FB847431CECD14AE72B0032000A9909980B9EB047431C00D141E718
:40448000EF43FB1700260C930AE0220001231A320A9909980B9FB847431C00D132E70136119A129B0C999B1A2A000A409B1A9E42EBDB49E7129B012B02DC01231A4245D00D
:4044C00001232A000A9909980B9FB847431C00D118E70E9B0D9A0A9909980B9FB847431C00D10FE7A06CE16C00220023FDF76CFF002801D000251AE0129B6A1C013B26E065
:40450000FFFFEF7F30F400002CF4000038F4000034F400003CF40000220001231A320A9909980B9FB847431C00D1EBE60135129B013B9D42F0DB2200330050320A990998E3
:404540000B9DA847431C00D0FEE6DBE62A000A9909980B9DA847431CEDD1D3E62200012319320A9909980B9EB047431C00D1C9E60135E368139A9B1A9D42EFDB139BE0681F
:4045800098425EDA18005CE080236268DB00511C00D06AE6073202E0002A02D10122626069E60C9908A80B430021069112A9059111A90391232109182360019300922B0041
:4045C0000497029132000998FFF757FD0500119BDA1C02DB626893421CDD023FFFB267E6013323617AE6662F15D16368002909DD2161002B02D12268D2071ED5013359182D
:4046000021611AE0002B03D101222168114213D09A1C11E06727119B129A934206DB22682361D20709D50133236106E00121002B01DC4918C91A8A182261119B0026A3650A
:404640004CE615B0F0BDC046F7B5170001938A680B6900900C00934200DA130022003B6043321278002A01D001333B6023689B0602D53B6802333B60062523681D401ED078
:40468000230043331B785A1E9341226892061CD53020E1184331087021005A1C45310978A2184332023311700FE022000123193201990098089EB047431C0ED00135E368BA
:4046C0003A689B1A9D42F0DBDAE72200019943320098089DA847431C02D10120404220E006232068E1683A6803400025042B03D18D1AEB43DB171D40A3682269934201DD52
:404700009B1AED180027BD420AD0220001231A3201990098089EB047431CDED00137F2E70020FEBDF0B58BB006920A0043320793059004920A7E0C00109B6E2A00D1ABE076
:4047400011D8632A22D009D8002A00D1B5E0582A00D0C5E045310A70814A4FE0642A1DD0692A1BD0BCE0732A00D1AAE009D86F2A29D0702A00D0B3E0202209680A43226000
:4047800037E0752A1FD0782A33D0A9E00E001A684236111D196013683370A4E021681A68080606D4490604D5111D19600023D55E02E0111D19601568002D3BDA2D23049A87
:4047C0006D42137036E021681A68080606D4490604D51568111D1960ADB202E0111D196015685F4B227E039308276F2A1DD00A271BE022007821453211705A4A196803929F
:40480000081D226818600D68100602D4500600D5ADB2D30702D520231A4322601027002D03D1202322689A4322602300002243331A7002E00A274A4B03936368A360002BB3
:4048400009DB0422216891432160002D05D1049E002B11D07BE0002D79D0049E28003900FDF7B2FC039B013E5B5C280033703900FDF724FC051EF1D1082F09D12368DB071A
:4048800006D563682269934202DC3023013E3370049B9B1B23612BE009681A68080607D4490605D5111D19601368A28A1A8004E0111D1960136862691A600023049E23617A
:4048C00016E01A68111D1960166800216268300000F0CEFE002801D0801B6060636803E0260042363270012323610023049A1370079B09AA00932100069B0598FFF7A4FE37
:40490000431C02D10120404227E02369320006990598079DA847431CF4D0236800259B070FD4099BE068984217DA180015E022000123193206990598079EB047431CE1D079
:404940000135E368099A9B1A9D42F0DBE9E72600039B42361B7833708EE70BB0F0BDC0463EF400004FF400000EB410B59DB002A9029008610B488224886048610120404273
:404980001FABC881084804CBA400006801938C8101F080FA0023029A13701DB010BC08BC03B01847FFFFFF7F780100200023C25C0133002AFBD1581E7047F0B503690C69C9
:4049C00089B00700059100269C4279DC0B00013C1433A50003935B1904930300143302935D19049B28681B68591C0193FDF766FB0190B04233D0039B02989C460696634669
:404A000004CB9C46019B91B25943120C5A4389190B0CD3180793069A1E0C038889B29B1802685B1A110C6A46928B8A1A1914521811149BB21204134308C0049B0691634586
:404A4000DDD22B68002B0AD1029B043DAB4201D33C6104E02B68002BFAD1013CF4E70599380001F021F8002829DB0020019B02990133039A019340CA0B881818B3B2C31A56
:404A80000868360C000C801B1D14451928149BB22D042B4308C1049B9342ECD2029AA300D3181A68002A0AD1029A043B9A4201D33C6104E01A68002AFAD1013CF4E7019E00
:404AC000300009B0F0BD0000F0B516001F00446A9DB00490259D06960797002C08D1102000F0BCFD049B5862446084600460C460049B5B6A196800290BD05A6801239340D2
:404B00004A608B60049800F0F6FD0022049B5B6A1A60079B002B05DA01232B607B005B08079301E000232B60079CC84B220019931A409A4219D1C64B249A1360069AC54B69
:404B4000002A02D1240300D1C34B269A1800002A01D100F07DFDD978DA1C002900D00532269918000A6000F073FD069E079F0022002330003900FDF727FC051E0ED00123A8
:404B8000249A1360B54B269A1800002A01D100F05FFDB34A26990A6000F05AFD1AAB01931BAB009332003B00049801F003F8630005905B0D09D03A03AA4C120B1443AA4ABC
:404BC000300021009E1817951AE01A9B1B9A9E18A64BF318202B08DDA54A0698B218D0404022D31A9C40204303E020220698D31A984001F0B9FD01239E4C013E091917937F
:404C000000229D4BFEF7AAFD9C4A9D4B01F09AFA9C4A9D4BFDF752FE040030000D0001F061FD9A4A9A4B01F08DFA02000B0020002900FDF743FE04000D0001F01DFD0022CF
:404C40000390002320002900FDF7C4FB00280DD0039801F047FD02000B0020002900FDF7B3FB43424341039AD31A039301231693039B162B11D88749DB00C918086849684A
:404C8000069A079BFDF7BAFB002805D0039B013B03930023169300E016901A9B9E1B00230B93013E0C9604D50C9B5B420B9300230C93039B002B08DB039A0C9B944663444C
:404CC0000C9300231192089307E00B9B039A9B1A0B935342089300231193229B0125092B25D8052B02DD0025043B2293229B981E032824D8FDF7D8F9060E0204012302E085
:404D0000012308E000231093239B002B20DD1F000A9321E00023239A1093039B9F187B1C0A930123FA18002A16DD130014E0012700237F42229310950A97123305E001273F
:404D400001237F4210930A9711330022239203E001273B000A972397049A546A00226260043211001431994204D86168520001316160F6E76168049800F085FC049B2060EB
:404D80005B6A1B680D930A9B0E2B00D981E1002D00D17EE1069B079C14931594039B002B31DD0F223B491340DB00CB185C681B680E930F94039B02241D11EB060AD514986B
:404DC0001599354B15401A6A5B6AFEF7A3F8069007910134304E002D0ED001231D4208D00E980F99E4183268736801F0ABF90E900F916D100836EEE70E9A0F9B069807995E
:404E0000FEF788F84CE0039B02245D42002D49D0149815990F231F4A2B40DB00D3181A685B6801F08FF90023069007911A4E2D11002D33D00122154205D0A418326873689D
:404E400001F080F901236D100836F1E70000F07F0F27000069F4000060F400003CF400003DF400000000F03F01FCFFFF3204000012040000000010FE0000F83F61436F6329
:404E8000A787D23FB3C8608B288AC63FFB799F501344D33FD8F40000B0F50000002B01D006900791169B002B1DD0069D079E0022C74B28003100FDF78DFA002813D00A9B66
:404EC000002B10D0002F00DCDFE0039B3100013B0E930022BF4B280001F034F90134069007913E0002E0039B0A9E0E93200001F0F9FB069A079B01F025F90022B64BFDF7E8
:404F0000DDFCB64A12901391129C139D9446139B634418931D00002E1CD1069807990022AF4BFEF71BFC2200189B06900791FDF765FA002800D054E2AA48139984466144EB
:404F40000B00069807992200FDF744FA002800D03DE29AE0109A731EA349DB00002A49D0CB181A685B680020A049FDF7D3FF2B002200FEF7F3FB129013910D9D0698079969
:404F800001F07AFB040001F0ADFB02000B0006980799FEF7E3FB01356B1E30341C70129A139B06900791FDF715FA002800D02EE3069A079B00208649FEF7D0FB129A139B42
:404FC000FDF708FA002800D0C7E00D9BEB1AB3425BDA1298139900227E4B01F0B3F8002212901391069807997A4B01F0ABF806900791C3E7C9182200086849682B0001F051
:40500000A1F80D9C12901391A5190698079901F033FB060001F066FB02000B0006980799FEF79CFB303626700134069007910022A54222D16D4B12981399FDF73FFC020004
:405040000B0006980799FDF7D9F9002800D084E0129A139B00206549FEF780FB02000B0006980799FDF7B6F900280ED06B1E1A78302A00D0CBE21D00F8E706980799554B6D
:4050800001F060F806900791BFE7149B159C069307941B9B002B00DA81E0039A0E2A00DD7DE0D300504AD3185C681B6808930994239B002B15DA0A9B002B12DC00D088E16E
:4050C000089809990022464B01F03CF8069A079BFDF79EF90A9B08931E00002800D07BE182E10D9D069E079F089A099B30003900FDF710FF01F0C0FA040001F0F3FA089ADF
:40510000099B01F01FF802000B0030003900FEF725FB220001356B1E30321A700D9B0A9AEB1A9A422ED102000B00FDF7C7FB06000F0002000B0008980999FDF74BF90028B8
:405140000FD10898099932003B00FDF73DF9002800D15EE2E30704D45BE20E9B039300E01D006B1E1A78392A08D10D9A9A42F7D1039A0D990132039230220A701A780132C4
:405180001A7046E20022134B00F0DCFF0022002306000F00FDF718F90028A5D039E2109A002A44D0229A012A0BDC179A002A02D00F4A9B1802E036231A9A9B1A089D0B9C7C
:4051C00029E00A9B5D1E089BAB4213DB5D1B18E00000F03F0000244000001C400000C0FC000014400000C07CD8F400000000E03F33040000089B0895EA1A0025119B9B1873
:4052000011930A9B002B04DA0B9B0A9A9C1A002301E00B9C0A9B0B9A0121D2180B920C9A0498D3180C9300F006FB060002E0089D0B9C109E002C0ED00C9B002B0BDD0C9A75
:405240002300944200DD13000B9AE41AD21A0B920C9AD31A0C93089B002B20DD109B002B17D0002D11D031002A00049800F076FB059A01000600049800F0E6FA05990E90AB
:40528000049800F038FA0E9B0593089B5A1B06D000E0089A0599049800F060FB05900121049800F0C8FA119B0890002B00D1C0E11A000100049800F051FB229B0890012BA0
:4052C00017DC0025069BAB420ED1079B1B03AB420AD1199B079A134206D00B9B013501330B930C9B01330C93119B0120002B0DD000E00025089B089A1B690E9303339B00E4
:40530000D318586800F04DFA2023181A0C9BC0181F23184009D001331B1A042B02DD1C23181A03E0042B08D018001C300B9B24181B180B930C9B1B180C930B9B002B05DD0F
:405340001A000599049800F05DFB05900C9B002B05DD1A000899049800F054FB0890169B002B1DD00899059800F09EFB002817DA039B0A22013B039305990023049800F088
:40538000D3F9109B0590002B00D159E1310000230A22049800F0C8F90600002F37DC33E00A9B0A9F002B2ADC229B022B27DD002F12D108993B000522049800F0B5F908902F
:4053C0000100059800F070FB00280DDC04E0089602E000231E000893239B0D9DDB4303930AE00E9B089603930D9B0D9A5D1C31231370039B013303930A960026F3E0109B35
:40540000002B04D10D9DB5E0229B022BCFDC002C05DD31002200049800F0F4FA06000A96002D12D07168049800F02DF93100040033690C319A1C92000C30FEF70DFE0122C8
:405440002100049800F0DEFA0A900D9B7D1E0B935B190E9308990598FFF7AFFA310010900400059800F020FB0A9A05000899049800F035FB01230C93C36830340700002B33
:4054800004D10100059800F00FFB0C903900049800F031F90C9B229A134308D1069A0133134204D1392C2AD0002D1CDC1DE0002D06DB229B1D431BD10123069A134217D1CB
:4054C0000C9B002B11DD05990122049800F09AFA0899059000F0E8FA002802DC05D1E30703D5392C0BD0109C31340B9B5D1C0FE00B9B5F1C0C9B002B0CDD392C05D10B9B49
:405500000B9A5D1C3923137057E03D000B9B01341C7068E00B9B0E9A3D001C7093423CD000230A220599049800F0FEF80A9B05909E4208D1310000230A22049800F0F4F8F9
:4055400006000A900DE0310000230A22049800F0EBF8002306000A220A99049800F0E4F80A900B9776E700230A220599049800F0DBF8059008990598FFF71FFA0D9B303080
:40558000287001350400EB1ABB42ECDB3D1E00DC01250A9600260D9B5D1905990122049800F030FA0899059000F07EFA002804DC13D1E30701D410E01D006B1E1A78392AC4
:4055C00008D10D9A9A42F7D1039B013303933123137008E001321A7005E06B1E1A78302A01D11D00F9E70899049800F084F80A9B002B0ED0002E05D09E4203D031000498A0
:4056000000F079F80A99049800F075F801E00E9B03930498059900F06EF800232B70039B249A01331360269B0D98002B10D01D600EE0229B012B00DC43E6119D012065E618
:40564000002F00DDDEE6229B022B00DCDAE6AEE61DB0F0BD004870477C01002010B5034B0100186800F054FB10BDC04678010020C9B28218904204D003788B4202D00130E5
:40568000F8E70020704770B5466A04000D00002E07D11020FFF7E2FF6062466086600660C660666AF368002B09D0636AAA00DB689B18186800280ED002681A6017E0212227
:4056C0000421200000F0CAFA636AF060DB68002BEBD100200EE001210E00AE40721D9200200000F0BBFA0028F3D04560866000230361C36070BD70B5456A06000C00002DF8
:4057000007D11020FFF7AAFF7062456085600560C560002C07D0726A6368D2689B00D3181A6822601C6070BDF7B5070008000C000D691E00002101921430019A038801311A
:4057400053439B190668360C56431A0C9446B4446246160C120494469BB2634408C08D42EBDC002E1BD0A3689D4212DB63683800591CFFF788FF2100236901909A1C920027
:405780000C310C30FEF768FC21003800FFF7B3FF019C2B1D9B00E31801355E6025612000FEBD00220300010C914201D103041032190E01D108321B02190F01D104321B018A
:4057C000990F01D102329B001000002B03DB20205B0000D5501C70470722036810B501001A400CD001240020234223D10222134203D0E34020000B601CE09B0818E098B2AB
:40580000002801D110221B0CD8B2002801D108321B0A180701D104321B09980701D102329B08D80704D45B082020002B02D0013210000B6010BD10B50C000121FFF723FFC2
:4058400001234461036110BDF0B50B691400126989B00D00934201DA25000C002F692669AA68BB1969680193934200DD0131FFF70AFF0200BB1914329B00D3189C46002165
:4058800013000290634501D202C3FBE71435BF00EB191434B6000593A31903950793079B9C4251D2208800281ED015000026039F08CF069504936B461B8A434319002B88A2
:4058C000CB1804999B19090C41432E68360C89191E0C89190E0C9BB209040B4308C5059BBB42E5D8069B5E6023681D0C1FD0002110001368039F04913E8801686E43090CD2
:405900007118049E9BB289190E043343036008CF86881B0C6B43090C9B195B18190C0491059906900430B942E6D806994B6004340432B4E704235B429C4463461B68002B43
:4059400005D1019B013B0193019B002BF2DC029B019A18001A6109B0F0BD00000323F7B5134005000E001400002B08D02349013B9A00525800233100FFF7D6FE0600A3100D
:40598000019338D06C6A002C07D11020FFF766FE6862446084600460C4606F6ABC68002C10D117492800FFF746FF0023B8600400036007E0019B5B1001931CD02068002880
:4059C00010D004000122019B1342F3D0310022002800FFF739FF070031002800FFF78BFE3E00E7E7220021002800FFF72DFF002320600360E5E73000FEBDC046A0F5000073
:405A000071020000F0B50C0017002369551185B0EB180193013300934968A3680290009A934202DA01315B00F9E70298FFF72BFE00230200060019001432AB4203DA9800FB
:405A400011500133F9E7EB43DB171D402300AD0055192269143392009A1894461F22174014D00132D21B0392002219682800B9400A4304C504CB0399CA409C45F5D8426036
:405A8000002A07D0019B0233009303E004CB04C59C45FBD8009B0298013B33612100FFF72AFE300005B0F0BD03690A6910B59B1A0400181E12D1930014341431E218C9180B
:405AC000043A043913680868834204D083429B410120184302E09442F2D3002010BDF0B50C0085B00700110020001500FFF7DCFF061E07D101003800FFF7C5FD0123466164
:405B0000036155E000230193984204DA23002C001D000123019361683800FFF7B4FD019B26692F00C3601434B300E318020002932B69002514379B00FB180393143208CC25
:405B400069469C4608CF0432009363468B808B885D19009B9BB2EB1A65460193009B2D0C190C019B691A1D14131F9C466B4649199B880D1409040B4361460B60039BBB42CF
:405B8000DDD8029913008C420BD202CC8BB25B191D14090C49190D149BB209040B4308C2EFE7043B1A68002A01D1013EF9E7066105B0F0BDF7B51D000121089F1400FFF706
:405BC00062FD2B036D0006001B0B6D0D02D08022520313430193002C18D068460094FFF7FBFD009C002809D0019B20211A00091A8A40C34022437261019300E07461019C6C
:405C0000B461631E9C410134346107E001A8FFF7E3FD0124019B346173612030002D06D00B4BED1835232D183D60181A0BE0094BC018094B3860E3189B00F3185869FFF722
:405C4000B0FD6401201A099B18603000FEBDC046CDFBFFFFCEFBFFFFFFFFFF3F4A4370B51100140000F054F8051E03D022000021FEF7FBF9280070BD70B50500002944D011
:405C80000C1F2368002B00DAE418280000F027FA1E4A13681100002B02D16360146031E0A3420DD92268A018834203D118685B688218226063600C6024E0A24203D81300B0
:405CC0005A68002AF9D11E689819A0420BD12168711858181960824214D110685268411819605A600EE0A04202D90C232B6009E021686018824203D11068526841182160A4
:405D000062605C60280000F0EBF970BD3C020020032370B5CD1C9D43083506000C2D01D20C2501E0002D01DBA94202D90C23336048E0300000F0D3F9234B1C681A00210017
:405D4000002913D00B685B1B0DD40B2B02D90B60CC181EE08C4202D1636813601AE04B6863600C0016E00C004968E9E7174C2368002B03D1300000F08BF9206029003000A7
:405D800000F086F9431C18D00323C41C9C43A0420DD12560300000F0A3F9200007220B30231D9043C31A0ED05A42E2500BE0211A300000F06DF9431CEBD10C23300033606E
:405DC00000F08EF9002070BD3C02002038020020F0B58E6885B007000C00039201939E4243D890238A89DB001A423ED003250969236801985B1A029363695D43EB0F5D1971
:405E0000029B6D1001331B18AB4200D91D00530510D529003800FFF77BFF061E14D0029A2169FEF719F9A289194B134080221343A38112E02A00380000F053F9061E0CD12C
:405E400021693800FFF718FF0C23402201203B60A38940421343A38117E0029B2661F61826606561019EED1AA560019BB34200D21E0032000399206800F01CF90020A368B7
:405E80009B1BA36023689E19266005B0F0BDC0467FFBFFFFF0B59FB0029005938B890F0016001B0610D50B69002B0DD14021FFF72FFF38603861002804D10C23029A0138F0
:405EC0001360D8E040237B61002306AD6B6120336B761033AB7634002378002B03D1A31B049312D003E0252BF9D00134F4E7A31B320039000298FFF76BFF431C00D1B4E006
:405F00006A69049B944663446B612378002B00D1ABE00122002352426A6002A95432521801342B60EB60AB601370AB65534E217805223000FFF79CFB002807D00123801BBC
:405F400083402A68013413432B60EFE72B68DA0604D55322202102A8121811701A0704D553222B2102A81218117022782A2A03D0099B00200A210EE0059A111D12680591FE
:405F8000002A01DB099204E05242EA60022213432B6001340BE02278303A092A04D84B4301349B180120F6E7002800D0099323782E2B1ED163782A2B0AD1059B02341A1D43
:405FC0001B680592002B01DA01235B42079310E000230A201A0001346B6021783039092904D84243013452180123F6E7002B00D00792234E217803223000FFF739FB002855
:4060000006D04023801B83402A68013413432B60217806221B48661C2976FFF729FB002812D0194B002B06D10722059B073393430833059314E005AB00933A00134B2900AE
:406040000298FEF7B1F807E005AB00933A000F4B29000298FEF766FB0390039B013304D06B69039A9B186B6135E7BB890B985B0601D5012040421FB0F0BDC046D8F50000BC
:40608000DEF50000E2F50000A9410000D15D0000002370B5064C050008002360FAF79CFF431C03D12368002B00D02B6070BDC0460803002010B5884202D98B18984201D30B
:4060C000002305E09B1A013A08D3995C8154FAE7934203D0CC5CC4540133F9E710BD70477047F8B506000C001500002904D11100FFF70EFE040018E0002A03D1FFF7BCFD5D
:406100002C0012E000F013F885420ED929003000FFF7FEFD071E07D021002A00FDF79CFF21003000FFF7A8FD3C002000F8BD0B1F1A68101F002A04DA891804390B68D0185F
:4061400004387047F0B55F4656464D464446F0B40D0399464E002B0B87B00700924680469B46760DCC0F002E69D06D4B9E4235D05B468022DD001204430F13432B439B46C6
:40618000C3009846674B00279C460023664401934A4615035000D20F53462D0B400D914600D176E05E4A90426CD080225B0F120413435C4AED0094461D4353460022DB009C
:4061C000604449463618701C6140029017430F2F00D9AFE05448BF00C759BF465B461F4300D088E000239B469846023308270193CEE74946022A6AD0032A00D109E2012A0C
:4062000000D0BBE111400022002300259046CCB200212D030A0D12052D0B1543434A1B0515401D436D00E4076D0825434046290007B03CBC90469946A246AB46F0BD03435E
:4062400052D05B46002B00D18AE15846FDF7BAFE03000B3B1C2B00DD7BE11D22D31A3A0001005D46DA4008398D4013008F402B439B46B8462E4B00279C46002360444642AF
:40628000019385E752462A432CD100250023022297E752462A4321D0002D00D154E12800FDF790FE03000B3B1C2B00DD46E11D21CB1A51460200D9405346083A9540934033
:4062C0000D431B4A944660444042002279E7012400220C40124B0025904699E70025002301226EE703226CE700239B4698460133042701934CE703230C27019348E700237D
:406300008025984600242D03054B81E75D464346019A6FE75D4643462100019A6AE7C046FF07000001FCFFFFECF50000FFFF0F80F30300004246120C91461A0C9446424608
:4063400017044A461B041B0C5A43604690464A4642431000039262461C003F0C7A437C4342440192220C9246019A5244904506D98246802040028046C24450460390100C0F
:40638000049048462404240C1204121905922A0C2D042D0C68432C00824648467C4350438146200C8046574357444744BA4503D9802040028046C144380C3F04B84648445A
:4063C0002404240C01900498A044404404905846000C814658460404200C8246070048465F434C464343604660436446834650464443380C8446E4186444A34203D98023D3
:406400005B029C46E34448463F04230C3F0C2404E419574668436F4384464D46504655434243380C814662444A445B44944503D9802040028446654403983F048346049851
:406440003F0C8446E344C345804140428246100484460198674484466744A344BC46A345A4419946D44464428742BF41D4458041E144A04699459B417F424042C8440743E2
:40648000120CBA18A045A4415F423B0064422343D71843467D19DB0D6D021D435B465A02059B1A43531E9A415B46DB0D1A4343465B021343EA0107D501225C081340234306
:4064C000EA07029E13436D08574AB218002A4BDD580709D00F201840042805D0181D98429B415B42ED180300E80104D54F4A15408022D200B2184E48824200DDE7E601241C
:40650000DB08680718436D02530580462D0B5B0D0C407DE6802259461203114208D0154206D115432D0398462D0B4C46414B6FE65D4615432D032D0B3E4B69E60300554639
:40654000283B9D400023BCE65046FDF73BFD2030A8E60300283B9F400023BB46984689E6FDF730FD203073E60124A61A382E07DD00220C4000230025904649E6029EA3E7E2
:406580001F2E20DC20222C001800921BF040944093400443581E83411C43F540630709D00F232340042B05D023001C1D9C4292415242AD182B021FD5012400220C40012359
:4065C0000025904624E61F202C004042821AD440202E1CD04022961BB5402B43581E83410720234318400025002809D00F2200251A401C00042AD8D1230068076D022D0B28
:406600000124DB08034398460C40002300E60025E3E780220124120315432D0398462D0B0C40044BF4E5C046FF030000FFFFFFFEFE070000FF07000070B50E4E0C031D033E
:4066400049005B00240B490D2D0B5B0DB14204D0084900208B4208D070BD04430120002CFAD1044900208B42F6D115432800451EA841F1E7FF0700000B0330B5134D1A0BC5
:406680004B005B0DC90F0024AB4211DD104CA34210DC8024640322430E4CE41A1F2C0CDD0D48C31ADA4013005C42002900D11C00200030BD094BCC18FAE7E040084CA44690
:4066C00063449A4013000343EEE7C046FE0300001D0400003304000013040000FFFFFF7FEDFBFFFF70B5002830D0C317C4185C40C50F2000FDF766FC174B184A1B1AD21A45
:406700001F2A18DD164AD21A9440002224035B05240B5B0D0021100024030A0D1205240B1443104A1B0514401C436400ED0764082C43210070BD210091400A000B21081AB7
:40674000C4405B052403240B5B0DE3E70025002300240022DEE7C0461E0400003304000013040000FFFF0F8070B5051E28D0FDF729FC154B154A1B1AD21A1F2A16DD2C0036
:40678000134A0025D21A94405A052403240B520D002124030B0D240B1B0523430D4C1205234013435B002800590870BD0B212C00081AC440954024035A05240B520DE7E7FF
:4067C00000220024E4E7C0461E0400003304000013040000FFFF0F80000000000000000041303D2564206D562020200041313D2564206D562020200041323D2564206D5674
:4068000020200054656D703D252E316620430048756D69646974793D252E3166252500496C6C756D3D252E3166206C757800506F743D252E3266560041323D252E326656F5
:406840000041313D252E32665600427574746F6E733D2578004C4544733D2578004C454420436E74726C3D25780050617373004661696C00427574746F6E7320203D2020AC
:406880002573004441432020202020203D2020257300504F542020202020203D2020257300414C532020202020203D202025730048554D4944495459203D20202573005430
:4068C000454D5020202020203D202025730050536F432041464520536869656C6400546573740056616C75657300426173652041444300427574746F6E7300001815AF19F0
:40690000FF1815AE19FF1815A115C819FF1815A015C019FF1815AE15D5168015A8163F15D316001540158D16141520160015A115C815DA1612158116CF15D916F115DB16F1
:4069400040152E15A415A619FF0000000001140A6464323200093D000004289610080000800040001815AE15D5168015A8163F15D316001540158D16141520160015A1153B
:40698000C815DA1612158116EF15D916A115DB1600152E15A415A619FF0000000001140A6464323200093D00030428961008020280004000205F0000000000000000000032
:4069C000065F5F0600000003070000070300147F7F147F7F140000242E6B6B3A1200466630180C666200307A4F5D377A4800000004070300000000001C3E634100000000EA
:406A000041633E1C0000082A3E1C1C3E2A080008083E3E080800000080E060000000000808080808080000000060600000006030180C060301001C3E6349633E1C00004033
:406A4000427F7F40400042637159496F660022634949497F3600181C16537F7F50002F6F4949497931003C7E4B4949783000030371790D070300367F4949497F3600064FC6
:406A80004949693F1E000000006666000000000080E6660000000000081C36634100002424242424240000004163361C0800020301595D0702003E7F415D5D1F1E007C7E5E
:406AC0000B090B7E7C00417F7F49497F36001C3E634141632200417F7F41633E1C00417F7F495D416300417F7F491D0103001C3E6341513372007F7F0808087F7F000000BC
:406B0000417F7F410000307040417F3F0100417F7F081C776300417F7F41406070007F7F0E1C0E7F7F007F7F060C187F7F003E7F4141417F3E00417F7F49090F06003E7F2E
:406B40004141E1FFBE00417F7F09197766000022674D597322000003417F7F4103003F7F4040407F3F001F3F6040603F1F003F7F6038607F3F0063771C081C776300000706
:406B80004F78784F0700476371594D67730000007F7F414100000103060C18306000000041417F7F0000080C0603060C0800808080808080808000203A0000000000000056
:406BC0000000000000000000000000000000000000000000000000000000000000000000000000000000000000000000000000000000000000000000000000000000000095
:406C0000000000000000000000082A3E1C1C3E2A080008083E3E080800000080E060000000000808080808080000000060600000006030180C060301001C3E6349633E1C6F
:406C4000000040427F7F40400042637159496F660022634949497F3600181C16537F7F50002F6F4949497931003C7E4B4949783000030371790D070300367F4949497F36D9
:406C800000064F4949693F1E000000006666000000207F00000000000000000000065F5F0600000003070000070300147F7F147F7F140000242E6B6B3A1200466630180C32
:406CC000666200307A4F5D377A4800000004070300000000001C3E63410000000041633E1C0000082A3E1C1C3E2A080008083E3E080800000080E0600000000008080808DF
:406D000008080000000060600000006030180C060301001C3E6349633E1C000040427F7F40400042637159496F660022634949497F3600181C16537F7F50002F6F494949FC
:406D40007931003C7E4B4949783000030371790D070300367F4949497F3600064F4949693F1E000000006666000000000080E6660000000000081C3663410000242424240B
:406D800024240000004163361C0800020301595D0702003E7F415D5D1F1E007C7E0B090B7E7C00417F7F49497F36001C3E634141632200417F7F41633E1C00417F7F495D54
:406DC000416300417F7F491D0103001C3E6341513372007F7F0808087F7F000000417F7F410000307040417F3F0100417F7F081C776300417F7F41406070007F7F0E1C0EDB
:406E00007F7F007F7F060C187F7F003E7F4141417F3E00417F7F49090F06003E7F4141E1FFBE00417F7F09197766000022674D597322000003417F7F4103003F7F40404068
:406E40007F3F001F3F6040603F1F003F7F6038607F3F0063771C081C77630000074F78784F0700476371594D67730000007F7F414100000103060C18306000000041417FBA
:406E80007F0000080C0603060C080080808080808080800000010306040000207454543C784000417F3F44447C3800387C4444446C2800387C44453F7F4000387C545454A4
:406EC0005C1800487E7F490903020098BCA4A4F87C0400417F7F08047C78000000447D7D4000000060E08080FD7D00417F7F10386C44000000417F7F4000007C7C0C780CB9
:406F00007C7800047C7804047C7800387C4444447C380084FCF8A4243C1800183C24A4F8FC8400447C784C040C0800485C54545474240004043F7F446420003C7C40403C37
:406F40007C40001C3C6040603C1C003C7C6038607C3C00446C3810386C44009CBCA0A0A0FC7C00004C64745C4C64000008083E77414100000000EFEF000000004141773E21
:406F8000080800020301030203010070784C464C78700020FF00000000000000000000065F5F0600000003070000070300147F7F147F7F140000242E6B6B3A12004666307F
:406FC000180C666200307A4F5D377A4800000004070300000000001C3E63410000000041633E1C0000082A3E1C1C3E2A080008083E3E080800000080E060000000000808C8
:40700000080808080000000060600000006030180C060301001C3E6349633E1C000040427F7F40400042637159496F660022634949497F3600181C16537F7F50002F6F497B
:4070400049497931003C7E4B4949783000030371790D070300367F4949497F3600064F4949693F1E000000006666000000000080E6660000000000081C36634100002424BE
:40708000242424240000004163361C0800020301595D0702003E7F415D5D1F1E007C7E0B090B7E7C00417F7F49497F36001C3E634141632200417F7F41633E1C00417F7FAF
:4070C000495D416300417F7F491D0103001C3E6341513372007F7F0808087F7F000000417F7F410000307040417F3F0100417F7F081C776300417F7F41406070007F7F0E5C
:407100001C0E7F7F007F7F060C187F7F003E7F4141417F3E00417F7F49090F06003E7F4141E1FFBE00417F7F09197766000022674D597322000003417F7F4103003F7F40BB
:4071400040407F3F001F3F6040603F1F003F7F6038607F3F0063771C081C77630000074F78784F0700476371594D67730000007F7F414100000103060C18306000000041F7
:40718000417F7F0000080C0603060C080080808080808080800000010306040000207454543C784000417F3F44447C3800387C4444446C2800387C44453F7F4000387C5489
:4071C00054545C1800487E7F490903020098BCA4A4F87C0400417F7F08047C78000000447D7D4000000060E08080FD7D00417F7F10386C44000000417F7F4000007C7C0C92
:40720000780C7C7800047C7804047C7800387C4444447C380084FCF8A4243C1800183C24A4F8FC8400447C784C040C0800485C54545474240004043F7F446420003C7C402C
